:020000040800F2
:1000000000000220ED310008192900081B29000812
:100010001D2900081F2900082129000800000000F0
:10002000000000000000000000000000232900087C
:1000300025290008000000002729000829290008B8
:100040003D3200083D3200083D3200083D320008D4
:100050003D3200083D3200083D3200083D320008C4
:100060003D3200083D3200083D3200083D320008B4
:10007000312900083D3200083D3200083D320008B9
:100080003D3200083D3200083D3200083D32000894
:100090003D3200083D3200083D3200083D32000884
:1000A0003D3200083D3200083D3200083D32000874
:1000B0003D3200083D3200083D3200083D32000864
:1000C0003D3200083D3200083D3200083D32000854
:1000D0003D32000841290008512900086129000823
:1000E0003D3200083D3200083D3200083D32000834
:1000F0003D3200083D3200083D3200083D32000824
:100100003D3200083D3200083D3200083D32000813
:10011000CD2900083D320008DD2900083D320008E5
:100120003D3200083D3200083D3200083D320008F3
:100130003D3200083D3200083D3200083D320008E3
:100140003D3200083D3200083D3200083D320008D3
:100150003D3200083D3200083D320008ED2900081C
:100160003D3200083D3200083D3200083D320008B3
:100170003D3200083D3200083D320008000000001A
:080180003D3200083D32000889
:1001C00081F0004102E000BF83F0004330B54FEA08
:1001D00041044FEA430594EA050F08BF90EA020F75
:1001E0001FBF54EA000C55EA020C7FEA645C7FEA08
:1001F000655C00F0E2804FEA5454D4EB5555B8BF2B
:100200006D420CDD2C4480EA020281EA030382EA9B
:10021000000083EA010180EA020281EA0303362D2D
:1002200088BF30BD11F0004F4FEA01314FF4801C00
:100230004CEA113102D0404261EB410113F0004F12
:100240004FEA03334CEA133302D0524263EB4303C9
:1002500094EA050F00F0A780A4F10104D5F1200E67
:100260000DDB02FA0EFC22FA05F2801841F10001C2
:1002700003FA0EF2801843FA05F359410EE0A5F196
:1002800020050EF1200E012A03FA0EFC28BF4CF0C7
:10029000020C43FA05F3C01851EBE37101F000457D
:1002A00007D54FF0000EDCF1000C7EEB00006EEB8A
:1002B0000101B1F5801F1BD3B1F5001F0CD3490814
:1002C0005FEA30004FEA3C0C04F101044FEA44526B
:1002D00012F5800F80F09A80BCF1004F08BF5FEAF2
:1002E000500C50F1000041EB045141EA050130BDD2
:1002F0005FEA4C0C404141EB0101013C28BFB1F5E4
:10030000801FE9D291F0000F04BF01460020B1FA2E
:1003100081F308BF2033A3F10B03B3F120020CDA01
:100320000C3208DD02F1140CC2F10C0201FA0CF0DF
:1003300021FA02F10CE002F11402D8BFC2F1200C44
:1003400001FA02F120FA0CFCDCBF41EA0C019040FA
:10035000E41AA2BF01EB0451294330BD6FEA040443
:100360001F3C1CDA0C340EDC04F11404C4F120022E
:1003700020FA04F001FA02F340EA030021FA04F340
:1003800045EA030130BDC4F10C04C4F1200220FA97
:1003900002F001FA04F340EA0300294630BD21FAD5
:1003A00004F0294630BD94F0000F83F4801306BF9B
:1003B00081F480110134013D4EE77FEA645C18BF8F
:1003C0007FEA655C29D094EA050F08BF90EA020F26
:1003D00005D054EA000C04BF1946104630BD91EA1E
:1003E000030F1EBF0021002030BD5FEA545C05D121
:1003F0004000494128BF41F0004130BD14F5800460
:100400003CBF01F5801130BD01F0004545F0FE41D3
:1004100041F470014FF0000030BD7FEA645C1ABF08
:10042000194610467FEA655C1CBF0B46024650EA3F
:10043000013406BF52EA033591EA030F41F400216B
:1004400030BD00BF90F0000F04BF0021704730B5F1
:100450004FF4806404F132044FF000054FF00001C6
:1004600050E700BF90F0000F04BF0021704730B587
:100470004FF4806404F1320410F0004548BF40425C
:100480004FF000013EE700BF42004FEAE2014FEAB1
:1004900031014FEA02701FBF12F07F4393F07F4F8C
:1004A00081F06051704732F07F4208BF704793F08F
:1004B0007F4F04BF41F40021704730B54FF46074A2
:1004C00001F0004521F000411CE700BF50EA0102A5
:1004D00008BF704730B54FF000050AE050EA01024E
:1004E00008BF704730B511F0004502D5404261EBBE
:1004F00041014FF4806404F132045FEA915C3FF4FF
:10050000D8AE4FF003025FEADC0C18BF03325FEA9B
:10051000DC0C18BF033202EBDC02C2F1200300FA4C
:1005200003FC20FA02F001FA03FE40EA0E0021FA71
:1005300002F11444BDE600BF70B54FF0FF0C4CF45F
:10054000E06C1CEA11541DBF1CEA135594EA0C0F11
:1005500095EA0C0F00F0DEF82C4481EA030621EA4C
:100560004C5123EA4C5350EA013518BF52EA033587
:1005700041F4801143F4801338D0A0FB02CE4FF039
:100580000005E1FB02E506F00042E0FB03E54FF069
:100590000006E1FB03569CF0000F18BF4EF0010E61
:1005A000A4F1FF04B6F5007F64F5407404D25FEA5D
:1005B0004E0E6D4146EB060642EAC62141EA555110
:1005C0004FEAC52040EA5E504FEACE2EB4F1FD0C52
:1005D00088BFBCF5E06F1ED8BEF1004F08BF5FEAD0
:1005E000500E50F1000041EB045170BD06F0004682
:1005F00046EA010140EA020081EA0301B4EB5C042F
:10060000C2BFD4EB0C0541EA045170BD41F4801126
:100610004FF0000E013C00F3AB8014F1360FDEBF4B
:10062000002001F0004170BDC4F10004203C35DA27
:100630000C341BDC04F11404C4F1200500FA05F3AA
:1006400020FA04F001FA05F240EA020001F000424B
:1006500021F0004110EBD37021FA04F642EB0601C1
:100660005EEA430E08BF20EAD37070BDC4F10C04EB
:10067000C4F1200500FA04F320FA05F001FA04F2AF
:1006800040EA020001F0004110EBD37041F100019B
:100690005EEA430E08BF20EAD37070BDC4F12005A6
:1006A00000FA05F24EEA020E20FA04F301FA05F20E
:1006B00043EA020321FA04F001F0004121FA04F2B6
:1006C00020EA020000EBD3705EEA430E08BF20EA86
:1006D000D37070BD94F0000F0FD101F000464000C0
:1006E00041EB010111F4801F08BF013CF7D041EA42
:1006F000060195F0000F18BF704703F00046520046
:1007000043EB030313F4801F08BF013DF7D043EA16
:100710000603704794EA0C0F0CEA135518BF95EACC
:100720000C0F0CD050EA410618BF52EA4306D1D153
:1007300081EA030101F000414FF0000070BD50EA72
:10074000410606BF1046194652EA430619D094EAFC
:100750000C0F02D150EA013613D195EA0C0F05D1E6
:1007600052EA03361CBF104619460AD181EA03013A
:1007700001F0004141F0FE4141F470014FF00000F2
:1007800070BD41F0FE4141F4780170BD70B54FF08D
:10079000FF0C4CF4E06C1CEA11541DBF1CEA13550D
:1007A00094EA0C0F95EA0C0F00F0A7F8A4EB0504EF
:1007B00081EA030E52EA03354FEA013100F08880E6
:1007C0004FEA03334FF0805545EA131343EA1263AF
:1007D0004FEA022245EA111545EA10654FEA002664
:1007E0000EF000419D4208BF964244F1FD0404F51D
:1007F000407402D25B084FEA3202B61A65EB030579
:100800005B084FEA32024FF480104FF4002CB6EB35
:10081000020E75EB030E22BFB61A754640EA0C00B5
:100820005B084FEA3202B6EB020E75EB030E22BFF5
:10083000B61A754640EA5C005B084FEA3202B6EB36
:10084000020E75EB030E22BFB61A754640EA9C00F5
:100850005B084FEA3202B6EB020E75EB030E22BFC5
:10086000B61A754640EADC0055EA060E18D04FEA83
:10087000051545EA16754FEA06164FEAC30343EA23
:1008800052734FEAC2025FEA1C1CC0D111F4801FF0
:100890000BD141EA00014FF000004FF0004CB6E7E9
:1008A00011F4801F04BF01430020B4F1FD0C88BF88
:1008B000BCF5E06F3FF6AFAEB5EB030C04BFB6EB93
:1008C000020C5FEA500C50F1000041EB045170BD86
:1008D0000EF0004E4EEA113114EB5C04C2BFD4EBB3
:1008E0000C0541EA045170BD41F480114FF0000E37
:1008F000013C90E645EA060E8DE60CEA135594EAB3
:100900000C0F08BF95EA0C0F3FF43BAF94EA0C0FB5
:100910000AD150EA01347FF434AF95EA0C0F7FF42A
:1009200025AF104619462CE795EA0C0F06D152EA7E
:1009300003353FF4FDAE1046194622E750EA410662
:1009400018BF52EA43067FF4C5AE50EA41047FF473
:100950000DAF52EA43057FF4EBAE12E74FF0FF3CD8
:1009600006E000BF4FF0010C02E000BF4FF0010CA9
:100970004DF804CD4FEA410C7FEA6C5C4FEA430C22
:1009800018BF7FEA6C5C1BD001B050EA410C0CBF71
:1009900052EA430C91EA030F02BF90EA020F0020D3
:1009A000704710F1000F91EA030F58BF994208BF3A
:1009B00090422CBFD8176FEAE37040F001007047F7
:1009C0004FEA410C7FEA6C5C02D150EA013C07D14E
:1009D0004FEA430C7FEA6C5CD6D152EA033CD3D099
:1009E0005DF8040B704700BF8446104662468C4693
:1009F0001946634600E000BF01B5FFF7B7FF0028C6
:100A000048BF10F1000F01BD4DF808EDFFF7F4FFEE
:100A10000CBF012000205DF808FB00BF4DF808ED79
:100A2000FFF7EAFF34BF012000205DF808FB00BF9C
:100A30004DF808EDFFF7E0FF94BF012000205DF8BE
:100A400008FB00BF4DF808EDFFF7CEFF94BF012073
:100A500000205DF808FB00BF4DF808EDFFF7C4FF6C
:100A600034BF012000205DF808FB00BF4FEA4102BF
:100A700012F5001215D211D56FF47873B3EB6252F0
:100A800012D94FEAC12343F0004343EA505311F017
:100A9000004F23FA02F018BF404270474FF00000A9
:100AA000704750EA013005D111F0004008BF6FF0E7
:100AB000004070474FF00000704700BF80F00040DA
:100AC00002E000BF81F0004142001FBF5FEA410326
:100AD00092EA030F7FEA226C7FEA236C6AD04FEA26
:100AE0001262D2EB1363C1BFD2184140484041406B
:100AF000B8BF5B42192B88BF704710F0004F40F41D
:100B0000000020F07F4018BF404211F0004F41F438
:100B1000000121F07F4118BF494292EA030F3FD004
:100B2000A2F1010241FA03FC10EB0C00C3F1200317
:100B300001FA03F100F0004302D5494260EB4000A6
:100B4000B0F5000F13D3B0F1807F06D340084FEA11
:100B5000310102F10102FE2A51D2B1F1004F40EB06
:100B6000C25008BF20F0010040EA0300704749006E
:100B700040EB0000013A28BFB0F5000FEDD2B0FA0B
:100B800080FCACF1080CB2EB0C0200FA0CF0AABF2E
:100B900000EBC25052421843BCBFD04018437047CC
:100BA00092F0000F81F4000106BF80F400000132D2
:100BB000013BB5E74FEA41037FEA226C18BF7FEAA9
:100BC000236C21D092EA030F04D092F0000F08BFEB
:100BD0000846704790EA010F1CBF0020704712F0D2
:100BE0007F4F04D1400028BF40F00040704712F111
:100BF00000723CBF00F50000704700F0004343F076
:100C0000FE4040F4000070477FEA226216BF0846AB
:100C10007FEA23630146420206BF5FEA412390EA6E
:100C2000010F40F4800070474FF0000304E000BF64
:100C300010F0004348BF40425FEA000C08BF704715
:100C400043F0964301464FF000001CE050EA0102D9
:100C500008BF70474FF000030AE000BF50EA0102EE
:100C600008BF704711F0004302D5404261EB4101DB
:100C70005FEA010C02BF84460146002043F0B64300
:100C800008BFA3F18053A3F50003BCFA8CF2083A25
:100C9000A3EBC25310DB01FA02FC634400FA02FC2E
:100CA000C2F12002BCF1004F20FA02F243EB020035
:100CB00008BF20F00100704702F1200201FA02FC97
:100CC000C2F1200250EA4C0021FA02F243EB02008A
:100CD00008BF20EADC7070474FF0FF0C1CEAD052CE
:100CE0001EBF1CEAD15392EA0C0F93EA0C0F6FD08F
:100CF0001A4480EA010C400218BF5FEA41211ED06D
:100D00004FF0006343EA501043EA5111A0FB013158
:100D10000CF00040B1F5000F3EBF490041EAD3712D
:100D20005B0040EA010062F17F02FD2A1DD8B3F1A9
:100D3000004F40EBC25008BF20F00100704790F018
:100D4000000F0CF0004C08BF49024CEA502040EA6A
:100D500051207F3AC2BFD2F1FF0340EAC250704730
:100D600040F400004FF00003013A5DDC12F1190F6E
:100D7000DCBF00F000407047C2F10002410021FAE0
:100D800002F1C2F1200200FA02FC5FEA310040F1F8
:100D9000000053EA4C0308BF20EADC70704792F071
:100DA000000F00F0004C02BF400010F4000F013AA9
:100DB000F9D040EA0C0093F0000F01F0004C02BFA4
:100DC000490011F4000F013BF9D041EA0C018FE713
:100DD0000CEAD15392EA0C0F18BF93EA0C0F0AD019
:100DE00030F0004C18BF31F0004CD8D180EA01003F
:100DF00000F00040704790F0000F17BF90F0004FD8
:100E0000084691F0000F91F0004F14D092EA0C0FB9
:100E100001D142020FD193EA0C0F03D14B0218BF4C
:100E2000084608D180EA010000F0004040F0FE4092
:100E300040F40000704740F0FE4040F4400070472E
:100E40004FF0FF0C1CEAD0521EBF1CEAD15392EAAD
:100E50000C0F93EA0C0F69D0A2EB030280EA010C9D
:100E600049024FEA402037D04FF0805343EA111136
:100E700043EA10130CF000408B4238BF5B0042F194
:100E80007D024FF4000C8B4224BF5B1A40EA0C0039
:100E9000B3EB510F24BFA3EB510340EA5C00B3EB6B
:100EA000910F24BFA3EB910340EA9C00B3EBD10F59
:100EB00024BFA3EBD10340EADC001B0118BF5FEAAB
:100EC0001C1CE0D1FD2A3FF650AF8B4240EBC250D4
:100ED00008BF20F0010070470CF0004C4CEA502095
:100EE0007F32C2BFD2F1FF0340EAC250704740F4E4
:100EF00000004FF00003013A37E792F0000F00F0D6
:100F0000004C02BF400010F4000F013AF9D040EA53
:100F10000C0093F0000F01F0004C02BF490011F4E7
:100F2000000F013BF9D041EA0C0195E70CEAD153DF
:100F300092EA0C0F08D142027FF47DAF93EA0C0FC6
:100F40007FF470AF084676E793EA0C0F04D14B02AA
:100F50003FF44CAF08466EE730F0004C18BF31F05C
:100F6000004CCAD130F000427FF45CAF31F0004356
:100F70007FF43CAF5FE700BF4FF0FF3C06E000BFEF
:100F80004FF0010C02E000BF4FF0010C4DF804CD12
:100F90004FEA40024FEA41037FEA226C18BF7FEA22
:100FA000236C11D001B052EA530C18BF90EA010F24
:100FB00058BFB2EB030088BFC81738BF6FEAE170B3
:100FC00018BF40F0010070477FEA226C02D15FEA4F
:100FD000402C05D17FEA236CE4D15FEA412CE1D0BB
:100FE0005DF8040B704700BF844608466146FFE782
:100FF0000FB5FFF7C9FF002848BF10F1000F0FBD64
:101000004DF808EDFFF7F4FF0CBF012000205DF85C
:1010100008FB00BF4DF808EDFFF7EAFF34BF0120E1
:1010200000205DF808FB00BF4DF808EDFFF7E0FF7A
:1010300094BF012000205DF808FB00BF4DF808EDCB
:10104000FFF7D2FF94BF012000205DF808FB00BF2E
:101050004DF808EDFFF7C8FF34BF012000205DF810
:1010600008FB00BF4FEA4002B2F1FE4F0FD34FF032
:101070009E03B3EB12620DD94FEA002343F0004305
:1010800010F0004F23FA02F018BF404270474FF0B3
:101090000000704712F1610F01D1420205D110F03A
:1010A000004008BF6FF0004070474FF000007047ED
:1010B00042000ED2B2F1FE4F0BD34FF09E03B3EBC2
:1010C000126209D44FEA002343F0004323FA02F0EE
:1010D00070474FF00000704712F1610F01D14202DA
:1010E00002D14FF0FF3070474FF00000704700BF53
:1010F00053B94AB9002908BF00281CBF4FF0FF317F
:101100004FF0FF3000F074B9ADF1080C6DE904CE7A
:1011100000F006F8DDF804E0DDE9022304B07047D2
:101120002DE9F047089E0D4604468846002B4DD118
:101130008A42944668D9B2FA82F252B101FA02F3B5
:10114000C2F1200120FA01F10CFA02FC41EA030885
:1011500094404FEA1C45210CB8FBF5FE1FFA8CF7B2
:1011600005FB1E8341EA03430EFB07F199420BD9AD
:101170001CEB03030EF1FF3080F01E81994240F218
:101180001B81AEF1020E63445B1AA4B2B3FBF5F00F
:1011900005FB103344EA034400FB07F7A7420AD9D2
:1011A0001CEB040400F1FF3380F00881A74240F2F9
:1011B000058164440238E41B40EA0E4000211EB160
:1011C000D4400023C6E90043BDE8F0878B4208D92C
:1011D000002E00F0EE800021C6E900050846BDE8BB
:1011E000F087B3FA83F100294AD1AB4202D382429D
:1011F00000F2F980841A65EB030301209846002E63
:10120000E2D0C6E90048DFE702B9FFDEB2FA82F2B7
:10121000002A40F09180A1EB0C054FEA1C471FFA11
:101220008CFE0121B5FBF7F307FB1350250C45EAB3
:1012300000450EFB03F0A84208D91CEB050503F19D
:10124000FF3802D2A84200F2CB8043462D1AA4B246
:10125000B5FBF7F007FB105544EA05440EFB00FE12
:10126000A64508D91CEB040400F1FF3502D2A645BF
:1012700000F2BB802846A4EB0E0440EA03409EE740
:10128000C1F120078B4022FA07FC4CEA030C20FA3C
:1012900007F405FA01F31C43FD404FEA1C4900FA2C
:1012A00001F3B5FBF9F8200C1FFA8CFE09FB185569
:1012B00040EA054508FB0EF0A84202FA01F20BD9FC
:1012C0001CEB050508F1FF3A80F08880A84240F247
:1012D0008580A8F1020865442D1AA4B2B5FBF9F087
:1012E00009FB105544EA054500FB0EFEAE4508D942
:1012F0001CEB050500F1FF346CD2AE456AD902380B
:10130000654440EA0840A0FB0294A5EB0E05A54207
:10131000C846A64656D353D05EB1B3EB080265EB80
:101320000E0505FA07F722FA01F3CD401F43C6E97F
:1013300000750021BDE8F087C2F1200320FA03F117
:101340000CFA02FC25FA03F395400D434FEA1C47C3
:101350001FFA8CFEB3FBF7F107FB11302B0C43EAAD
:10136000004301FB0EF0984204FA02F408D91CEB8A
:10137000030301F1FF382FD298422DD9023963447B
:101380001B1AADB2B3FBF7F007FB103345EA034578
:1013900000FB0EF3AB4208D91CEB050500F1FF384A
:1013A00016D2AB4214D902386544ED1A40EA014125
:1013B00038E73146304607E78646E5E61846FAE65E
:1013C0004B45A9D2B9EB020864EB0C0E0138A3E738
:1013D0004046EAE7204694E74146D1E7D0467BE71E
:1013E000023B654432E7084609E76444023842E7B5
:1013F000704700BF844641EA000313F003036DD138
:10140000403A41D351F8043B40F8043B51F8043BC7
:1014100040F8043B51F8043B40F8043B51F8043BCE
:1014200040F8043B51F8043B40F8043B51F8043BBE
:1014300040F8043B51F8043B40F8043B51F8043BAE
:1014400040F8043B51F8043B40F8043B51F8043B9E
:1014500040F8043B51F8043B40F8043B51F8043B8E
:1014600040F8043B51F8043B40F8043B51F8043B7E
:1014700040F8043B51F8043B40F8043B51F8043B6E
:1014800040F8043B403ABDD2303211D351F8043B0E
:1014900040F8043B51F8043B40F8043B51F8043B4E
:1014A00040F8043B51F8043B40F8043B103AEDD2BD
:1014B0000C3205D351F8043B40F8043B043AF9D20E
:1014C000043208D0D2071CBF11F8013B00F8013BE1
:1014D00001D30B8803806046704700BF082A13D3EE
:1014E0008B078DD010F003038AD0C3F10403D21A06
:1014F000DB071CBF11F8013B00F8013B80D331F83A
:10150000023B20F8023B7BE7043AD9D3013A11F8B9
:10151000013B00F8013BF9D20B7803704B78437024
:101520008B78837060467047000000000000000068
:1015300000000000000000000000000000000000AB
:1015400090F800F06DE9024520F007016FF0000C03
:1015500010F0070491F820F040F049804FF00004AB
:101560006FF00700D1E9002391F840F000F1080086
:1015700082FA4CF2A4FA8CF283FA4CF3A2FA8CF3BE
:101580004BBBD1E9022382FA4CF200F10800A4FA25
:101590008CF283FA4CF3A2FA8CF3E3B9D1E9042379
:1015A00082FA4CF200F10800A4FA8CF283FA4CF3B0
:1015B000A2FA8CF37BB9D1E9062301F1200182FA6A
:1015C0004CF200F10800A4FA8CF283FA4CF3A2FA70
:1015D0008CF3002BC6D0002A04BF04301A4612BA7E
:1015E000B2FA82F2FDE8024500EBD2007047D1E981
:1015F000002304F00305C4F100004FEAC50514F010
:10160000040F91F840F00CFA05F562EA05021CBFE0
:1016100063EA050362464FF00004A9E700000000FA
:1016200001F0FF01102A2BDB10F0070F08D010F893
:10163000013B013A8B422DD010F0070F42B3F6D197
:10164000F0B441EA012141EA014122F007047FF0B0
:1016500000070023F0E80256083C85EA010586EA07
:10166000010685FA47F5A3FA87F586FA47F6A5FA43
:1016700087F68EB9EED1F0BC01F0FF0102F007024F
:1016800032B110F8013B013A83EA010313B1F8D1FA
:101690000020704701387047002D06BF35460338DB
:1016A000073815F0010F07D1013015F4807F02BF14
:1016B000013015F4C03F0130F0BC0138704700BF65
:1016C0004FEA410C7FEA6C5C02D150EA013C0AD13E
:1016D0004FEA430C7FEA6C5C02D152EA033C02D130
:1016E0004FF0000070474FF00100704708B500F060
:1016F000F9FEA82000F04CFB05F024F9044803F0A3
:101700001FF900F011FD4FF4FA7000F06DFB08BDF9
:10171000EC10002010B5374B1B7813B9364B1B78F3
:1017200043B1344B1B78012B14D0022B20D0032B58
:1017300038D010BD012000F0F7FD1421032000F087
:10174000B1FE2E4A002306CA2D4800F093FE00F099
:10175000FBFDE6E700236FF0310241F29411052012
:1017600005F05EF905F044F9224B02221A70E0E719
:10177000052005F027F9234B01221A70224B1B8804
:10178000312BD6D9214B1B88C82BD2D91D4B002217
:101790001A70184B03221A70052005F095F806F010
:1017A0007FFAC6E7002006F04BFB0128C1D106F006
:1017B0000FFB0128BDD1164C01220221204602F068
:1017C0007EF901221146204602F079F90023094AE8
:1017D0001370104A1370104806F06EFD064B01227C
:1017E0001A704FF6FF7302220C490D4803F0D9FD21
:1017F0009FE700BF190A0020180A002034000020CB
:101800009CFE000826160020A015002024160020AB
:101810000014024091130020A8FE0008BCFE00083E
:10182000B412002010B50421374802F041F9C8B9BC
:101830000421354802F03CF90028F9D0334A1378E6
:10184000B3FA83F35B091370002B5AD105F092F8B9
:101850002F4B01221A7000232E4A13702E4A137048
:101860002E4A13700821284802F022F978B908217D
:10187000254802F01DF90028F9D00023244A1370EE
:10188000244A01211170244A1370244A1370102134
:101890001D4802F00DF9C8B910211B4802F008F9E3
:1018A0000028F9D01E4A13780133DBB21370032BE2
:1018B00002D9134600221A700023154A1370154AE4
:1018C0001370154A01211170144A137020210E481B
:1018D00002F0EEF8A0B920210B4802F0E9F8002848
:1018E000F9D001240F4B1C700F4806F0E5FC0023D3
:1018F000074A1370074A1370074A1370074B1C708E
:1019000010BD05F00DF8A3E7001402400000002010
:101910001F0A0020200A0020210A0020220A00209D
:1019200056000020190A0020C0FE000870B50120F2
:1019300000F0FAFC0121032000F0B4FD424C00232A
:1019400094E80600414800F095FD0121462000F092
:10195000A9FD3F4E3F4D404B1B78324603212846A0
:1019600006F08AFD002394E80600284600F082FD78
:101970001421032000F096FD002394E80600374868
:1019800000F078FD1421462000F08CFD344B1B78CC
:1019900032460321284606F06FFD002394E8060036
:1019A000284600F067FD2821032000F07BFD00237E
:1019B00094E806002B4800F05DFD2821462000F049
:1019C00071FD294B1B7832460321284606F054FD51
:1019D000002394E80600284600F04CFD0121642015
:1019E00000F060FD214B1B7832460321284606F0AB
:1019F00043FD002394E80600284600F03BFD142137
:101A0000642000F04FFD1A4B1B7832460321284614
:101A100006F032FD002394E80600284600F02AFD77
:101A20002821642000F03EFD124B1B783246032132
:101A3000284606F021FD002394E80600284600F021
:101A400019FD00F081FC70BD2C000020CCFE0008C8
:101A5000C81F01081C0A002058000020D4FE0008FE
:101A600059000020DCFE00082A160020330C00205C
:101A7000340C0020350C0020002304E0C2180021A3
:101A8000D17001339BB2202BF8D9552383700023EA
:101A9000037043707047000038B5444B5B78202BCF
:101AA00040F28380002417E0414B33F91500FFF723
:101AB000BFF84FF06051FFF70FF94FF08341FFF788
:101AC0000BF905F10C02394B43F822000135EDB258
:101AD000022DE9D90134E4B2032C62D804EB84036B
:101AE00004EB4303314AD118C978927891425CD112
:101AF000591C2E4A0A44D278522A0ED0532A2ED08C
:101B0000512AE7D10233294A1344294AD3F8030062
:101B1000D3F8071003C20025DAE70233234A13443F
:101B2000244AD3F80300D3F8071003C2002513E0BA
:101B3000204B33F91500FFF77BF84FF06051FFF7AA
:101B4000CBF81D49FFF7C8F805F10E02174B03EB60
:101B5000820358600135EDB2022DE9D9BAE70233AC
:101B6000124A1344154AD3F80300D3F8071003C2EE
:101B7000002513E0114B33F91500FFF759F84FF02A
:101B80006051FFF7A9F80E49FFF7A6F805F1080222
:101B9000064B03EB820358600135EDB2022DE9D903
:101BA00098E7024BDA6A074B1A6038BD240A002016
:101BB0006C0B00207C0B00200000FA44740B00200A
:101BC00000003443280C002010B504460021FFF724
:101BD00021FA08B9204610BD04F10044FAE70000DC
:101BE000414B1B78012B00D07047F0B585B0002326
:101BF0000193029303933D4B1F7847BB3A4B00225E
:101C00001A7005B0F0BD04EB4403334404AA02EBA0
:101C10008605374A52F8231055F80C0CFEF754FF8E
:101C200045F80C0C0134A742EDDC04AB03EB860451
:101C30003846FEF7FDFF014654F80C0CFFF700F99B
:101C400044F80C0C0136022E03DC0024EBE70026DE
:101C5000F9E7284B19680198FEF734FFFFF7B4FF46
:101C6000FEF712FC1EA3D3E90023FEF7E1FE08B342
:101C7000204B59680298FEF725FFFFF7A5FFFEF7F6
:101C800003FC17A3D3E90023FEF7D2FE90B1194B52
:101C900099680398FEF716FFFFF796FFFEF7F4FB2F
:101CA0000FA3D3E90023FEF7C3FE18B1124B0122A4
:101CB0001A7002E0104B00221A700023022B09DC7C
:101CC00004AA02EB830252F80C1C0A4A42F82310C1
:101CD0000133F3E70023054A1370084A13808DE7A8
:101CE0007B14AE47E17A943F6C0A00206D0A002015
:101CF000700A0020600B00202A1600202816002001
:101D000000B583B08DF800008DF801108DF8022029
:101D10008DF803309DF810308DF804304FF0FF330C
:101D200005226946024803F03CFB03B05DF804FB62
:101D30006C12002010B582B0B5230093882369226D
:101D4000AA21FF20FFF7DCFFC82000F04DF8002497
:101D5000009408230122AA21FF20FFF7D1FFC82009
:101D600000F042F8009404230122AA21FF20FFF78B
:101D7000C7FFC82000F038F8009423462246AA2165
:101D8000FF20FFF7BDFFC82000F02EF802B010BD05
:101D900010B50446002001F025FBE408014B1C703F
:101DA00010BD00BF840B00200E4B1B7800FB03F31B
:101DB000013B4FF0E022536100239361136943F02C
:101DC000010313614FF0E0231B6903F00113012BA2
:101DD000F8D04FF0E0231A6922F001021A610022C4
:101DE0009A617047840B002038B50C4CA4FB00347A
:101DF000640A4FF4077505FB140503E00848FFF774
:101E0000D3FF013C002CF9D105B938BD4FF47A70ED
:101E100005FB00F0FFF7C8FFF7E700BF49D6B9F2AE
:101E2000603D080008B505480268D36843F0200308
:101E3000D3600122024903F054FE08BDB412002011
:101E4000A10B0020284B1B780BB9402806D0012B92
:101E500017D0022B25D0032B33D07047234A12789A
:101E6000002AF4D1224A13601371224A13601371BD
:101E7000214A138093701C4A012111701F4A13706C
:101E80007047212806D01D4A1378591C11701A4A30
:101E9000D0547047144B02221A70184B00221A704B
:101EA00070477C2806D0154A1378591C1170104AC7
:101EB000D05470470C4B03221A70104B00221A703A
:101EC0007047232806D00D4A1378591C1170094A0F
:101ED000D054C2E7054B01221A700023074A137041
:101EE000014A1370704700BF9F0B00209E0B00201B
:101EF000900B0020980B00208C0B00209D0B0020E5
:101F0000124B1A78D2B2124B1B78DBB29A4200D134
:101F1000704710B50D4A1378DBB20E49CC5CE4B2C1
:101F200013780133594203F07F0301F07F0158BF5A
:101F30004B42DBB213701178054B1A78064806F055
:101F400059F92046FFF77EFF10BD00BFA00B00200F
:101F5000240C0020A40B0020E4FE000830380928DF
:101F600019D8DFE800F0170507090B0D0F1113153D
:101F7000012310E002230EE003230CE004230AE017
:101F8000052308E0062306E0072304E0082302E017
:101F9000092300E000231846704700004F4B1B78D0
:101FA000012B00D0704770B54D4D2878FFF7D6FF54
:101FB00004466878FFF7D2FF04EB840400EB440486
:101FC000E4B2484B1C70484B1B782B2B15D02D2BA3
:101FD0002DD0464B1B782B2B47D02D2B5FD03F4B62
:101FE00000221A70424BB3F90030424AB2F9002085
:101FF0002146414806F0FEF870BD3B4E7078FFF771
:10200000ADFF0546B078FFF7A9FF05EB850505EBA9
:10201000850300EB8000450005EB8305ADB2F07849
:10202000FFF79CFF15FA80F5324B1D80D1E72E4E4D
:102030007078FFF793FF0546B078FFF78FFFC5EB89
:10204000452305EB8303C5EBC303C0EB4035C0EB71
:1020500085056D0005EB8305ADB2F078FFF77EFFD7
:1020600080B22D1A234B1D80B3E7204E7078FFF706
:1020700075FF0546B078FFF771FF05EB850505EBA9
:10208000850300EB8000450005EB8305ADB2F078D9
:10209000FFF764FF15FA80F5154B1D809FE7134E7F
:1020A0007078FFF75BFF0546B078FFF757FFC5EB89
:1020B000452305EB8303C5EBC303C0EB4035C0EB01
:1020C00085056D0005EB8305ADB2F078FFF746FF9F
:1020D00080B22D1A064B1D8081E700BF9E0B0020A9
:1020E0008C0B0020850B0020900B0020980B00200B
:1020F000880B0020860B00200CFF000810B5084C50
:102100002046FFF7B9FCFFF715FE06480268D368C2
:1021100043F01003D3602122E11C03F047FD10BD02
:10212000240A00206C12002008B5FFF7E7FFFFF734
:1021300079FE08BD00B585B04BF23B33ADF80C30ED
:102140000023009301938DF808303B238DF8003075
:10215000B3238DF80130124B1A788DF802205A788B
:102160008DF803209B788DF804300E4B1A788DF88B
:1021700005205A788DF806209B788DF807306B2360
:102180008DF808304FF0FF3309226946064803F006
:1021900008F918B9012005B05DF804FB0020FAE742
:1021A0002C0C0020300C0020B412002000B585B0AB
:1021B000064A01AB07CA03C31A700922044905483D
:1021C00003F0BEF905B05DF804FB00BF90FE000807
:1021D0001800002024120020322804D0332804D014
:1021E000312804D070470220704703207047012037
:1021F0007047000008B5054B1860054B18680023B0
:1022000002221946806806F05FF808BD400C0020E5
:1022100068000020022801D80120704708B505F0A9
:10222000BDFE09230360002008BD000010B5013881
:1022300001280AD814464FF0FF3392B207480068CD
:1022400003F0AFF840B9204610BD05F0A7FE092302
:1022500003604FF0FF30F7E70520F5E7400C002062
:10226000022801D80020704708B505F097FE092321
:1022700003604FF0FF3008BD08B505F08FFE09235D
:1022800003604FF0FF3008BD08B548B94FF0FF3389
:1022900001220848006803F0EAF840B9012008BDAF
:1022A00005F07CFE092303604FF0FF30F7E70520BF
:1022B000F5E700BF400C002008B5022804D84FF411
:1022C00000534B60002008BD05F068FE0923036041
:1022D000F8E7000000B587B08DF817004FF0FF3326
:1022E0000293012301930DF117020092002278213D
:1022F000024801F075FE07B05DF804FB4C100020A9
:1023000000B585B04FF0FF33029389B20191009080
:10231000012340227821034801F062FE05B05DF8F8
:1023200004FB00BF4C100020002303E0FF21054AFE
:10233000D1540133B3F5806F03D20028F6D10146A2
:10234000F5E770474C0C002010B5002412E0A4F112
:102350005000C0B2FFF7BEFF0020FFF7BBFF102008
:10236000FFF7B8FF8021054800EBC410FFF7C8FF56
:102370000134E4B2072CEAD910BD00BF4C0C002098
:1023800010F0800F0FD13F290DD8012A0CD0CB08B7
:1023900000EBC31001F0070101238B40084A115CD8
:1023A00021EA030111547047CB0800EBC31001F080
:1023B000070101238B40024A115C194311547047F5
:1023C0004C0C00202DE9F04782B0814602A800E9BC
:1023D00006001F46A9F12003DBB25E2B40D8244B38
:1023E0001B889DF800603344802B3DDC204B5B88CC
:1023F0009DF801A05344402B38DC00251FE01C4B06
:102400001888598829442044B7FA87F25209C9B27A
:10241000C0B2FFF7B5FF0134A6420FD908FA04F3A2
:1024200013F4004FEBD0124B1888598829442044EC
:102430003A46C9B2C0B2FFF7A3FFECE70135AA459F
:1024400008D9A9F1200303FB0A53019A32F813803B
:102450000024E1E7064B1A8816441E80484600E037
:10246000002002B0BDE8F0870020FAE70020F8E77E
:10247000440C002030B583B0044602A800E90600F1
:102480001D4600E00134207848B12B4602AA12E92B
:102490000600FFF797FF024620788242F2D003B091
:1024A00030BD0000014B188059807047440C00205B
:1024B00010B504468120FFF70DFF2046FFF70AFF05
:1024C00010BD000008B530B1054B01225A71AF2094
:1024D000FFF700FF08BD024B00225A71AE20F7E75C
:1024E000440C002008B5642000F0FCFE0020FFF73B
:1024F000E9FF2020FFF7EEFE0020FFF7EBFEB02003
:10250000FFF7E8FEC820FFF7E5FE0020FFF7E2FE38
:102510001020FFF7DFFE4020FFF7DCFEFF20FFF773
:10252000C7FFA120FFF7D6FEA620FFF7D3FEA82005
:10253000FFF7D0FE3F20FFF7CDFEA420FFF7CAFE35
:10254000D320FFF7C7FE0020FFF7C4FED520FFF71A
:10255000C1FEF020FFF7BEFED920FFF7BBFE222010
:10256000FFF7B8FEDA20FFF7B5FE1220FFF7B2FE44
:10257000DB20FFF7AFFE2020FFF7ACFE8D20FFF73A
:10258000A9FE1420FFF7A6FE0120FFF79BFF002005
:10259000FFF7CAFEFFF7D8FE034B00221A805A80CD
:1025A00001221A7108BD00BF440C002000B583B0A1
:1025B00000210191094B1A6B42F400121A631B6B44
:1025C00003F400130193019B0A460C2000F0B0FEB7
:1025D0000C2000F0E5FE03B05DF804FB003802407B
:1025E000F0B58DB000240794089409940A940B94D4
:1025F0000094434B1A6B42F010021A631A6B02F0FC
:1026000010020092009A01941A6B42F020021A63A1
:102610001A6B02F020020192019A02941A6B42F0A6
:1026200080021A631A6B02F080020292029A0394EB
:102630001A6B42F001021A631A6B02F00102039254
:10264000039A04941A6B42F002021A631A6B02F0A6
:1026500002020492049A05941A6B42F004021A636F
:102660001A6B02F004020592059A06941A6B42F066
:1026700008021A631B6B03F008030693069B214FA5
:1026800022462021384601F01AFA1F4D224640F218
:10269000C311284601F013FA01224FF4C061284605
:1026A00001F00DFA1823079308940126099607A94B
:1026B000384601F00BF920230793089609940A94F1
:1026C00007A9384601F002F94023079308940994BA
:1026D00007A9384601F0FAF840F2C3730793089649
:1026E00009940A9407A9284601F0F0F83C230793BF
:1026F0000894099607A9284601F0E8F80DB0F0BD46
:1027000000380240001002400014024008B50B4897
:102710000B4B03600B4B436000238360C3604FF49B
:102720008042026143618361C361036201F07AFB0D
:1027300000B908BD00F040F8FBE700BF4C100020D6
:1027400000540040801A060030B589B0002303937E
:1027500004930593069307930268144B9A4201D0A1
:1027600009B030BD00250195114C236B43F00203E5
:102770002363236B03F002030193019BC0230393A4
:1027800012230493032306930423079303A9094800
:1027900001F09CF80295236C43F400132364236C2E
:1027A00003F400130293029BDAE700BF00540040D9
:1027B000003802400004024072B6FEE700B595B052
:1027C0003022002108A805F0C3FC002303930493E2
:1027D0000593069307930193214A116C41F08051B0
:1027E0001164126C02F080520192019A02931D4B07
:1027F0001A6842F480421A601B6803F48043029313
:10280000029B012308934FF48033099302230E9314
:102810004FF480020F92082210924FF4A872119286
:1028200012930423139308A801F08CFC98B90F238A
:10283000039302230493002305934FF4A0530693BC
:102840004FF480530793052103A801F0E1FE20B95E
:1028500015B05DF804FBFFF7AFFFFFF7ADFF00BF5A
:10286000003802400070004008B51A48FFF7C2FC6B
:1028700000F00CFDFFF7A2FFFFF7B2FEFFF796FE98
:1028800000F0CEFA00F0E6FA00F03AFA00F062F951
:1028900000F088F900F012FB00F0A8FA00F0F4FA5A
:1028A00000F026FBFFF732FFFEF720FF0A4805F095
:1028B00003FD0A4805F000FDFEF7B4FFFFF720FB1B
:1028C000FFF76CFBFEF726FF03F084F9FFF788F9AA
:1028D000F2E700BFFC120020501E01085C1E010838
:1028E00082B0002100910B4B5A6C42F480425A6432
:1028F0005A6C02F480420092009A01911A6C42F0E4
:1029000080521A641B6C03F080530193019B02B048
:10291000704700BF00380240FEE7FEE7FEE7FEE733
:10292000FEE770477047704708B500F0C9FC08BD66
:1029300008B5024800F0DCFE08BD00BF7C11002095
:1029400008B5024802F012FF08BD00BFDC110020EC
:1029500008B5024802F00AFF08BD00BF241200209B
:1029600010B582B0144B1B681A6812F0100F0AD110
:10297000114C21221149204603F018F9204602F09B
:10298000F5FE02B010BD002201921A6801925B6848
:102990000193019B084802F0EFFD094B1B685B683F
:1029A000C3F12103074A5370FFF776F84FF4007123
:1029B000054801F08AF8DBE76C120020270A0020A6
:1029C0007C110020240A00200014024008B50248AF
:1029D00002F0CCFE08BD00BFB412002008B50248CA
:1029E00001F0F7FF08BD00BFEC10002008B5024859
:1029F00002F0BCFE08BD00BF4413002038B50446F9
:102A00000268224B9A4208D02268214B9A420ED08B
:102A10002268204B9A4221D038BD1F4D287803F000
:102A200017FE012229461D4803F05BF8ECE71C4A1B
:102A30001378DBB21B490D781B48C554137801335A
:102A4000584203F07F0300F07F0058BF4342DBB2DF
:102A500013700122154803F044F8D9E7144805F033
:102A60002BFC07221349144805F0C2FA0028D3D1E1
:102A7000124805F021FC40F6FF7308220E49104869
:102A800002F0F5FC0F4B01221A70C5E7001001405F
:102A9000004C004000440040A2150020DC11002042
:102AA000240C0020A10B0020A40B0020B412002055
:102AB000681E010824000020380C0020741E010844
:102AC00024120020360C002008B5054B834200D0AC
:102AD00008BD07220349184603F003F8F8E700BFD2
:102AE00024120020380C00200120704708B505F0A2
:102AF00055FA162303604FF0FF3008BD08B54FF0BC
:102B0000FF31FFF7F3FFFEE710B503460C4A0D490E
:102B10000D48006840B10C4800680344521A9342C3
:102B200006D8094A136010BD0748084C0460F2E754
:102B300005F034FA0C2303604FF0FF30F3E700BFD9
:102B40000000022000040000A010002088160020D1
:102B50007047000000B583B00023009301930F4835
:102B60000F4A026042F2CF02426083606323C36077
:102B70008023836102F048F850B900230093019349
:102B80006946064802F05AFA28B903B05DF804FB1A
:102B9000FFF712FEF1E7FFF70FFEF6E7EC1000205B
:102BA0000010004000B583B00023009301930F484C
:102BB0000F4A026042F2CF02426083606323C36027
:102BC0008023836102F020F850B900230093019321
:102BD0006946064802F032FA28B903B05DF804FBF2
:102BE000FFF7EAFDF1E7FFF7E7FDF6E73411002014
:102BF0000014004000B585B003681D4A934208D018
:102C00001C4A934212D01C4A934223D005B05DF86F
:102C100004FB00230193194B1A6C42F002021A6460
:102C20001B6C03F002030193019BEFE7002102916B
:102C3000124B1A6C42F010021A641B6C03F0100362
:102C40000293029B0A46362000F072FB362000F009
:102C5000A7FBDBE700230393084B1A6C42F020022A
:102C60001A641B6C03F020030393039BCEE700BFA1
:102C700000040040001000400014004000380240F2
:102C800030B589B00023039304930593069307930B
:102C90000268184B9A4201D009B030BD0025019559
:102CA00003F50D331A6B42F001021A631A6B02F03E
:102CB00001020192019A02951A6B42F002021A6314
:102CC0001B6B03F002030293029BC02303930224B5
:102CD0000494079403A9084800F0F8FD0323039324
:102CE000049405950695079403A9044800F0EEFDA9
:102CF000D2E700BF00040040000002400004024090
:102D000000B58FB000230A930B930C930D93089397
:102D100009930193029303930493059306930793F6
:102D20003048314A026053224260836044F61F6299
:102D3000C26003618023836101F066FF002839D1FE
:102D40004FF480530A930AA9264802F067F8002836
:102D500033D1244801F084FF002831D100230893A7
:102D6000099308A91F4802F069F960BB6023019329
:102D7000002202920392059201A91A4801F0D4FFA1
:102D800020BB04220DEB0201164801F0CDFF00BB71
:102D9000082201A9134801F0C7FFE8B90C2201A9D4
:102DA000104801F0C1FFD0B90E48FFF769FF0FB01E
:102DB0005DF804FBFFF700FDC2E7FFF7FDFCC8E785
:102DC000FFF7FAFCCAE7FFF7F7FCCFE7FFF7F4FCE1
:102DD000D7E7FFF7F1FCDBE7FFF7EEFCDEE7FFF7F5
:102DE000EBFCE1E7A41000200004004008B50A480D
:102DF0000A4B03604FF4E133436000238360C360F8
:102E000003610C2242618361C36102F09AFA00B946
:102E100008BDFFF7D1FCFBE7B4120020004C0040D6
:102E200008B50A480A4B03604FF4E13343600023BE
:102E30008360C36003610C2242618361C36102F05D
:102E400080FA00B908BDFFF7B7FCFBE7FC120020D1
:102E50000050004008B50A480A4B03604FF4E133C4
:102E6000436000238360C36003610C22426183617D
:102E7000C36102F066FA00B908BDFFF79DFCFBE7ED
:102E8000DC1100200010014008B50A480A4B03601D
:102E90004FF4E133436000238360C36003610C227D
:102EA00042618361C36102F04CFA00B908BDFFF7CB
:102EB00083FCFBE7241200200044004008B50A48C8
:102EC0000A4B03604FF4E133436000238360C36027
:102ED00003610C2242618361C36102F032FA00B9DE
:102EE00008BDFFF769FCFBE76C12002000480040BA
:102EF00008B50A480A4B03604FF4E13343600023EE
:102F00008360C36003610C2242618361C36102F08C
:102F100018FA00B908BDFFF74FFCFBE74413002087
:102F200000140140F0B593B000230D930E930F935E
:102F3000109311930368A04A934214D004469F4A09
:102F400093423AD09E4A93426FD09E4A934200F0F9
:102F500098809D4A934200F0BF809C4A934200F0C3
:102F6000008113B0F0BD00240094994B1A6C42F418
:102F700000221A641A6C02F400220092009A019452
:102F80001A6B42F001021A631B6B03F001030193F9
:102F9000019B03230D9302220E9210930823119399
:102FA0000DA98C4800F092FC22462146342000F006
:102FB000BFF9342000F0F4F9D3E700240294844BE5
:102FC0001A6C42F480121A641A6C02F48012029293
:102FD000029A03941A6B42F004021A631A6B02F00D
:102FE00004020392039A04941A6B42F008021A63D3
:102FF0001B6B03F008030493049B4FF480530D9361
:1030000002270E9703261096082511950DA97248E0
:1030100000F05CFC04230D930E970F94109611950D
:103020000DA96E4800F052FC9BE700240594684B04
:103030005A6C42F010025A645A6C02F01002059267
:10304000059A06941A6B42F001021A631B6B03F097
:1030500001030693069B4FF4C0630D9302230E9366
:1030600003231093072311930DA95A4800F02EFC57
:1030700022462146252000F05BF9252000F090F93A
:103080006FE700240794524B1A6C42F400321A6422
:103090001A6C02F400320792079A08941A6B42F0F5
:1030A00001021A631B6B03F001030893089B0C23B6
:1030B0000D9302230E9301231093072311930DA95F
:1030C000444800F003FC22462146262000F030F957
:1030D000262000F065F944E7002509953C4B1A6C61
:1030E00042F480221A641A6C02F480220992099A2E
:1030F0000A951A6B42F002021A631B6B03F002037B
:103100000A930A9B4FF440630D9302230E9303230B
:103110001093072311930DA9314800F0D7FB3148D4
:10312000314B03604FF0006343608560C5604FF42E
:103130008063036145618561C5610562456200F098
:10314000DFF958B9274BE3639C630022114627201F
:1031500000F0EEF8272000F023F902E7FFF72CFB40
:10316000F0E700240B941A4B5A6C42F020025A6488
:103170005A6C02F020020B920B9A0C941A6B42F0DC
:1031800004021A631B6B03F004030C930C9BC02313
:103190000D9302230E9303231093082311930DA97B
:1031A0000D4800F093FB22462146472000F0C0F86E
:1031B000472000F0F5F8D4E6004C004000500040F5
:1031C000001001400044004000480040001401404D
:1031D000003802400000024000080240000C02409B
:1031E000000402407C11002028600240DFF834D047
:1031F000FFF7AEFC0C480D490D4A002302E0D458FD
:10320000C4500433C4188C42F9D30A4A0A4C002330
:1032100001E013600432A242FBD304F0C5FEFFF7C5
:1032200023FB70470000022000000020140A002049
:1032300040250108180A002084160020FEE700003F
:1032400010B504460E4B18784FF47A73B3FBF0F3C5
:103250000C4A1068B0FBF3F000F0B0F868B90F2C1E
:1032600001D901200AE0002221464FF0FF3000F092
:103270005FF8054B1C60002000E0012010BD00BF7E
:10328000400000203C0000204400002008B50B4B0B
:103290001A6842F400721A601A6842F480621A6076
:1032A0001A6842F480721A60032000F02FF80F2091
:1032B000FFF7C6FFFFF714FB002008BD003C0240EB
:1032C000034A1168034B1B780B441360704700BF1F
:1032D0008C13002040000020014B1868704700BF8D
:1032E0008C13002038B50446FFF7F6FF0546B4F10D
:1032F000FF3F02D0044B1B781C44FFF7EDFF401B3F
:10330000A042FAD338BD00BF40000020074AD3686E
:1033100023F4E0631B041B0C000200F4E060034391
:1033200043F0BF6343F40033D360704700ED00E027
:1033300000B5194BDB68C3F30223C3F1070CBCF1E2
:10334000040F28BF4FF0040C03F1040EBEF1060F6A
:1033500018D9033B4FF0FF3E0EFA0CFC21EA0C019A
:1033600099400EFA03F322EA0303194300280BDB0A
:103370000901C9B200F1604000F5614080F8001316
:103380005DF804FB0023E5E700F00F000901C9B276
:10339000024B1954F4E700BF00ED00E014ED00E02B
:1033A000002807DB00F01F02400901239340024A76
:1033B00042F82030704700BF00E100E00138B0F172
:1033C000807F0BD24FF0E0235861054AF02182F84C
:1033D00023100020986107221A617047012070476E
:1033E00000ED00E0042806D04FF0E022136923F03E
:1033F0000403136170474FF0E022136943F00403A4
:103400001361704730B405682C6824F480242C6064
:10341000046863608368402B05D003689960036883
:10342000DA6030BC704703689A600368D960F8E7D7
:1034300010B40368D9B210390B4AA2FB0142120939
:103440000A4CA25CC2655F2908D923F47F7323F07C
:10345000030304338365806D10BC704723F47F73CE
:1034600023F003038365F6E7ABAAAAAA9C1E010812
:10347000836A826992B9012B0AD0022B02D00BB168
:1034800000207047C36A13F0807F28D10020704766
:10349000C36AB3F1C07F24D000207047B2F5005F4B
:1034A00009D0022B25D9032B25D1C36A13F0807FC5
:1034B00023D100207047032B03D8DFE803F0140466
:1034C000140A00207047C36A13F0807F0DD10020DA
:1034D0007047C36AB3F1C07F09D000207047012054
:1034E000704701207047012070470120704701207C
:1034F000704701207047002070470120704700008E
:1035000070B50446FFF7E8FE002C5BD005460223A9
:1035100084F83530002384F834302268136823F0AF
:103520000103136023681A6812F0010F0AD0FFF735
:10353000D3FE431B052BF5D920236365032084F8B4
:10354000350070BD1A68204810406168A2680A43BF
:10355000E1680A4321690A4361690A43A1690A4390
:10356000E1690A43216A0A430243616A04291ED0C1
:103570001A602668756925F00705636A1D43042BE8
:1035800007D1A36A1D43E36A1BB12046FFF770FF12
:1035900090B975612046FFF74BFFE26D3F239340E2
:1035A000836000206065012384F83530C9E7E16A53
:1035B000206B01430A43DBE740236365012084F865
:1035C0003500BEE70120BCE73F8010F038B5044667
:1035D000856D90F8340001282BD0012084F8340048
:1035E00094F83500C0B2012804D0002384F83430A8
:1035F000022038BD022084F8350000206065204696
:10360000FFF700FFE26D3F239340AB602268136831
:1036100043F016031360236C23B12268136843F050
:10362000080313602268136843F00103136000204D
:10363000DFE70220DDE770B50446866DFFF74CFE3C
:1036400094F83530DBB2022B06D08023636500236B
:1036500084F83430012070BD05462268136823F0D9
:10366000160313602268536923F080035361236CAF
:10367000E3B12268136823F008031360226813681B
:1036800023F00103136023681B6813F0010F11D0AE
:10369000FFF722FE431B052BF5D92023636503208A
:1036A00084F83500002384F83430D4E7A36C002B71
:1036B000DFD1E3E7E26D3F239340B360012384F859
:1036C0003530002084F83400C5E790F83530DBB29F
:1036D000022B03D08023436501207047052380F827
:1036E00035300268136823F001031360002070472F
:1036F000F0B583B0044600230193724B1D68724BF2
:10370000A3FB0535AD0A876D3E68C26D0823934063
:10371000334210D003681A6812F0040F0BD01A68F5
:1037200022F004021A60C26D08239340BB60436D0F
:1037300043F001034365E26D01239340334209D016
:103740002268526912F0800F04D0BB60636D43F0B1
:1037500002036365E26D04239340334209D022687B
:10376000126812F0020F04D0BB60636D43F00403D3
:103770006365E26D10239340334224D022681268BF
:1037800012F0080F1FD0BB6023681A6812F4802F54
:103790000DD01B6813F4002F04D1236C9BB120467D
:1037A000984710E0A36C73B1204698470BE01A6865
:1037B00012F4807F03D11A6822F008021A60236C89
:1037C0000BB120469847E26D20239340334255D0F9
:1037D0002268126812F0100F50D0BB6094F8353098
:1037E000DBB2052B0ED023681A6812F4802F33D079
:1037F0001B6813F4002F2AD1636C002B3ED02046A7
:1038000098473BE02268136823F016031360226890
:10381000536923F080035361236CA3B122681368BA
:1038200023F008031360E26D3F239340BB60012344
:1038300084F83530002384F83430236D002B3FD0DA
:10384000204698473CE0A36C002BE7D1EBE7E36B05
:10385000A3B12046984711E01A6812F4807F09D17D
:103860001A6822F010021A60012384F83530002310
:1038700084F83430E36B0BB120469847636DFBB19D
:10388000636D13F0010F17D0052384F835302268DB
:10389000136823F001031360019B01330193AB42D2
:1038A00004D823681B6813F0010FF5D1012384F8B5
:1038B0003530002384F83430E36C0BB12046984750
:1038C00003B0F0BD3C000020B5814E1B00230F2B40
:1038D00000F2E48070B582B060E085685E00032489
:1038E000B44025EA0405CC68B4402C4384604568A4
:1038F00025EA02054C68C4F300129A402A4342604C
:103900005AE0DC08083450F8246003F00702950000
:103910000F22AA4026EA020E0A69AA4042EA0E02D3
:1039200040F824205CE0072200E0002202FA0EF2B8
:103930002A4302345A4D45F824205A4A94686FEAC3
:103940000C0224EA0C054E6816F4801F01D04CEAE4
:103950000405544CA560E46802EA04054E6816F4B8
:10396000001F01D04CEA04054E4CE560646802EA91
:1039700004054E6816F4003F01D04CEA0405494C9A
:103980006560246822404D6815F4803F01D04CEA00
:103990000402444C226001330F2B7DD801229A404F
:1039A0000C6804EA020C32EA0404F4D14C6804F016
:1039B0000304013C012C90D94A6802F00302032A57
:1039C00009D0C4685D000322AA4024EA02048A6880
:1039D000AA402243C2604A6802F00302022A90D041
:1039E00004684FEA430E032202FA0EF224EA0204AC
:1039F0004A6802F0030202FA0EF2224302604A68A9
:103A000012F4403FC7D000220192274A546C44F47C
:103A100080445464526C02F480420192019A9C08E2
:103A2000A51C1F4A52F8255003F003024FEA820EEC
:103A30000F2202FA0EF225EA02051C4A90423FF4D8
:103A400074AF02F5806290421AD002F58062904213
:103A500018D002F58062904216D002F58062904242
:103A600014D002F58062904212D002F5806290423A
:103A700010D002F5806290423FF455AF082255E71E
:103A8000012253E7022251E703224FE704224DE7C8
:103A900005224BE7062249E702B070BD704700BF20
:103AA00000380140003C0140003802400000024064
:103AB0000369194201D001207047002070470AB104
:103AC00081617047090481617047436901EA03021B
:103AD00021EA030141EA02418161704703685A69A2
:103AE00012F4806F01D1002070476FF480625A6138
:103AF00000230363202280F83D2080F83E30026CD2
:103B000042F00402026480F83C30012070472DE945
:103B1000F04106460C46174698463BE0FFF7DCFBB3
:103B2000069BC01A404502D8B8F1000F32D1012DD2
:103B300018D033689B6924EA03039BB2B3FA83F37A
:103B40005B099F4226D100233363202286F83D2063
:103B500086F83E30326C42F02002326486F83C3007
:103B6000012027E033685B6924EA03039BB2B3FAC0
:103B700083F35B09E5E733685B6924EA030C1FFA0A
:103B80008CFCBCFA8CFC4FEA5C1C674511D1B8F187
:103B9000FF3FC3D1C4F30745012DECD033689B69C7
:103BA00024EA030C1FFA8CFCBCFA8CFC4FEA5C1C68
:103BB000EBE70020BDE8F0812DE9F84305460E460D
:103BC0009046994653E01A6842F400721A602B68D6
:103BD0006FF480625A6100232B63202285F83D2018
:103BE00085F83E302A6C42F004022A6485F83C30A5
:103BF00001204AE0FFF770FBA0EB0900404502D826
:103C0000B8F1000F33D1012F17D02B689B6926EA3A
:103C100003039BB2003B18BF012343B300232B6374
:103C2000202285F83D2085F83E302A6C42F02002A3
:103C30002A6485F83C30012027E02B685B6926EA7E
:103C400003039BB2003B18BF0123E6E72B689C6986
:103C500026EA0404A4B2003C18BF0124A4B12B68D6
:103C60005A6912F4806FAED1B8F1FF3FC2D1C6F3EA
:103C70000747012FEAD12B685C6926EA0404A4B245
:103C8000003C18BF0124E9E70020BDE8F88370B5C7
:103C900004460D46164623685B6913F0800F21D158
:103CA0002046FFF71BFFF8B9B5F1FF3FF3D0FFF750
:103CB00013FB801BA84201D8002DECD123685B695F
:103CC00013F0800FE7D100232363202284F83D20E6
:103CD00084F83E30226C42F02002226484F83C30AA
:103CE000012000E0002070BD0120FCE72DE9F04339
:103CF00085B004460D4691461F46DDF830800D9E86
:103D00000368196841F480711960009643460022E7
:103D10004FF00111FFF7FBFE60B9236805F0FE05C7
:103D20001D613346424626492046FFF745FF68B1EC
:103D3000012008E023681B6813F4807F02D04FF451
:103D400000732364032005B0BDE8F08300230393D0
:103D500023685A6903929B690393039B3246414649
:103D60002046FFF794FF30B9012F0FD123685FFA87
:103D700089F61E61E7E7236C042B01D00120E2E7FE
:103D80002268136843F400731360F7E723684FEA6F
:103D900019221A61324641462046FFF778FF20B9C2
:103DA00023685FFA89F61E61CDE7236C042B01D0EE
:103DB0000120C8E72268136843F400731360F7E733
:103DC0000200010070B504460D46164623685B6983
:103DD00013F0040F21D12046FFF780FEF8B9B5F1AA
:103DE000FF3FF3D0FFF778FA801BA84201D8002DDF
:103DF000ECD123685B6913F0040FE7D10023236340
:103E0000202284F83D2084F83E30226C42F02002CB
:103E1000226484F83C30012000E0002070BD0120C5
:103E2000FCE70000002800F0CC8070B5044690F854
:103E30003D30002B77D0242384F83D30226813686E
:103E400023F0010313602268136843F400431360F6
:103E50002268136823F40043136000F08FFC62684B
:103E60005A4B9A4264D85A4B98428CBF0023012384
:103E7000002B40F0A8805749A1FB00318B0C25682E
:103E80006A6822F03F0242EA91426A6021680A6A47
:103E900022F03F0266684D4DAE424FD801331343C6
:103EA0000B622168CA6922F44F4222F0FF02666861
:103EB000464B9E424CD8431E7600B3FBF6F30133CB
:103EC00040F6FC70034278D0C3F30B031343CB617D
:103ED00021680B6823F0C003E269206A02431343A0
:103EE0000B6021688B6823F4034323F0FF032269EE
:103EF000E068024313438B602168CB6823F0FF0323
:103F00006269A06902431343CB602268136843F0DF
:103F10000103136000202064202384F83D302063D7
:103F200084F83E0070BD80F83C30FEF70DFC82E75F
:103F3000294B98428CBF0023012399E74FF49675D3
:103F400005FB03F3254DA5FB03539B090133A6E7AE
:103F5000A368BBB9451E06EB460CB5FBFCF5013565
:103F6000C5F30B05B5FA85F56D0945BBC3B9013835
:103F700006EB4603B0FBF3F30133C3F30B0343F447
:103F80000043A3E7451E06EB860C0CEB8C0CB5FB3F
:103F9000FCF50135C5F30B05B5FA85F56D09E4E7C8
:103FA000013806EB860303EB8303B0FBF3F3013325
:103FB000C3F30B0343F4404388E7042386E701235C
:103FC00084E7012070470120ACE700BFA086010014
:103FD0007F841E0083DE1B43FF083D00D34D62102B
:103FE0002DE9F04383B004460F46904699460C9E57
:103FF000FFF772F9054694F83D00C0B2202803D0BF
:10400000022003B0BDE8F0830095192301224B493B
:104010002046FFF77CFD002840F0898094F83C3072
:10402000012B00F08680012384F83C3023681A6855
:1040300012F0010F03D11A6842F001021A602268DF
:10404000136823F400631360212384F83D30402378
:1040500084F83E30002323640A9B6362BDF82C3051
:104060006385638D2385364BE362019500964B464D
:10407000424639462046FFF739FE00285BD1238DA2
:10408000002B35D02A4631462046FFF700FE20BBE4
:10409000626A236812781A61626A531C6362218D16
:1040A000013989B22185638D9BB2013B9BB2638547
:1040B0002368586910F0040FE1D00029DFD052784E
:1040C0001A61636A01336362238D013B2385638D2B
:1040D0009BB2013B9BB26385D1E7236C042B01D0DB
:1040E00001208EE72268136843F400731360F7E73A
:1040F0002A4631462046FFF765FE50B1236C042B5B
:1041000001D001207DE72268136843F40073136037
:10411000F7E72268136843F400731360202384F8E0
:104120003D30002384F83E3084F83C3069E70220BB
:1041300067E7022065E7012063E700BF0200100087
:104140000000FFFF002800F0E08170B582B0044657
:10415000036813F0010F3BD09F4B9B6803F00C03E7
:10416000042B2CD09C4B9B6803F00C03082B21D014
:104170006368B3F5803F4FD0B3F5A02F52D0964B74
:104180001A6822F480321A601A6822F480221A60B7
:104190006368002B50D0FFF79FF805468E4B1B68D5
:1041A00013F4003F14D1FFF797F8401B6428F5D9AA
:1041B0000320B1E1884B5B6813F4800FD8D0864BA5
:1041C0001B6813F4003F03D06368002B00F09F814D
:1041D000236813F0020F54D07F4B9B6813F00C0F31
:1041E0003ED07D4B9B6803F00C03082B33D0E36873
:1041F000002B68D0794B01221A60FFF76DF8054655
:10420000754B1B6813F0020F54D1FFF765F8401B84
:104210000228F5D903207FE16F4A136843F4803305
:104220001360B5E76C4B1A6842F480221A601A6872
:1042300042F480321A60ABE7FFF74EF80546664B52
:104240001B6813F4003FC3D0FFF746F8401B6428F7
:10425000F5D9032060E1604B5B6813F4800FC6D191
:104260005D4B1B6813F0020F03D0E368012B40F095
:104270005081594A136823F0F803216943EAC103C6
:104280001360236813F0080F42D063696BB3534B7C
:104290000122C3F8802EFFF71FF805464E4B5B6FD7
:1042A00013F0020F34D1FFF717F8401B0228F5D99D
:1042B000032031E1484A136823F0F803216943EAF7
:1042C000C1031360DDE7454B00221A60FFF704F8D5
:1042D0000546414B1B6813F0020FD2D0FEF7FCFFDE
:1042E000401B0228F5D9032016E13C4B0022C3F8FD
:1042F000802EFEF7F1FF0546374B5B6F13F0020F80
:1043000006D0FEF7E9FF401B0228F5D9032003E1A0
:10431000236813F0040F77D02F4B1B6C13F0805FD2
:1043200033D1002301932C4B1A6C42F080521A6453
:104330001B6C03F080530193019B0125284B1B68E4
:1043400013F4807F23D0A368012B34D0052B38D001
:10435000214B1A6F22F001021A671A6F22F0040231
:104360001A67A368002B3DD0FEF7B6FF06461A4B2E
:104370001B6F13F0020F46D1FEF7AEFF801B41F218
:1043800088339842F3D90320C6E00025D6E7144AC3
:10439000136843F480731360FEF79EFF0646104BCC
:1043A0001B6813F4807FCED1FEF796FF801B022896
:1043B000F5D90320B0E0084A136F43F001031367F7
:1043C000CFE7054B1A6F42F004021A671A6F42F0EA
:1043D00001021A67C5E700BF0038024000004742EB
:1043E00000700040FEF778FF0646524B1B6F13F03B
:1043F000020F08D0FEF770FF801B41F2883398420D
:10440000F3D9032088E0EDB9A369002B00F0838085
:10441000484A926802F00C02082A51D0022B17D0A9
:10442000454B00221A66FEF757FF0446414B1B68B6
:1044300013F0007F42D0FEF74FFF001B0228F5D992
:10444000032069E03B4A136C23F080531364DBE7DD
:10445000394B00221A66FEF73FFF0546354B1B68B5
:1044600013F0007F06D0FEF737FF401B0228F5D976
:10447000032051E0E369226A1343626A43EA82132C
:10448000A26A5208013A43EA0243E26A43EA02633B
:10449000284A5360284B01221A66FEF71DFF044686
:1044A000244B1B6813F0007F06D1FEF715FF001B9D
:1044B0000228F5D903202FE000202DE000202BE07A
:1044C000012B2BD01B4B5B6803F48001E269914206
:1044D00026D103F03F02216A8A4223D1616A47F65E
:1044E000C0721A40B2EB811F1ED103F44031A26AA0
:1044F0005208013AB1EB024F18D103F07063E26A3F
:10450000B3EB026F14D1002006E0012070470120B8
:1045100002E0012000E0002002B070BD0120FBE7B6
:104520000120F9E70120F7E70120F5E70120F3E793
:104530000120F1E7003802400000474208B5314B46
:104540009B6803F00C03042B57D0082B57D12D4B3D
:104550005A6802F03F025B6813F4800F2AD0294B9F
:104560005968C1F3881C4FEA4C11B1EB0C006EEB9B
:104570000E0E4FEA8E1343EA90638101091A63EB32
:104580000E03DB0043EA5173C90011EB0C0C43F13D
:104590000003590200234FEA4C2041EADC51FCF7AA
:1045A000A7FD184B5B68C3F3014301335B00B0FB0D
:1045B000F3F025E0134B5968C1F3881C4FEA4C1106
:1045C000B1EB0C006EEB0E0E4FEA8E1343EA9063D4
:1045D0008101091A63EB0E03DB0043EA5173C90042
:1045E00011EB0C0C43F10003990200234FEA8C20DD
:1045F00041EA9C51FCF77CFDD3E7034800E0034807
:1046000008BD00BF0038024000127A000024F40008
:10461000002800F09B8070B50D4604464F4B1B6888
:1046200003F007038B4208D2CBB24C4A13701368D5
:1046300003F007038B4240F08B80236813F0020FD6
:1046400017D013F0040F04D0454A936843F4E053A5
:104650009360236813F0080F04D0414A936843F431
:10466000604393603E4A936823F0F003A1680B43D4
:104670009360236813F0010F32D06368012B21D0BF
:104680009A1E012A25D9364A126812F0020F61D00B
:1046900033498A6822F0030213438B60FEF71CFE45
:1046A00006462F4B9B6803F00C036268B3EB820F46
:1046B00016D0FEF711FE801B41F288339842F0D9E4
:1046C000032042E0264A126812F4003FE0D10120A4
:1046D0003BE0234A126812F0007FD9D1012034E078
:1046E0001E4B1B6803F00703AB4207D9EAB21B4B12
:1046F0001A701B6803F00703AB422DD1236813F037
:10470000040F06D0164A936823F4E053E1680B4384
:104710009360236813F0080F07D0114A936823F4BD
:104720006043216943EAC1039360FFF707FF0C4B25
:104730009B68C3F303130B4AD35CD8400A4B186041
:104740000A4B1868FEF77CFD002070BD0120704701
:104750000120FAE70120F8E70120F6E7003C0240DB
:1047600000380240841E01083C0000204400002064
:10477000014B1868704700BF3C00002008B5FFF7E8
:10478000F7FF044B9B68C3F38223034AD35CD840F2
:1047900008BD00BF00380240941E010808B5FFF7AD
:1047A000E7FF044B9B68C3F34233034AD35CD84012
:1047B00008BD00BF00380240941E010830B4036AEF
:1047C000026A22F0010202624268846924F07304E2
:1047D0000D682C4323F0020C8B6843EA0C03104D48
:1047E000A84203D005F58065A84205D123F008034F
:1047F000CD682B4323F00403094DA84203D005F5EF
:104800008065A84205D122F440724D692A438D6922
:104810002A43426084614A684263036230BC704745
:104820000000014030B4036A026A22F4807202621E
:104830004268C46924F0730C0C6844EA0C0523F444
:1048400000738C6843EA0423114CA04203D004F5A2
:104850008064A04206D123F40063CC6843EA0423B9
:1048600023F480630A4CA04203D004F58064A04284
:1048700007D122F440524C6942EA04128C6942EAA0
:1048800004124260C5614A68C263036230BC70476B
:104890000000014030B4036A026A22F480520262CE
:1048A0004468C26922F4E6420D6842EA052223F414
:1048B00000538D6843EA0533094DA84203D005F53E
:1048C0008065A84204D124F480444D6944EA8514EB
:1048D0004460C2614A680264036230BC704700BF32
:1048E0000000014010B4036A046A24F00104046269
:1048F000846924F0F00C4CEA021223F00A030B4303
:104900008261036210BC704710B4036A046A24F029
:1049100010040462846924F4704C4CEA023223F0DF
:10492000A00343EA01138261036210BC70478368ED
:1049300023F070030B4343F00703836070470000CC
:1049400090F83D30DBB2012B37D1022380F83D30A7
:104950000268D36843F00103D3600368194A9342A5
:1049600020D0B3F1804F1DD0A2F57C42934219D0E4
:1049700002F58062934215D002F58062934211D015
:1049800002F5784293420DD002F57052934209D05D
:10499000A2F59432934205D01A6842F001021A60DF
:1049A000002070479A6802F00702062A07D01A68AA
:1049B00042F001021A600020704701207047002079
:1049C000704700BF00000140704770477047704754
:1049D000704770B504460368DE681D6915F0020F64
:1049E00010D016F0020F0DD06FF002021A610123F1
:1049F000037703689B6913F0030F5ED0FFF7E6FFB0
:104A00000023237715F0040F12D016F0040F0FD0F7
:104A100023686FF004021A610223237723689B69DD
:104A200013F4407F4FD02046FFF7D0FF00232377B9
:104A300015F0080F12D016F0080F0FD023686FF092
:104A400008021A61042323772368DB6913F0030F3C
:104A500040D02046FFF7BAFF0023237715F0100F50
:104A600012D016F0100F0FD023686FF010021A61E9
:104A7000082323772368DB6913F4407F31D0204675
:104A8000FFF7A4FF0023237715F0010F02D016F0E3
:104A9000010F2DD115F0800F02D016F0800F2FD10D
:104AA00015F0400F02D016F0400F31D115F0200F55
:104AB00002D016F0200F33D170BDFFF786FF2046DD
:104AC000FFF785FF9CE72046FFF77FFF2046FFF7B3
:104AD0007EFFABE72046FFF778FF2046FFF777FF22
:104AE000BAE72046FFF771FF2046FFF770FFC9E7DE
:104AF00023686FF001021A61204602F011FCC9E739
:104B000023686FF080021A61204600F0DEFAC7E7E2
:104B100023686FF040021A612046FFF759FFC5E78E
:104B200023686FF020021A61204600F0CDFAC3E737
:104B30000368344A904212D0B0F1804F0FD0A2F5F2
:104B40007C4290420BD002F58062904207D002F581
:104B50008062904203D002F57842904203D123F064
:104B600070034A681343274A90422AD0B0F1804F1D
:104B700027D0A2F57C42904223D002F58062904279
:104B80001FD002F5806290421BD002F5784290421D
:104B900017D002F57052904213D002F58062904215
:104BA0000FD002F5806290420BD0A2F5983290426D
:104BB00007D002F58062904203D002F580629042F5
:104BC00003D123F44073CA68134323F080034A6976
:104BD000134303608B68C3620B688362094B98427E
:104BE00003D003F58063984201D10B69036301236D
:104BF0004361036913F0010F03D0036923F001033C
:104C0000036170470000014040B310B5044690F8BE
:104C10003D30F3B1022384F83D30214651F8040BB6
:104C2000FFF786FF012384F8463084F83E3084F88D
:104C30003F3084F8403084F8413084F8423084F8C2
:104C4000433084F8443084F8453084F83D30002007
:104C500010BD80F83C30FDF7CDFFDBE70120704749
:104C600040B310B5044690F83D30F3B1022384F808
:104C70003D30214651F8040BFFF75AFF012384F819
:104C8000463084F83E3084F83F3084F8403084F871
:104C9000413084F8423084F8433084F8443084F85A
:104CA000453084F83D30002010BD80F83C30FFF7DF
:104CB0008BFEDBE70120704730B4036A026A22F002
:104CC000100202624468826922F4E6420D6842EAF8
:104CD000052223F020038D6843EA0513114DA842F5
:104CE00003D005F58065A84206D123F08003CD6886
:104CF00043EA051323F040030A4DA84203D005F50B
:104D00008065A84207D124F440644D6944EA8504D3
:104D10008D6944EA8504446082614A688263036263
:104D200030BC70470000014038B590F83C30012B92
:104D300066D004460D46012380F83C300C2A5AD830
:104D4000DFE802F0075959591B5959593059595937
:104D500044000068FFF732FD2268936943F00803BE
:104D600093612268936923F0040393612268936935
:104D700029690B43936100203EE00068FFF79CFF28
:104D80002268936943F4006393612268936923F472
:104D90008063936122689369296943EA01239361DF
:104DA000002029E00068FFF73DFD2268D36943F049
:104DB0000803D3612268D36923F00403D361226816
:104DC000D36929690B43D361002015E00068FFF720
:104DD00061FD2268D36943F40063D3612268D3691B
:104DE00023F48063D3612268D369296943EA0123EC
:104DF000D361002000E00120002384F83C3038BD5E
:104E00000220FCE710B4846824F47F4C42EA0322B9
:104E10000A4342EA0C02826010BC704790F83C30B2
:104E2000012B78D010B50446012380F83C300223D2
:104E300080F83D300268936823F47F4323F07703C2
:104E400093600B68602B4CD029D8402B54D00CD9E0
:104E5000502B22D1CA6849680068FFF743FD5021F2
:104E60002068FFF764FD002005E0202B0DD009D954
:104E7000302B0AD00120012384F83D30002384F830
:104E80003C3010BD0BB1102B05D119462068FFF73F
:104E90004EFD0020EFE70120EDE70120EBE7B3F541
:104EA000805F34D0B3F5005F0CD1CB684A68896865
:104EB0000068FFF7A7FF2268936843F4804393607C
:104EC0000020D8E7702B24D1CB684A688968006835
:104ED000FFF798FF2268936843F077039360002000
:104EE000C9E7CA6849680068FFF70EFD60212068BD
:104EF000FFF71DFD0020BEE7CA6849680068FFF79C
:104F0000F1FC40212068FFF712FD0020B3E70020EC
:104F1000B1E70120AFE70220704701F01F01012334
:104F200003FA01FC036A23EA0C030362036A02FA30
:104F300001F10B430362704710B50446084600298F
:104F400042D194F83E30DBB2013B18BF0123002B65
:104F50006ED1002851D1022384F83E30012201464F
:104F60002068FFF7DAFF2368334A934203D002F543
:104F70008062934203D15A6C42F400425A6423681F
:104F80002D4A934249D0B3F1804F46D0A2F57C42DE
:104F9000934242D002F5806293423ED002F5806295
:104FA00093423AD002F57842934236D002F57052DD
:104FB000934232D0A2F5943293422ED01A6842F036
:104FC00001021A60002032E0042908D008290DD01F
:104FD00094F84130DBB2013B18BF0123B7E794F8E6
:104FE0003F30DBB2013B18BF0123B0E794F84030FB
:104FF000DBB2013B18BF0123A9E7042805D008282C
:1050000007D0022384F84130A8E7022384F83F3018
:10501000A4E7022384F84030A0E79A6802F0070270
:10502000062A07D01A6842F001021A60002010BD5B
:105030000120FCE70020FAE70000014090F83C3036
:10504000012B3CD010B4012380F83C30022380F8BF
:105050003D3003685A689C6822F0700C0A6842EA86
:105060000C025A600368174A93421AD0B3F1804F7A
:1050700017D0A2F57C42934213D002F5806293428E
:105080000FD002F5806293420BD002F57842934232
:1050900007D002F57052934203D0A2F594329342A6
:1050A00004D124F080044A6814439C60012380F8F2
:1050B0003D30002380F83C30184610BC7047022079
:1050C000704700BF0000014070477047026802F15E
:1050D0000C0353E8003F23F0C0030C3242E80031D8
:1050E0000029F3D1202380F841307047026802F193
:1050F0000C0353E8003F23F490730C3242E8003174
:105100000029F3D1026802F1140353E8003F23F0B1
:105110000103143242E800310029F3D1036B012B63
:1051200005D0202380F842300023036370470268D3
:1051300002F10C0353E8003F23F010030C3242E865
:1051400000310029F3D1ECE790F84130DBB2212B9C
:1051500001D0022070478368B3F5805F17D0036ADF
:105160005A1C02621A7803685A60C38C9BB2013BD6
:105170009BB2C3844BB90268D36823F08003D36029
:105180000268D36843F04003D3600020704703698E
:10519000002BE4D1036A1B880268C3F30803536041
:1051A000036A02330362E0E738B504460268136914
:1051B00023F44053C1680B431361836802691343AE
:1051C00042691343C2691A430168CB6823F416434A
:1051D00023F00C031343CB600268536923F440733C
:1051E00081690B4353610368314A934206D002F54B
:1051F0008062934202D0FFF7C1FA01E0FFF7CEFAD6
:10520000E369B3F5004F29D00021031849411B1869
:1052100041F10001C90041EA5371DB0018186368CD
:105220004FEA83024FEA937341F10001FBF760FFFD
:10523000204DA5FB00325109642303FB11031B0120
:105240003233A5FB03235B0903F0F00202EB0112EA
:1052500003F00F03216813448B6038BD002302184C
:1052600043EB0301121841F10001C90041EA5271F8
:10527000D200101841F10001626892185B41FBF7FF
:1052800037FF0C4DA5FB00325109642303FB1103CA
:10529000DB003233A5FB03235B095A0002F4F872EA
:1052A00002EB011203F00703216813448B60D4E77B
:1052B000001001401F85EB512DE9F04383B00546F6
:1052C0000E4617469946DDF828802C68246836EA91
:1052D00004030CBF4FF0010C4FF0000CBC4528D16B
:1052E000B8F1FF3FF1D0FDF7F7FFA0EB0900404513
:1052F00023D8B8F1000F22D02B68DA6812F0040F1F
:10530000E3D0802EE1D0402EDFD01A6812F0080FD3
:10531000DBD0002401941A6801925B680193019B21
:105320002846FFF7E3FE08236B6485F84040012020
:1053300000E0002003B0BDE8F0830320FAE703207B
:10534000F8E760B310B5044690F8413013B3242356
:1053500084F841302268D36823F40053D360204698
:10536000FFF722FF2268136923F490431361226838
:10537000536923F02A0353612268D36843F400532E
:10538000D36000206064202384F8413084F84230E8
:10539000606310BD80F84030FDF7C4FDD7E7012001
:1053A00070472DE9F04182B01E4690F84130DBB2E3
:1053B000202B56D104460D469046002955D00AB9F7
:1053C00001204FE000234364212380F84130FDF7A2
:1053D00083FF0746A4F82480A4F82680A368B3F5C9
:1053E000805F02D04FF0000814E023692BB34FF028
:1053F00000080FE0202384F84130032032E038F821
:10540000023B2268C3F308035360E28C92B2013A74
:1054100092B2E284E38C9BB293B100963B460022A9
:1054200080212046FFF748FF0028E3D1002DE6D079
:1054300015F8012B23685A60E7E7A8460025E9E73D
:1054400000963B46002240212046FFF735FF18B961
:10545000202384F8413005E0202384F841300320E4
:1054600000E0022002B0BDE8F0810120FAE72DE95A
:10547000F04182B01E4690F84230DBB2202B59D169
:1054800004460D469046002958D00AB9012052E042
:1054900000234364222280F842200363FDF71CFFAF
:1054A0000746A4F82C80A4F82E80A368B3F5805F8B
:1054B00002D04FF000081CE0236913B14FF0000840
:1054C00017E0A846002514E0202384F8423003208A
:1054D00031E023685B68C3F3080328F8023B03E06C
:1054E00023685B682B700135E28D92B2013A92B26B
:1054F000E285E38D9BB2C3B100963B46002220219A
:105500002046FFF7D9FE0028DED1002DE1D0A368A8
:10551000B3F5805FE4D013B92369002BE0D0236892
:105520005B6803F07F032B70DDE7202384F84230B3
:10553000002000E0022002B0BDE8F0810120FAE77F
:1055400090F84130DBB2202B10D189B192B10162C9
:105550008284C28400234364212280F841200168B0
:10556000CA6842F08002CA6018467047022070473D
:10557000012070470120704710B5044603685A693E
:1055800090F84130DBB2212B0AD023685A6902F02F
:10559000400294F84230DBB2222B19D0002010BD1B
:1055A00002F08002002AF0D0226802F1140353E8CE
:1055B000003F23F08003143242E800310029F3D188
:1055C000A06B08B1FEF737F82046FFF77FFDDCE758
:1055D000002AE3D0226802F1140353E8003F23F0CD
:1055E0004003143242E800310029F3D1E06B08B1E6
:1055F000FEF721F82046FFF779FDCFE708B50168EF
:10560000CA6822F04002CA60202280F84120FDF7DB
:105610005BFA002008BD7047704710B5846B2368A3
:105620005A6994F84130DBB2212B10D023685A69B3
:1056300002F0400294F84230DBB2222B11D0636CAE
:1056400043F0100363642046FFF7E6FF10BD02F04D
:105650008002002AEAD00023E3842046FFF736FDCB
:10566000E4E7002AEBD00023E3852046FFF73EFD68
:10567000E5E708B5806B0023C385C384FFF7CCFF43
:1056800008BD704790F84230DBB2222B69D18368A5
:10569000B3F5805F4FD0826AB3F5805F04D0002BF2
:1056A00056D10369002B53D103685B681370836A7A
:1056B00001338362C38D9BB2013B9BB2C385002B38
:1056C00051D100B583B00268D36823F02003D360C2
:1056D0000268D36823F48073D3600268536923F0AF
:1056E00001035361202380F8423000234363036B9E
:1056F000012B33D100230363026802F10C0353E84A
:10570000003F23F010030C3242E800310029F3D1AE
:1057100003681A6812F0100F06D0002201921A686E
:1057200001925B680193019B818DFFF7AAFF002026
:1057300003B05DF804FB0269002AACD1826A0368F9
:105740005B68C3F308031380836A02338362B1E7A3
:1057500003685B6803F07F031370A8E7FDF74EF959
:10576000E5E70220704700207047000030B583B0A5
:10577000044602681368D068516913F00F0505D11B
:1057800013F0200F02D010F0200F19D12DB111F01D
:10579000010119D110F4907F16D1216B01297DD020
:1057A00013F0800F03D010F0800F40F0198113F038
:1057B000400F03D010F0400F40F0168103B030BD11
:1057C0002046FFF75FFFF9E713F0010F06D010F452
:1057D000807F03D0626C42F00102626413F0040F18
:1057E00004D019B1626C42F00202626413F0020F3D
:1057F00004D019B1626C42F00402626413F0080F25
:1058000007D010F0200F00D119B1626C42F00802ED
:105810006264626C002AD1D013F0200F02D010F025
:10582000200F29D123685B6903F04003626C12F0FA
:10583000080F00D163B32046FFF758FC23685B696B
:1058400013F0400F20D0226802F1140353E8003F08
:1058500023F04003143242E800310029F3D1E36B16
:1058600073B1634A1A65E06BFDF72FFF0028A5D0DE
:10587000E06B036D9847A1E72046FFF703FFD1E7F0
:105880002046FFF7C9FE99E72046FFF7C5FE95E7DA
:105890002046FFF7C1FE002363648FE713F0100F6B
:1058A0003FF47EAF10F0100F3FF47AAF0023019366
:1058B0001368019353680193019B536913F0400FE0
:1058C00052D0E26B13685B689BB2002B3FF476AF5B
:1058D000A18D99427FF672AFE385D369B3F5807FDE
:1058E00037D0226802F10C0353E8003F23F48073A1
:1058F0000C3242E800310029F3D1226802F114038E
:1059000053E8003F23F00103143242E8003100293C
:10591000F3D1226802F1140353E8003F23F040035F
:10592000143242E800310029F3D1202384F84230B8
:1059300000232363226802F10C0353E8003F23F0A5
:1059400010030C3242E800310029F3D1E06BFDF77F
:1059500072FE02236363A18DE38D9BB2C91A89B2E3
:105960002046FFF78EFE29E7A18DE38D9BB2C91A71
:1059700089B2E38D9BB2002B3FF420AF00293FF4A6
:105980001DAF226802F10C0353E8003F23F490732B
:105990000C3242E800300028F3D1226802F11403EF
:1059A00053E8003F23F00103143242E8003000289E
:1059B000F3D1202384F8423000232363226802F1CC
:1059C0000C0353E8003F23F010030C3242E8003090
:1059D0000028F3D1022363632046FFF752FEEDE671
:1059E0002046FFF7B1FBE9E62046FFF707FEE5E6B4
:1059F0007356000808B5806B01234363036B012BCA
:105A000002D0FFF708FE08BD818D4908FFF739FE77
:105A1000F9E708B50346806B1B681B6813F4807FA9
:105A20002BD10023C385026802F10C0353E8003F29
:105A300023F480730C3242E800310029F3D102686C
:105A400002F1140353E8003F23F00103143242E84B
:105A500000310029F3D1026802F1140353E8003F3A
:105A600023F04003143242E800310029F3D120230F
:105A700080F84230036B012B07D000234363036B94
:105A8000012B0FD0FCF7BAFF08BD026802F10C032E
:105A900053E8003F23F010030C3242E800310029A4
:105AA000F3D1EAE7818DFFF7ECFDEDE781628285B6
:105AB000C28500234364222380F84230036923B166
:105AC0000268D36843F48073D3600268536943F07B
:105AD000010353610268D36843F02003D3600020C0
:105AE000704708B590F84230DBB2202B08D149B19D
:105AF0000AB9012008BD00230363FFF7D7FFF9E7C8
:105B00000220F7E70120F5E730B583B004461346DD
