:020000040800F2
:100000000000022059240008311E0008331E000899
:10001000351E0008371E0008391E000800000000C9
:100020000000000000000000000000003B1E00086F
:100030003D1E0008000000003F1E0008411E000891
:10004000A9240008A9240008A9240008A92400085C
:10005000A9240008A9240008A9240008A92400084C
:10006000A9240008A9240008A9240008A92400083C
:10007000491E0008A9240008A9240008A924000892
:10008000A9240008A9240008A9240008A92400081C
:10009000A9240008A9240008A9240008A92400080C
:1000A000A9240008A9240008A9240008A9240008FC
:1000B000A9240008A9240008A9240008A9240008EC
:1000C000A9240008A9240008A9240008A9240008DC
:1000D000A9240008591E0008A9240008691E000868
:1000E000A9240008A9240008A9240008A9240008BC
:1000F000A9240008A9240008A9240008A9240008AC
:10010000A9240008A9240008A9240008A92400089B
:10011000A9240008A9240008D91E0008A924000861
:10012000A9240008A9240008A9240008A92400087B
:10013000A9240008A9240008A9240008A92400086B
:10014000A9240008A9240008A9240008A92400085B
:10015000A9240008A9240008A9240008A92400084B
:10016000A9240008A9240008A9240008A92400083B
:10017000A9240008A9240008A92400080000000000
:08018000A9240008A9240008CD
:1001C00081F0004102E000BF83F0004330B54FEA08
:1001D00041044FEA430594EA050F08BF90EA020F75
:1001E0001FBF54EA000C55EA020C7FEA645C7FEA08
:1001F000655C00F0E2804FEA5454D4EB5555B8BF2B
:100200006D420CDD2C4480EA020281EA030382EA9B
:10021000000083EA010180EA020281EA0303362D2D
:1002200088BF30BD11F0004F4FEA01314FF4801C00
:100230004CEA113102D0404261EB410113F0004F12
:100240004FEA03334CEA133302D0524263EB4303C9
:1002500094EA050F00F0A780A4F10104D5F1200E67
:100260000DDB02FA0EFC22FA05F2801841F10001C2
:1002700003FA0EF2801843FA05F359410EE0A5F196
:1002800020050EF1200E012A03FA0EFC28BF4CF0C7
:10029000020C43FA05F3C01851EBE37101F000457D
:1002A00007D54FF0000EDCF1000C7EEB00006EEB8A
:1002B0000101B1F5801F1BD3B1F5001F0CD3490814
:1002C0005FEA30004FEA3C0C04F101044FEA44526B
:1002D00012F5800F80F09A80BCF1004F08BF5FEAF2
:1002E000500C50F1000041EB045141EA050130BDD2
:1002F0005FEA4C0C404141EB0101013C28BFB1F5E4
:10030000801FE9D291F0000F04BF01460020B1FA2E
:1003100081F308BF2033A3F10B03B3F120020CDA01
:100320000C3208DD02F1140CC2F10C0201FA0CF0DF
:1003300021FA02F10CE002F11402D8BFC2F1200C44
:1003400001FA02F120FA0CFCDCBF41EA0C019040FA
:10035000E41AA2BF01EB0451294330BD6FEA040443
:100360001F3C1CDA0C340EDC04F11404C4F120022E
:1003700020FA04F001FA02F340EA030021FA04F340
:1003800045EA030130BDC4F10C04C4F1200220FA97
:1003900002F001FA04F340EA0300294630BD21FAD5
:1003A00004F0294630BD94F0000F83F4801306BF9B
:1003B00081F480110134013D4EE77FEA645C18BF8F
:1003C0007FEA655C29D094EA050F08BF90EA020F26
:1003D00005D054EA000C04BF1946104630BD91EA1E
:1003E000030F1EBF0021002030BD5FEA545C05D121
:1003F0004000494128BF41F0004130BD14F5800460
:100400003CBF01F5801130BD01F0004545F0FE41D3
:1004100041F470014FF0000030BD7FEA645C1ABF08
:10042000194610467FEA655C1CBF0B46024650EA3F
:10043000013406BF52EA033591EA030F41F400216B
:1004400030BD00BF90F0000F04BF0021704730B5F1
:100450004FF4806404F132044FF000054FF00001C6
:1004600050E700BF90F0000F04BF0021704730B587
:100470004FF4806404F1320410F0004548BF40425C
:100480004FF000013EE700BF42004FEAE2014FEAB1
:1004900031014FEA02701FBF12F07F4393F07F4F8C
:1004A00081F06051704732F07F4208BF704793F08F
:1004B0007F4F04BF41F40021704730B54FF46074A2
:1004C00001F0004521F000411CE700BF50EA0102A5
:1004D00008BF704730B54FF000050AE050EA01024E
:1004E00008BF704730B511F0004502D5404261EBBE
:1004F00041014FF4806404F132045FEA915C3FF4FF
:10050000D8AE4FF003025FEADC0C18BF03325FEA9B
:10051000DC0C18BF033202EBDC02C2F1200300FA4C
:1005200003FC20FA02F001FA03FE40EA0E0021FA71
:1005300002F11444BDE600BF70B54FF0FF0C4CF45F
:10054000E06C1CEA11541DBF1CEA135594EA0C0F11
:1005500095EA0C0F00F0DEF82C4481EA030621EA4C
:100560004C5123EA4C5350EA013518BF52EA033587
:1005700041F4801143F4801338D0A0FB02CE4FF039
:100580000005E1FB02E506F00042E0FB03E54FF069
:100590000006E1FB03569CF0000F18BF4EF0010E61
:1005A000A4F1FF04B6F5007F64F5407404D25FEA5D
:1005B0004E0E6D4146EB060642EAC62141EA555110
:1005C0004FEAC52040EA5E504FEACE2EB4F1FD0C52
:1005D00088BFBCF5E06F1ED8BEF1004F08BF5FEAD0
:1005E000500E50F1000041EB045170BD06F0004682
:1005F00046EA010140EA020081EA0301B4EB5C042F
:10060000C2BFD4EB0C0541EA045170BD41F4801126
:100610004FF0000E013C00F3AB8014F1360FDEBF4B
:10062000002001F0004170BDC4F10004203C35DA27
:100630000C341BDC04F11404C4F1200500FA05F3AA
:1006400020FA04F001FA05F240EA020001F000424B
:1006500021F0004110EBD37021FA04F642EB0601C1
:100660005EEA430E08BF20EAD37070BDC4F10C04EB
:10067000C4F1200500FA04F320FA05F001FA04F2AF
:1006800040EA020001F0004110EBD37041F100019B
:100690005EEA430E08BF20EAD37070BDC4F12005A6
:1006A00000FA05F24EEA020E20FA04F301FA05F20E
:1006B00043EA020321FA04F001F0004121FA04F2B6
:1006C00020EA020000EBD3705EEA430E08BF20EA86
:1006D000D37070BD94F0000F0FD101F000464000C0
:1006E00041EB010111F4801F08BF013CF7D041EA42
:1006F000060195F0000F18BF704703F00046520046
:1007000043EB030313F4801F08BF013DF7D043EA16
:100710000603704794EA0C0F0CEA135518BF95EACC
:100720000C0F0CD050EA410618BF52EA4306D1D153
:1007300081EA030101F000414FF0000070BD50EA72
:10074000410606BF1046194652EA430619D094EAFC
:100750000C0F02D150EA013613D195EA0C0F05D1E6
:1007600052EA03361CBF104619460AD181EA03013A
:1007700001F0004141F0FE4141F470014FF00000F2
:1007800070BD41F0FE4141F4780170BD70B54FF08D
:10079000FF0C4CF4E06C1CEA11541DBF1CEA13550D
:1007A00094EA0C0F95EA0C0F00F0A7F8A4EB0504EF
:1007B00081EA030E52EA03354FEA013100F08880E6
:1007C0004FEA03334FF0805545EA131343EA1263AF
:1007D0004FEA022245EA111545EA10654FEA002664
:1007E0000EF000419D4208BF964244F1FD0404F51D
:1007F000407402D25B084FEA3202B61A65EB030579
:100800005B084FEA32024FF480104FF4002CB6EB35
:10081000020E75EB030E22BFB61A754640EA0C00B5
:100820005B084FEA3202B6EB020E75EB030E22BFF5
:10083000B61A754640EA5C005B084FEA3202B6EB36
:10084000020E75EB030E22BFB61A754640EA9C00F5
:100850005B084FEA3202B6EB020E75EB030E22BFC5
:10086000B61A754640EADC0055EA060E18D04FEA83
:10087000051545EA16754FEA06164FEAC30343EA23
:1008800052734FEAC2025FEA1C1CC0D111F4801FF0
:100890000BD141EA00014FF000004FF0004CB6E7E9
:1008A00011F4801F04BF01430020B4F1FD0C88BF88
:1008B000BCF5E06F3FF6AFAEB5EB030C04BFB6EB93
:1008C000020C5FEA500C50F1000041EB045170BD86
:1008D0000EF0004E4EEA113114EB5C04C2BFD4EBB3
:1008E0000C0541EA045170BD41F480114FF0000E37
:1008F000013C90E645EA060E8DE60CEA135594EAB3
:100900000C0F08BF95EA0C0F3FF43BAF94EA0C0FB5
:100910000AD150EA01347FF434AF95EA0C0F7FF42A
:1009200025AF104619462CE795EA0C0F06D152EA7E
:1009300003353FF4FDAE1046194622E750EA410662
:1009400018BF52EA43067FF4C5AE50EA41047FF473
:100950000DAF52EA43057FF4EBAE12E74FEA4102D6
:1009600012F5001215D211D56FF47873B3EB625201
:1009700012D94FEAC12343F0004343EA505311F028
:10098000004F23FA02F018BF404270474FF00000BA
:10099000704750EA013005D111F0004008BF6FF0F8
:1009A000004070474FF00000704700BF4FEA41021F
:1009B000B2F1E04324BFB3F5001CDCF1FE5C0DD9BD
:1009C00001F0004C4FEAC0024CEA5070B2F1004F07
:1009D00040EB830008BF20F00100704711F0804F0A
:1009E00021D113F13872BCBF01F00040704741F4CF
:1009F00080114FEA5252C2F11802C2F1200C10FAD3
:100A00000CF320FA02F018BF40F001004FEAC123B6
:100A10004FEAD32303FA0CFC40EA0C0023FA02F35A
:100A20004FEA4303CCE77FEA625307D150EA013330
:100A30001EBF4FF0FE4040F44000704701F0004000
:100A400040F0FE4040F40000704700BF80F00040DE
:100A500002E000BF81F0004142001FBF5FEA410396
:100A600092EA030F7FEA226C7FEA236C6AD04FEA96
:100A70001262D2EB1363C1BFD218414048404140DB
:100A8000B8BF5B42192B88BF704710F0004F40F48D
:100A9000000020F07F4018BF404211F0004F41F4A9
:100AA000000121F07F4118BF494292EA030F3FD075
:100AB000A2F1010241FA03FC10EB0C00C3F1200388
:100AC00001FA03F100F0004302D5494260EB400017
:100AD000B0F5000F13D3B0F1807F06D340084FEA82
:100AE000310102F10102FE2A51D2B1F1004F40EB77
:100AF000C25008BF20F0010040EA030070474900DF
:100B000040EB0000013A28BFB0F5000FEDD2B0FA7B
:100B100080FCACF1080CB2EB0C0200FA0CF0AABF9E
:100B200000EBC25052421843BCBFD040184370473C
:100B300092F0000F81F4000106BF80F40000013242
:100B4000013BB5E74FEA41037FEA226C18BF7FEA19
:100B5000236C21D092EA030F04D092F0000F08BF5B
:100B60000846704790EA010F1CBF0020704712F042
:100B70007F4F04D1400028BF40F00040704712F181
:100B800000723CBF00F50000704700F0004343F0E6
:100B9000FE4040F4000070477FEA226216BF08461C
:100BA0007FEA23630146420206BF5FEA412390EADF
:100BB000010F40F4800070474FF0000304E000BFD5
:100BC00010F0004348BF40425FEA000C08BF704786
:100BD00043F0964301464FF000001CE050EA01024A
:100BE00008BF70474FF000030AE000BF50EA01025F
:100BF00008BF704711F0004302D5404261EB41014C
:100C00005FEA010C02BF84460146002043F0B64370
:100C100008BFA3F18053A3F50003BCFA8CF2083A95
:100C2000A3EBC25310DB01FA02FC634400FA02FC9E
:100C3000C2F12002BCF1004F20FA02F243EB0200A5
:100C400008BF20F00100704702F1200201FA02FC07
:100C5000C2F1200250EA4C0021FA02F243EB0200FA
:100C600008BF20EADC7070474FF0FF0C1CEAD0523E
:100C70001EBF1CEAD15392EA0C0F93EA0C0F6FD0FF
:100C80001A4480EA010C400218BF5FEA41211ED0DD
:100C90004FF0006343EA501043EA5111A0FB0131C9
:100CA0000CF00040B1F5000F3EBF490041EAD3719E
:100CB0005B0040EA010062F17F02FD2A1DD8B3F11A
:100CC000004F40EBC25008BF20F00100704790F089
:100CD000000F0CF0004C08BF49024CEA502040EADB
:100CE00051207F3AC2BFD2F1FF0340EAC2507047A1
:100CF00040F400004FF00003013A5DDC12F1190FDF
:100D0000DCBF00F000407047C2F10002410021FA50
:100D100002F1C2F1200200FA02FC5FEA310040F168
:100D2000000053EA4C0308BF20EADC70704792F0E1
:100D3000000F00F0004C02BF400010F4000F013A19
:100D4000F9D040EA0C0093F0000F01F0004C02BF14
:100D5000490011F4000F013BF9D041EA0C018FE783
:100D60000CEAD15392EA0C0F18BF93EA0C0F0AD089
:100D700030F0004C18BF31F0004CD8D180EA0100AF
:100D800000F00040704790F0000F17BF90F0004F48
:100D9000084691F0000F91F0004F14D092EA0C0F2A
:100DA00001D142020FD193EA0C0F03D14B0218BFBD
:100DB000084608D180EA010000F0004040F0FE4003
:100DC00040F40000704740F0FE4040F4400070479F
:100DD0004FF0FF0C1CEAD0521EBF1CEAD15392EA1E
:100DE0000C0F93EA0C0F69D0A2EB030280EA010C0E
:100DF00049024FEA402037D04FF0805343EA1111A7
:100E000043EA10130CF000408B4238BF5B0042F104
:100E10007D024FF4000C8B4224BF5B1A40EA0C00A9
:100E2000B3EB510F24BFA3EB510340EA5C00B3EBDB
:100E3000910F24BFA3EB910340EA9C00B3EBD10FC9
:100E400024BFA3EBD10340EADC001B0118BF5FEA1B
:100E50001C1CE0D1FD2A3FF650AF8B4240EBC25044
:100E600008BF20F0010070470CF0004C4CEA502005
:100E70007F32C2BFD2F1FF0340EAC250704740F454
:100E800000004FF00003013A37E792F0000F00F046
:100E9000004C02BF400010F4000F013AF9D040EAC4
:100EA0000C0093F0000F01F0004C02BF490011F458
:100EB000000F013BF9D041EA0C0195E70CEAD15350
:100EC00092EA0C0F08D142027FF47DAF93EA0C0F37
:100ED0007FF470AF084676E793EA0C0F04D14B021B
:100EE0003FF44CAF08466EE730F0004C18BF31F0CD
:100EF000004CCAD130F000427FF45CAF31F00043C7
:100F00007FF43CAF5FE700BF4FF0FF3C06E000BF5F
:100F10004FF0010C02E000BF4FF0010C4DF804CD82
:100F20004FEA40024FEA41037FEA226C18BF7FEA92
:100F3000236C11D001B052EA530C18BF90EA010F94
:100F400058BFB2EB030088BFC81738BF6FEAE17023
:100F500018BF40F0010070477FEA226C02D15FEABF
:100F6000402C05D17FEA236CE4D15FEA412CE1D02B
:100F70005DF8040B704700BF844608466146FFE7F2
:100F80000FB5FFF7C9FF002848BF10F1000F0FBDD4
:100F90004DF808EDFFF7F4FF0CBF012000205DF8CD
:100FA00008FB00BF4DF808EDFFF7EAFF34BF012052
:100FB00000205DF808FB00BF4DF808EDFFF7E0FFEB
:100FC00094BF012000205DF808FB00BF4DF808ED3C
:100FD000FFF7D2FF94BF012000205DF808FB00BF9F
:100FE0004DF808EDFFF7C8FF34BF012000205DF881
:100FF00008FB00BF4FEA4002B2F1FE4F0FD34FF0A3
:101000009E03B3EB12620DD94FEA002343F0004375
:1010100010F0004F23FA02F018BF404270474FF023
:101020000000704712F1610F01D1420205D110F0AA
:10103000004008BF6FF0004070474FF0000070475D
:1010400042000ED2B2F1FE4F0BD34FF09E03B3EB32
:10105000126209D44FEA002343F0004323FA02F05E
:1010600070474FF00000704712F1610F01D142024A
:1010700002D14FF0FF3070474FF00000704700BFC3
:1010800053B94AB9002908BF00281CBF4FF0FF31EF
:101090004FF0FF3000F074B9ADF1080C6DE904CEEB
:1010A00000F006F8DDF804E0DDE9022304B0704743
:1010B0002DE9F047089E0D4604468846002B4DD189
:1010C0008A42944668D9B2FA82F252B101FA02F326
:1010D000C2F1200120FA01F10CFA02FC41EA0308F6
:1010E00094404FEA1C45210CB8FBF5FE1FFA8CF723
:1010F00005FB1E8341EA03430EFB07F199420BD91E
:101100001CEB03030EF1FF3080F01E81994240F288
:101110001B81AEF1020E63445B1AA4B2B3FBF5F07F
:1011200005FB103344EA034400FB07F7A7420AD942
:101130001CEB040400F1FF3380F00881A74240F269
:10114000058164440238E41B40EA0E4000211EB1D0
:10115000D4400023C6E90043BDE8F0878B4208D99C
:10116000002E00F0EE800021C6E900050846BDE82B
:10117000F087B3FA83F100294AD1AB4202D382420D
:1011800000F2F980841A65EB030301209846002ED3
:10119000E2D0C6E90048DFE702B9FFDEB2FA82F228
:1011A000002A40F09180A1EB0C054FEA1C471FFA82
:1011B0008CFE0121B5FBF7F307FB1350250C45EA24
:1011C00000450EFB03F0A84208D91CEB050503F10E
:1011D000FF3802D2A84200F2CB8043462D1AA4B2B7
:1011E000B5FBF7F007FB105544EA05440EFB00FE83
:1011F000A64508D91CEB040400F1FF3502D2A64530
:1012000000F2BB802846A4EB0E0440EA03409EE7B0
:10121000C1F120078B4022FA07FC4CEA030C20FAAC
:1012200007F405FA01F31C43FD404FEA1C4900FA9C
:1012300001F3B5FBF9F8200C1FFA8CFE09FB1855D9
:1012400040EA054508FB0EF0A84202FA01F20BD96C
:101250001CEB050508F1FF3A80F08880A84240F2B7
:101260008580A8F1020865442D1AA4B2B5FBF9F0F7
:1012700009FB105544EA054500FB0EFEAE4508D9B2
:101280001CEB050500F1FF346CD2AE456AD902387B
:10129000654440EA0840A0FB0294A5EB0E05A54278
:1012A000C846A64656D353D05EB1B3EB080265EBF1
:1012B0000E0505FA07F722FA01F3CD401F43C6E9F0
:1012C00000750021BDE8F087C2F1200320FA03F188
:1012D0000CFA02FC25FA03F395400D434FEA1C4734
:1012E0001FFA8CFEB3FBF7F107FB11302B0C43EA1E
:1012F000004301FB0EF0984204FA02F408D91CEBFB
:10130000030301F1FF382FD298422DD902396344EB
:101310001B1AADB2B3FBF7F007FB103345EA0345E8
:1013200000FB0EF3AB4208D91CEB050500F1FF38BA
:1013300016D2AB4214D902386544ED1A40EA014195
:1013400038E73146304607E78646E5E61846FAE6CE
:101350004B45A9D2B9EB020864EB0C0E0138A3E7A8
:101360004046EAE7204694E74146D1E7D0467BE78E
:10137000023B654432E7084609E76444023842E725
:10138000704700BF000000000000000000000000E7
:10139000000000000000000000000000000000004D
:1013A000000000000000000000000000000000003D
:1013B000000000000000000000000000000000002D
:1013C00090F800F06DE9024520F007016FF0000C85
:1013D00010F0070491F820F040F049804FF000042D
:1013E0006FF00700D1E9002391F840F000F1080008
:1013F00082FA4CF2A4FA8CF283FA4CF3A2FA8CF340
:101400004BBBD1E9022382FA4CF200F10800A4FAA6
:101410008CF283FA4CF3A2FA8CF3E3B9D1E90423FA
:1014200082FA4CF200F10800A4FA8CF283FA4CF331
:10143000A2FA8CF37BB9D1E9062301F1200182FAEB
:101440004CF200F10800A4FA8CF283FA4CF3A2FAF1
:101450008CF3002BC6D0002A04BF04301A4612BAFF
:10146000B2FA82F2FDE8024500EBD2007047D1E902
:10147000002304F00305C4F100004FEAC50514F091
:10148000040F91F840F00CFA05F562EA05021CBF62
:1014900063EA050362464FF00004A9E7000000007C
:1014A00001F0FF01102A2BDB10F0070F08D010F815
:1014B000013B013A8B422DD010F0070F42B3F6D119
:1014C000F0B441EA012141EA014122F007047FF032
:1014D00000070023F0E80256083C85EA010586EA89
:1014E000010685FA47F5A3FA87F586FA47F6A5FAC5
:1014F00087F68EB9EED1F0BC01F0FF0102F00702D1
:1015000032B110F8013B013A83EA010313B1F8D17B
:101510000020704701387047002D06BF354603385C
:10152000073815F0010F07D1013015F4807F02BF95
:10153000013015F4C03F0130F0BC0138704700BFE6
:10154000844641EA000313F003036DD1403A41D3CE
:1015500051F8043B40F8043B51F8043B40F8043B8D
:1015600051F8043B40F8043B51F8043B40F8043B7D
:1015700051F8043B40F8043B51F8043B40F8043B6D
:1015800051F8043B40F8043B51F8043B40F8043B5D
:1015900051F8043B40F8043B51F8043B40F8043B4D
:1015A00051F8043B40F8043B51F8043B40F8043B3D
:1015B00051F8043B40F8043B51F8043B40F8043B2D
:1015C00051F8043B40F8043B51F8043B40F8043B1D
:1015D000403ABDD2303211D351F8043B40F8043BBD
:1015E00051F8043B40F8043B51F8043B40F8043BFD
:1015F00051F8043B40F8043B103AEDD20C3205D3CD
:1016000051F8043B40F8043B043AF9D2043208D0C4
:10161000D2071CBF11F8013B00F8013B01D30B8836
:1016200003806046704700BF082A13D38B078DD014
:1016300010F003038AD0C3F10403D21ADB071CBFE6
:1016400011F8013B00F8013B80D331F8023B20F850
:10165000023B7BE7043AD9D3013A11F8013B00F889
:10166000013BF9D20B7803704B7843708B78837011
:10167000604670474FF0FF3C06E000BF4FF0010CA2
:1016800002E000BF4FF0010C4DF804CD4FEA410CD1
:101690007FEA6C5C4FEA430C18BF7FEA6C5C1BD09E
:1016A00001B050EA410C0CBF52EA430C91EA030F1F
:1016B00002BF90EA020F0020704710F1000F91EA7C
:1016C000030F58BF994208BF90422CBFD8176FEA4A
:1016D000E37040F0010070474FEA410C7FEA6C5C18
:1016E00002D150EA013C07D14FEA430C7FEA6C5C1F
:1016F000D6D152EA033CD3D05DF8040B704700BF4B
:101700008446104662468C461946634600E000BF98
:1017100001B5FFF7B7FF002848BF10F1000F01BD6A
:101720004DF808EDFFF7F4FF0CBF012000205DF835
:1017300008FB00BF4DF808EDFFF7EAFF34BF0120BA
:1017400000205DF808FB00BF4DF808EDFFF7E0FF53
:1017500094BF012000205DF808FB00BF4DF808EDA4
:10176000FFF7CEFF94BF012000205DF808FB00BF0B
:101770004DF808EDFFF7C4FF34BF012000205DF8ED
:1017800008FB00BF4FEA410C7FEA6C5C02D150EAD3
:10179000013C0AD14FEA430C7FEA6C5C02D152EA69
:1017A000033C02D14FF0000070474FF0010070473A
:1017B00008B5A82000F00EF803F080FB044801F003
:1017C000A7FE00F061F84FF47A7000F02FF808BD22
:1017D000B00A002010B50446002000F025FFE40800
:1017E000014B1C7010BD00BFD80900200E4B1B78A8
:1017F00000FB03F3013B4FF0E022536100239361B0
:10180000136943F0010313614FF0E0231B6903F0F8
:101810000113012BF8D04FF0E0231A6922F00102E6
:101820001A6100229A617047D809002038B50C4C23
:10183000A4FB0034640A4FF4077505FB140503E0AC
:101840000848FFF7D3FF013C002CF9D105B938BD9A
:101850004FF47A7005FB00F0FFF7C8FFF7E700BF11
:1018600049D6B9F2603D0800002304E0C218002107
:10187000D17001339BB2202BF8D9552383700023FC
:10188000037043707047000010B5074C2046FFF707
:10189000EBFF06480268D36843F01003D3602122AF
:1018A000E11C02F0BFFE10BDE0090020E80B0020A3
:1018B00038B5444B5B78202B40F28280414B0122AB
:1018C0001A70002417E0404B33F91500FFF778F940
:1018D0004FF06051FFF7C8F94FF08341FFF7C4F9AB
:1018E00005F10C02374B43F822000135EDB2022D11
:1018F000E9D90134E4B2032C62D804EB840304EB8D
:101900004303304AD118C9789278914258D1591C72
:101910002C4A0A44D278522A0ED0532A2ED0512A69
:10192000E7D10233274A1344274AD3F80300D3F8F8
:10193000071003C20025DAE70233224A1344234A80
:10194000D3F80300D3F8071003C2002513E01F4BA0
:1019500033F91500FFF734F94FF06051FFF784F9C0
:101960001B49FFF781F905F10E02164B03EB8203C9
:1019700058600135EDB2022DE9D9BAE70233114AB8
:101980001344144AD3F80300D3F8071003C2002508
:1019900013E0104B33F91500FFF712F94FF06051C7
:1019A000FFF762F90C49FFF75FF905F10802054BF3
:1019B00003EB820358600135EDB2022DE9D998E7B7
:1019C00038BD00BFE0090020480A0020580A002066
:1019D0000000FA44500A00200000344338B5344B6C
:1019E0001B78012B00D038BD324B1B78012B26D041
:1019F0002F4BDC6A304B1C60304B19682046FFF7D8
:101A000029F805462E49FFF7EBFA002842D02D4968
:101A10002046FFF71FF8284B1860274C2068274BFB
:101A20001860FEF731FD284BD3E90023FEF7CEFB0B
:101A3000FEF7BCFF20601E4B00221A70D3E7234A3A
:101A400013781B49C86A224941F823000133DBB2ED
:101A50001370052BC7D10024002005E01C4B53F860
:101A60002410FEF7F9FF0134042CF7DD1949FFF7C4
:101A7000AFF9124A1060184A1060FEF705FD0246E1
:101A80000B46164804F05CFB00230A4A13700F4A09
:101A90001370A8E70A492846FFF784FA0028BCD04B
:101AA00008492046FEF7D8FF034B1860B5E700BF92
:101AB000E009002000000020440A0020400A002025
:101AC000000034430000B443E00E00203C0A002034
:101AD000280A00200000A040DC09002018C30008EC
:101AE00008B5054B1860054B1868002302221946FB
:101AF000806804F08FFB08BD600A00202C000020E5
:101B0000022801D80120704708B504F09DFA092386
:101B10000360002008BD000010B5013801280AD874
:101B200014464FF0FF3392B20748006802F091F973
:101B300040B9204610BD04F087FA092303604FF036
:101B4000FF30F7E70520F5E7600A0020022801D8FA
:101B50000020704708B504F077FA092303604FF0BE
:101B6000FF3008BD08B504F06FFA092303604FF099
:101B7000FF3008BD08B548B94FF0FF3301220848CF
:101B8000006802F0CCF940B9012008BD04F05CFA0D
:101B9000092303604FF0FF30F7E70520F5E700BFAA
:101BA000600A002008B5022804D84FF400534B60A7
:101BB000002008BD04F048FA09230360F8E700009C
:101BC00000B583B000210191094B1A6B42F4001259
:101BD0001A631B6B03F400130193019B0A460C204C
:101BE00000F0C8FC0C2000F0FDFC03B05DF804FB25
:101BF0000038024030B58DB0002407940894099451
:101C00000A940B940194284B1A6B42F020021A6339
:101C10001A6B02F020020192019A02941A6B42F0B0
:101C200080021A631A6B02F080020292029A0394F5
:101C30001A6B42F001021A631A6B02F0010203925E
:101C4000039A04941A6B42F002021A631A6B02F0B0
:101C500002020492049A05941A6B42F004021A6379
:101C60001A6B02F004020592059A06941A6B42F070
:101C700008021A631B6B03F008030693069B0B4DC7
:101C800001224FF4C061284601F034F84FF4C063DC
:101C900007930123089309940A9407A9284600F0A2
:101CA00037FF0DB030BD00BF0038024000140240C5
:101CB00072B6FEE700B595B03022002108A804F006
:101CC000EDF900230393049305930693079301937F
:101CD000214A116C41F080511164126C02F0805263
:101CE0000192019A02931D4B1A6842F480421A60D5
:101CF0001B6803F480430293029B012308934FF473
:101D00008033099302230E934FF480020F9208222E
:101D100010924FF4A872119212930423139308A8FF
:101D200000F0F8FF98B90F230393022304930023D4
:101D300005934FF4A05306934FF480530793052166
:101D400003A801F04DFA20B915B05DF804FBFFF7C8
:101D5000AFFFFFF7ADFF00BF00380240007000404A
:101D600010B51F48FFF7BCFE00F0C6FBFFF7A2FF4F
:101D7000FFF740FFFFF724FF00F04EFA00F066FA8D
:101D800000F0D4F900F0FCF800F022F900F078FA45
:101D9000FFF70EFD134804F035FA134C606AFEF7A6
:101DA00073FB02460B46114804F0CAF9A06AFEF71D
:101DB0006BFB02460B460E4804F0C2F9E06AFEF7E0
:101DC00063FB02460B460B4804F0BAF902F03EFCF6
:101DD000FFF704FE4FF4FA70FFF728FDDDE700BFC0
:101DE000300C00203CC30008E009002048C3000874
:101DF00054C3000860C3000882B0002100910B4B5F
:101E00005A6C42F480425A645A6C02F48042009246
:101E1000009A01911A6C42F080521A641B6C03F014
:101E200080530193019B02B0704700BF003802400D
:101E3000FEE7FEE7FEE7FEE7FEE770477047704704
:101E400008B500F073FB08BD08B5024800F072FD4C
:101E500008BD00BF400B002008B5024802F0C2F9DF
:101E600008BD00BFA00B002010B582B0154B1B6849
:101E70001A6812F0100F0AD1124C21221249204682
:101E800002F0D0FB204602F0ADF902B010BD0022F6
:101E900001921A6801925A680192019A1A685B6865
:101EA000084802F0A5F8094B1B685B68C3F12103E1
:101EB000074A5370FFF7FCFC4FF40071054800F02F
:101EC0001FFFD9E7E80B0020E3090020400B0020AA
:101ED000E00900200014024008B5024801F061FB4F
:101EE00008BD00BFB00A002008B50268064B9A4240
:101EF00005D001220549064802F02FFB08BD034B1F
:101F0000187802F095FEF4E700100140920E0020D0
:101F1000A00B00200120704708B504F095F81623A7
:101F200003604FF0FF3008BD08B54FF0FF31FFF7F9
:101F3000F3FFFEE710B503460C4A0D490D48006853
:101F400040B10C4800680344521A934206D8094A2B
:101F5000136010BD0748084C0460F2E704F074F801
:101F60000C2303604FF0FF30F3E700BF00000220B6
:101F700000040000640A0020380F002070470000B1
:101F800000B583B00023009301930F480F4A02600D
:101F900042F2CF02426083606323C3608023836187
:101FA00001F01AFC50B900230093019369460648DA
:101FB00001F09CFD28B903B05DF804FBFFF778FE43
:101FC000F1E7FFF775FEF6E7B00A002000100040C9
:101FD00000B583B00023009301930F480F4A0260BD
:101FE00042F2CF02426083606323C3608023836137
:101FF00001F0F2FB50B900230093019369460648B3
:1020000001F074FD28B903B05DF804FBFFF750FE42
:10201000F1E7FFF74DFEF6E7F80A00200014004054
:1020200000B585B003681D4A934208D01C4A93420C
:1020300012D01C4A934223D005B05DF804FB002364
:102040000193194B1A6C42F002021A641B6C03F0E4
:1020500002030193019BEFE700210291124B1A6CDE
:1020600042F010021A641B6C03F010030293029BEF
:102070000A46362000F07EFA362000F0B3FADBE79D
:1020800000230393084B1A6C42F020021A641B6C65
:1020900003F020030393039BCEE700BF000400403E
:1020A00000100040001400400038024030B589B0F4
:1020B0000023039304930593069307930268184B38
:1020C0009A4201D009B030BD0025019503F50D33CA
:1020D0001A6B42F001021A631A6B02F001020192BC
:1020E000019A02951A6B42F002021A631B6B03F00D
:1020F00002030293029BC0230393022404940794D7
:1021000003A9084800F004FD0323039304940595F4
:102110000695079403A9044800F0FAFCD2E700BF33
:1021200000040040000002400004024000B58FB0EF
:1021300000230A930B930C930D9308930993019337
:102140000293039304930593069307933048314A0F
:10215000026053224260836044F61F62C2600361E2
:102160008023836101F038FB002839D14FF480537C
:102170000A930AA9264801F039FC002833D12448E3
:1021800001F056FB002831D100230893099308A9D8
:102190001F4801F0ABFC60BB602301930022029258
:1021A0000392059201A91A4801F0A6FB20BB042264
:1021B0000DEB0201164801F09FFB00BB082201A9AC
:1021C000134801F099FBE8B90C2201A9104801F06D
:1021D00093FBD0B90E48FFF769FF0FB05DF804FB21
:1021E000FFF766FDC2E7FFF763FDC8E7FFF760FD95
:1021F000CAE7FFF75DFDCFE7FFF75AFDD7E7FFF727
:1022000057FDDBE7FFF754FDDEE7FFF751FDE1E7A0
:10221000680A00200004004008B50A480A4B036021
:102220004FF4E133436000238360C36003610C22F9
:1022300042618361C36101F0DCFD00B908BDFFF7B5
:1022400037FDFBE7300C00200050004008B50A487D
:102250000A4B03604FF4E133436000238360C360A3
:1022600003610C2242618361C36101F0C2FD00B9C8
:1022700008BDFFF71DFDFBE7A00B0020001001408B
:1022800008B50A480A4B03604FF4E133436000236A
:102290008360C36003610C2242618361C36101F00A
:1022A000A8FD00B908BDFFF703FDFBE7E80B002020
:1022B00000480040F0B58DB00023079308930993C0
:1022C0000A930B9303685A4A934208D00446594A2A
:1022D00093423CD0584A934265D00DB0F0BD0024E3
:1022E0000094564B1A6C42F480121A641A6C02F471
:1022F00080120092009A01941A6B42F004021A6351
:102300001A6B02F004020192019A02941A6B42F0D5
:1023100008021A631B6B03F008030293029B4FF43D
:10232000805307930227089703260A9608250B95E2
:1023300007A9434800F0ECFB04230793089709948E
:102340000A960B9507A93F4800F0E2FBC5E7002479
:1023500003943A4B5A6C42F010025A645A6C02F0E1
:1023600010020392039A04941A6B42F001021A635A
:102370001B6B03F001030493049B4FF4C0630793AA
:102380000223089303230A9307230B9307A92E48DC
:1023900000F0BEFB22462146252000F0EBF8252068
:1023A00000F020F999E700250595244B1A6C42F4BA
:1023B00080221A641A6C02F480220592059A06950E
:1023C0001A6B42F002021A631B6B03F002030693BE
:1023D000069B4FF4406307930223089303230A9359
:1023E00007230B9307A9194800F092FB1848194BD3
:1023F00003604FF0006343608560C5604FF4806305
:10240000036145618561C5610562456200F09AF925
:1024100058B90F4BE3639C6300221146272000F05C
:10242000A9F8272000F0DEF857E7FFF741FCF0E7B6
:1024300000500040001001400048004000380240B9
:1024400000080240000C024000000240000402406C
:10245000400B002028600240DFF834D0FFF78EFDEB
:102460000C480D490D4A002302E0D458C4500433EF
:10247000C4188C42F9D30A4A0A4C002301E01360C5
:102480000432A242FBD303F0E5FDFFF769FC70477D
:102490000000022000000020D409002038C80008F5
:1024A000D8090020340F0020FEE7000010B50446D4
:1024B0000E4B18784FF47A73B3FBF0F30C4A1068A4
:1024C000B0FBF3F000F09CF868B90F2C01D90120A3
:1024D0000AE0002221464FF0FF3000F04BF8054B98
:1024E0001C60002000E0012010BD00BF080000209B
:1024F000040000200C00002008B50B4B1A6842F4C1
:1025000000721A601A6842F480621A601A6842F413
:1025100080721A60032000F01BF80F20FFF7C6FF3F
:10252000FFF76AFC002008BD003C0240034A116826
:10253000034B1B780B441360704700BF780C0020DE
:1025400008000020014B1868704700BF780C00207D
:10255000074AD36823F4E0631B041B0C000200F459
:10256000E060034343F0BF6343F40033D36070473C
:1025700000ED00E000B5194BDB68C3F30223C3F1A3
:10258000070CBCF1040F28BF4FF0040C03F1040E3C
:10259000BEF1060F18D9033B4FF0FF3E0EFA0CFCBC
:1025A00021EA0C0199400EFA03F322EA03031943CE
:1025B00000280BDB0901C9B200F1604000F5614061
:1025C00080F800135DF804FB0023E5E700F00F003E
:1025D0000901C9B2024B1954F4E700BF00ED00E055
:1025E00014ED00E0002807DB00F01F024009012382
:1025F0009340024A42F82030704700BF00E100E0FB
:102600000138B0F1807F0BD24FF0E0235861054ACA
:10261000F02182F823100020986107221A61704788
:102620000120704700ED00E0042806D04FF0E022C2
:10263000136923F00403136170474FF0E02213691C
:1026400043F004031361704730B405682C6824F428
:1026500080242C60046863608368402B05D0036885
:1026600099600368DA6030BC704703689A60036859
:10267000D960F8E710B40368D9B210390B4AA2FB4D
:10268000014212090A4CA25CC2655F2908D923F4F1
:102690007F7323F0030304338365806D10BC7047A0
:1026A00023F47F7323F003038365F6E7ABAAAAAA9A
:1026B00088C30008836A826992B9012B0AD0022B71
:1026C00002D00BB100207047C36A13F0807F28D17D
:1026D00000207047C36AB3F1C07F24D00020704748
:1026E000B2F5005F09D0022B25D9032B25D1C36A8F
:1026F00013F0807F23D100207047032B03D8DFE83D
:1027000003F01404140A00207047C36A13F0807F9A
:102710000DD100207047C36AB3F1C07F09D00020FB
:102720007047012070470120704701207047012049
:10273000704701207047012070470020704701203A
:102740007047000070B50446FFF7FCFE002C5BD01C
:102750000546022384F83530002384F8343022689B
:10276000136823F00103136023681A6812F0010F45
:102770000AD0FFF7E7FE431B052BF5D9202363653D
:10278000032084F8350070BD1A6820481040616845
:10279000A2680A43E1680A4321690A4361690A435E
:1027A000A1690A43E1690A43216A0A430243616A53
:1027B00004291ED01A602668756925F00705636A2A
:1027C0001D43042B07D1A36A1D43E36A1BB12046B6
:1027D000FFF770FF90B975612046FFF74BFFE26D80
:1027E0003F239340836000206065012384F83530E7
:1027F000C9E7E16A206B01430A43DBE740236365D5
:10280000012084F83500BEE70120BCE73F8010F0CE
:1028100038B50446856D90F8340001282BD001208E
:1028200084F8340094F83500C0B2012804D00023A5
:1028300084F83430022038BD022084F835000020AE
:1028400060652046FFF700FFE26D3F239340AB60D9
:102850002268136843F016031360236C23B12268C7
:10286000136843F0080313602268136843F0010300
:1028700013600020DFE70220DDE770B50446866DB7
:10288000FFF760FE94F83530DBB2022B06D08023D0
:102890006365002384F83430012070BD054622684A
:1028A000136823F0160313602268536923F0800332
:1028B0005361236CE3B12268136823F008031360AB
:1028C0002268136823F00103136023681B6813F068
:1028D000010F11D0FFF736FE431B052BF5D920233E
:1028E0006365032084F83500002384F83430D4E78E
:1028F000A36C002BDFD1E3E7E26D3F239340B3608D
:10290000012384F83530002084F83400C5E790F8BE
:102910003530DBB2022B03D08023436501207047A2
:10292000052380F835300268136823F00103136033
:1029300000207047F0B583B0044600230193724B2A
:102940001D68724BA3FB0535AD0A876D3E68C26DED
:1029500008239340334210D003681A6812F0040F22
:102960000BD01A6822F004021A60C26D082393404B
:10297000BB60436D43F001034365E26D0123934067
:10298000334209D02268526912F0800F04D0BB6034
:10299000636D43F002036365E26D042393403342A9
:1029A00009D02268126812F0020F04D0BB60636D78
:1029B00043F004036365E26D10239340334224D057
:1029C0002268126812F0080F1FD0BB6023681A68D3
:1029D00012F4802F0DD01B6813F4002F04D1236C48
:1029E0009BB12046984710E0A36C73B120469847EE
:1029F0000BE01A6812F4807F03D11A6822F00802F3
:102A00001A60236C0BB120469847E26D2023934057
:102A1000334255D02268126812F0100F50D0BB60BC
:102A200094F83530DBB2052B0ED023681A6812F407
:102A3000802F33D01B6813F4002F2AD1636C002B36
:102A40003ED0204698473BE02268136823F01603E7
:102A500013602268536923F080035361236CA3B190
:102A60002268136823F008031360E26D3F2393404C
:102A7000BB60012384F83530002384F83430236DA3
:102A8000002B3FD0204698473CE0A36C002BE7D1B9
:102A9000EBE7E36BA3B12046984711E01A6812F404
:102AA000807F09D11A6822F010021A60012384F88D
:102AB0003530002384F83430E36B0BB1204698475F
:102AC000636DFBB1636D13F0010F17D0052384F81C
:102AD00035302268136823F001031360019B013332
:102AE0000193AB4204D823681B6813F0010FF5D1A2
:102AF000012384F83530002384F83430E36C0BB1C3
:102B00002046984703B0F0BD04000020B5814E1B5D
:102B100000230F2B00F2E48070B582B060E085687E
:102B20005E000324B44025EA0405CC68B4402C437D
:102B30008460456825EA02054C68C4F300129A4097
:102B40002A4342605AE0DC08083450F8246003F05D
:102B5000070295000F22AA4026EA020E0A69AA403F
:102B600042EA0E0240F824205CE0072200E0002246
:102B700002FA0EF22A4302345A4D45F824205A4AEA
:102B800094686FEA0C0224EA0C054E6816F4801F64
:102B900001D04CEA0405544CA560E46802EA04053F
:102BA0004E6816F4001F01D04CEA04054E4CE56057
:102BB000646802EA04054E6816F4003F01D04CEA4E
:102BC0000405494C6560246822404D6815F4803F37
:102BD00001D04CEA0402444C226001330F2B7DD813
:102BE00001229A400C6804EA020C32EA0404F4D18F
:102BF0004C6804F00304013C012C90D94A6802F0AF
:102C00000302032A09D0C4685D000322AA4024EA13
:102C100002048A68AA402243C2604A6802F00302A2
:102C2000022A90D004684FEA430E032202FA0EF201
:102C300024EA02044A6802F0030202FA0EF2224376
:102C400002604A6812F4403FC7D000220192274A2E
:102C5000546C44F480445464526C02F480420192F7
:102C6000019A9C08A51C1F4A52F8255003F0030244
:102C70004FEA820E0F2202FA0EF225EA02051C4AE2
:102C800090423FF474AF02F5806290421AD002F590
:102C90008062904218D002F58062904216D002F510
:102CA0008062904214D002F58062904212D002F508
:102CB0008062904210D002F5806290423FF455AF9E
:102CC000082255E7012253E7022251E703224FE78A
:102CD00004224DE705224BE7062249E702B070BD0A
:102CE000704700BF00380140003C014000380240FE
:102CF000000002400AB18161704709048161704798
:102D0000436901EA030221EA030141EA02418161C8
:102D100070470000002800F0E08170B582B00446E2
:102D2000036813F0010F3BD09F4B9B6803F00C032B
:102D3000042B2CD09C4B9B6803F00C03082B21D058
:102D40006368B3F5803F4FD0B3F5A02F52D0964BB8
:102D50001A6822F480321A601A6822F480221A60FB
:102D60006368002B50D0FFF7EDFB05468E4B1B68C8
:102D700013F4003F14D1FFF7E5FB401B6428F5D99D
:102D80000320B1E1884B5B6813F4800FD8D0864BE9
:102D90001B6813F4003F03D06368002B00F09F8191
:102DA000236813F0020F54D07F4B9B6813F00C0F75
:102DB0003ED07D4B9B6803F00C03082B33D0E368B7
:102DC000002B68D0794B01221A60FFF7BBFB054648
:102DD000754B1B6813F0020F54D1FFF7B3FB401B78
:102DE0000228F5D903207FE16F4A136843F480334A
:102DF0001360B5E76C4B1A6842F480221A601A68B7
:102E000042F480321A60ABE7FFF79CFB0546664B45
:102E10001B6813F4003FC3D0FFF794FB401B6428EA
:102E2000F5D9032060E1604B5B6813F4800FC6D1D5
:102E30005D4B1B6813F0020F03D0E368012B40F0D9
:102E40005081594A136823F0F803216943EAC1030A
:102E50001360236813F0080F42D063696BB3534BC0
:102E60000122C3F8802EFFF76DFB05464E4B5B6FCA
:102E700013F0020F34D1FFF765FB401B0228F5D990
:102E8000032031E1484A136823F0F803216943EA3B
:102E9000C1031360DDE7454B00221A60FFF752FBC8
:102EA0000546414B1B6813F0020FD2D0FFF74AFBD7
:102EB000401B0228F5D9032016E13C4B0022C3F841
:102EC000802EFFF73FFB0546374B5B6F13F0020F79
:102ED00006D0FFF737FB401B0228F5D9032003E19A
:102EE000236813F0040F77D02F4B1B6C13F0805F17
:102EF00033D1002301932C4B1A6C42F080521A6498
:102F00001B6C03F080530193019B0125284B1B6828
:102F100013F4807F23D0A368012B34D0052B38D045
:102F2000214B1A6F22F001021A671A6F22F0040275
:102F30001A67A368002B3DD0FFF704FB06461A4B27
:102F40001B6F13F0020F46D1FFF7FCFA801B41F212
:102F500088339842F3D90320C6E00025D6E7144A07
:102F6000136843F480731360FFF7ECFA0646104BC6
:102F70001B6813F4807FCED1FFF7E4FA801B022890
:102F8000F5D90320B0E0084A136F43F0010313673B
:102F9000CFE7054B1A6F42F004021A671A6F42F02E
:102FA00001021A67C5E700BF00380240000047422F
:102FB00000700040FFF7C6FA0646524B1B6F13F035
:102FC000020F08D0FFF7BEFA801B41F28833984207
:102FD000F3D9032088E0EDB9A369002B00F08380CA
:102FE000484A926802F00C02082A51D0022B17D0EE
:102FF000454B00221A66FFF7A5FA0446414B1B68B1
:1030000013F0007F42D0FFF79DFA001B0228F5D98C
:10301000032069E03B4A136C23F080531364DBE721
:10302000394B00221A66FFF78DFA0546354B1B68AF
:1030300013F0007F06D0FFF785FA401B0228F5D970
:10304000032051E0E369226A1343626A43EA821370
:10305000A26A5208013A43EA0243E26A43EA02637F
:10306000284A5360284B01221A66FFF76BFA044680
:10307000244B1B6813F0007F06D1FFF763FA001B97
:103080000228F5D903202FE000202DE000202BE0BE
:10309000012B2BD01B4B5B6803F48001E26991424A
:1030A00026D103F03F02216A8A4223D1616A47F6A2
:1030B000C0721A40B2EB811F1ED103F44031A26AE4
:1030C0005208013AB1EB024F18D103F07063E26A83
:1030D000B3EB026F14D1002006E0012070470120FD
:1030E00002E0012000E0002002B070BD0120FBE7FB
:1030F0000120F9E70120F7E70120F5E70120F3E7D8
:103100000120F1E7003802400000474208B5314B8A
:103110009B6803F00C03042B57D0082B57D12D4B81
:103120005A6802F03F025B6813F4800F2AD0294BE3
:103130005968C1F3881C4FEA4C11B1EB0C006EEBDF
:103140000E0E4FEA8E1343EA90638101091A63EB76
:103150000E03DB0043EA5173C90011EB0C0C43F181
:103160000003590200234FEA4C2041EADC51FDF7ED
:1031700087FF184B5B68C3F3014301335B00B0FB6F
:10318000F3F025E0134B5968C1F3881C4FEA4C114A
:10319000B1EB0C006EEB0E0E4FEA8E1343EA906318
:1031A0008101091A63EB0E03DB0043EA5173C90086
:1031B00011EB0C0C43F10003990200234FEA8C2021
:1031C00041EA9C51FDF75CFFD3E7034800E0034868
:1031D00008BD00BF0038024000127A000024F4004D
:1031E000002800F09B8070B50D4604464F4B1B68CD
:1031F00003F007038B4208D2CBB24C4A137013681A
:1032000003F007038B4240F08B80236813F0020F1A
:1032100017D013F0040F04D0454A936843F4E053E9
:103220009360236813F0080F04D0414A936843F475
:10323000604393603E4A936823F0F003A1680B4318
:103240009360236813F0010F32D06368012B21D003
:103250009A1E012A25D9364A126812F0020F61D04F
:1032600033498A6822F0030213438B60FFF76AF93F
:1032700006462F4B9B6803F00C036268B3EB820F8A
:1032800016D0FFF75FF9801B41F288339842F0D9DE
:10329000032042E0264A126812F4003FE0D10120E8
:1032A0003BE0234A126812F0007FD9D1012034E0BC
:1032B0001E4B1B6803F00703AB4207D9EAB21B4B56
:1032C0001A701B6803F00703AB422DD1236813F07B
:1032D000040F06D0164A936823F4E053E1680B43C9
:1032E0009360236813F0080F07D0114A936823F402
:1032F0006043216943EAC1039360FFF707FF0C4B6A
:103300009B68C3F303130B4AD35CD8400A4B186085
:103310000A4B1868FFF7CAF8002070BD01207047FB
:103320000120FAE70120F8E70120F6E7003C02401F
:103330000038024070C30008040000200C00002088
:10334000014B1868704700BF0400002008B5FFF764
:10335000F7FF044B9B68C3F38223034AD35CD84036
:1033600008BD00BF0038024080C3000808B5FFF761
:10337000E7FF044B9B68C3F34233034AD35CD84056
:1033800008BD00BF0038024080C3000830B4036AA3
:10339000026A22F0010202624268846924F0730426
:1033A0000D682C4323F0020C8B6843EA0C03104D8C
:1033B000A84203D005F58065A84205D123F0080393
:1033C000CD682B4323F00403094DA84203D005F533
:1033D0008065A84205D122F440724D692A438D6967
:1033E0002A43426084614A684263036230BC70478A
:1033F0000000014030B4036A026A22F48072026263
:103400004268C46924F0730C0C6844EA0C0523F488
:1034100000738C6843EA0423114CA04203D004F5E6
:103420008064A04206D123F40063CC6843EA0423FD
:1034300023F480630A4CA04203D004F58064A042C8
:1034400007D122F440524C6942EA04128C6942EAE4
:1034500004124260C5614A68C263036230BC7047AF
:103460000000014030B4036A026A22F48052026212
:103470004468C26922F4E6420D6842EA052223F458
:1034800000538D6843EA0533094DA84203D005F582
:103490008065A84204D124F480444D6944EA85142F
:1034A0004460C2614A680264036230BC704700BF76
:1034B0000000014010B4036A046A24F001040462AD
:1034C000846924F0F00C4CEA021223F00A030B4347
:1034D0008261036210BC704710B4036A046A24F06E
:1034E00010040462846924F4704C4CEA023223F024
:1034F000A00343EA01138261036210BC7047836832
:1035000023F070030B4343F0070383607047000010
:1035100090F83D30DBB2012B37D1022380F83D30EB
:103520000268D36843F00103D3600368194A9342E9
:1035300020D0B3F1804F1DD0A2F57C42934219D028
:1035400002F58062934215D002F58062934211D059
:1035500002F5784293420DD002F57052934209D0A1
:10356000A2F59432934205D01A6842F001021A6023
:10357000002070479A6802F00702062A07D01A68EE
:1035800042F001021A6000207047012070470020BD
:10359000704700BF00000140704770477047704798
:1035A000704770B504460368DE681D6915F0020FA8
:1035B00010D016F0020F0DD06FF002021A61012335
:1035C000037703689B6913F0030F5ED0FFF7E6FFF4
:1035D0000023237715F0040F12D016F0040F0FD03C
:1035E00023686FF004021A610223237723689B6922
:1035F00013F4407F4FD02046FFF7D0FF00232377FE
:1036000015F0080F12D016F0080F0FD023686FF0D6
:1036100008021A61042323772368DB6913F0030F80
:1036200040D02046FFF7BAFF0023237715F0100F94
:1036300012D016F0100F0FD023686FF010021A612D
:10364000082323772368DB6913F4407F31D02046B9
:10365000FFF7A4FF0023237715F0010F02D016F027
:10366000010F2DD115F0800F02D016F0800F2FD151
:1036700015F0400F02D016F0400F31D115F0200F99
:1036800002D016F0200F33D170BDFFF786FF204621
:10369000FFF785FF9CE72046FFF77FFF2046FFF7F7
:1036A0007EFFABE72046FFF778FF2046FFF777FF66
:1036B000BAE72046FFF771FF2046FFF770FFC9E722
:1036C00023686FF001021A61204602F005F8C9E78D
:1036D00023686FF080021A61204600F04EFAC7E7B7
:1036E00023686FF040021A612046FFF759FFC5E7D3
:1036F00023686FF020021A61204600F03DFAC3E70C
:103700000368344A904212D0B0F1804F0FD0A2F536
:103710007C4290420BD002F58062904207D002F5C5
:103720008062904203D002F57842904203D123F0A8
:1037300070034A681343274A90422AD0B0F1804F61
:1037400027D0A2F57C42904223D002F580629042BD
:103750001FD002F5806290421BD002F57842904261
:1037600017D002F57052904213D002F58062904259
:103770000FD002F5806290420BD0A2F598329042B1
:1037800007D002F58062904203D002F58062904239
:1037900003D123F44073CA68134323F080034A69BA
:1037A000134303608B68C3620B688362094B9842C2
:1037B00003D003F58063984201D10B6903630123B1
:1037C0004361036913F0010F03D0036923F0010380
:1037D000036170470000014040B310B5044690F803
:1037E0003D30F3B1022384F83D30214651F8040BFB
:1037F000FFF786FF012384F8463084F83E3084F8D2
:103800003F3084F8403084F8413084F8423084F806
:10381000433084F8443084F8453084F83D3000204B
:1038200010BD80F83C30FEF7FBFBDBE70120704762
:1038300040B310B5044690F83D30F3B1022384F84C
:103840003D30214651F8040BFFF75AFF012384F85D
:10385000463084F83E3084F83F3084F8403084F8B5
:10386000413084F8423084F8433084F8443084F89E
:10387000453084F83D30002010BD80F83C30FFF723
:103880008BFEDBE70120704730B4036A026A22F046
:10389000100202624468826922F4E6420D6842EA3C
:1038A000052223F020038D6843EA0513114DA84239
:1038B00003D005F58065A84206D123F08003CD68CA
:1038C00043EA051323F040030A4DA84203D005F54F
:1038D0008065A84207D124F440644D6944EA850418
:1038E0008D6944EA8504446082614A6882630362A8
:1038F00030BC70470000014038B590F83C30012BD7
:1039000066D004460D46012380F83C300C2A5AD874
:10391000DFE802F0075959591B595959305959597B
:1039200044000068FFF732FD2268936943F0080302
:1039300093612268936923F0040393612268936979
:1039400029690B43936100203EE00068FFF79CFF6C
:103950002268936943F4006393612268936923F4B6
:103960008063936122689369296943EA0123936123
:10397000002029E00068FFF73DFD2268D36943F08D
:103980000803D3612268D36923F00403D36122685A
:10399000D36929690B43D361002015E00068FFF764
:1039A00061FD2268D36943F40063D3612268D3695F
:1039B00023F48063D3612268D369296943EA012330
:1039C000D361002000E00120002384F83C3038BDA2
:1039D0000220FCE710B4846824F47F4C42EA0322FE
:1039E0000A4342EA0C02826010BC704790F83C30F7
:1039F000012B78D010B50446012380F83C30022317
:103A000080F83D300268936823F47F4323F0770306
:103A100093600B68602B4CD029D8402B54D00CD924
:103A2000502B22D1CA6849680068FFF743FD502136
:103A30002068FFF764FD002005E0202B0DD009D998
:103A4000302B0AD00120012384F83D30002384F874
:103A50003C3010BD0BB1102B05D119462068FFF783
:103A60004EFD0020EFE70120EDE70120EBE7B3F585
:103A7000805F34D0B3F5005F0CD1CB684A688968A9
:103A80000068FFF7A7FF2268936843F480439360C0
:103A90000020D8E7702B24D1CB684A688968006879
:103AA000FFF798FF2268936843F077039360002044
:103AB000C9E7CA6849680068FFF70EFD6021206801
:103AC000FFF71DFD0020BEE7CA6849680068FFF7E0
:103AD000F1FC40212068FFF712FD0020B3E7002031
:103AE000B1E70120AFE702207047000090F83C30BA
:103AF000012B3CD010B4012380F83C30022380F825
:103B00003D3003685A689C6822F0700C0A6842EAEB
:103B10000C025A600368174A93421AD0B3F1804FDF
:103B200017D0A2F57C42934213D002F580629342F3
:103B30000FD002F5806293420BD002F57842934297
:103B400007D002F57052934203D0A2F5943293420B
:103B500004D124F080044A6814439C60012380F857
:103B60003D30002380F83C30184610BC70470220DE
:103B7000704700BF0000014070477047026802F1C3
:103B80000C0353E8003F23F0C0030C3242E800313D
:103B90000029F3D1202380F841307047026802F1F8
:103BA0000C0353E8003F23F490730C3242E80031D9
:103BB0000029F3D1026802F1140353E8003F23F017
:103BC0000103143242E800310029F3D1036B012BC9
:103BD00005D0202380F84230002303637047026839
:103BE00002F10C0353E8003F23F010030C3242E8CB
:103BF00000310029F3D1ECE790F84130DBB2212B02
:103C000001D0022070478368B3F5805F17D0036A44
:103C10005A1C02621A7803685A60C38C9BB2013B3B
:103C20009BB2C3844BB90268D36823F08003D3608E
:103C30000268D36843F04003D360002070470369F3
:103C4000002BE4D1036A1B880268C3F308035360A6
:103C5000036A02330362E0E738B504460268136979
:103C600023F44053C1680B43136183680269134313
:103C700042691343C2691A430168CB6823F41643AF
:103C800023F00C031343CB600268536923F44073A1
:103C900081690B4353610368314A934206D002F5B0
:103CA0008062934202D0FFF751FB01E0FFF75EFB19
:103CB000E369B3F5004F29D00021031849411B18CF
:103CC00041F10001C90041EA5371DB001818636833
:103CD0004FEA83024FEA937341F10001FDF7D0F9F7
:103CE000204DA5FB00325109642303FB11031B0186
:103CF0003233A5FB03235B0903F0F00202EB011250
:103D000003F00F03216813448B6038BD00230218B1
:103D100043EB0301121841F10001C90041EA52715D
:103D2000D200101841F10001626892185B41FDF762
:103D3000A7F90C4DA5FB00325109642303FB1103C5
:103D4000DB003233A5FB03235B095A0002F4F8724F
:103D500002EB011203F00703216813448B60D4E7E0
:103D6000001001401F85EB512DE9F04383B005465B
:103D70000E4617469946DDF828802C68246836EAF6
:103D800004030CBF4FF0010C4FF0000CBC4528D1D0
:103D9000B8F1FF3FF1D0FEF7D5FBA0EB090040459D
:103DA00023D8B8F1000F22D02B68DA6812F0040F84
:103DB000E3D0802EE1D0402EDFD01A6812F0080F39
:103DC000DBD0002401941A6801925B680193019B87
:103DD0002846FFF7E3FE08236B6485F84040012086
:103DE00000E0002003B0BDE8F0830320FAE70320E1
:103DF000F8E760B310B5044690F8413013B32423BC
:103E000084F841302268D36823F40053D3602046FD
:103E1000FFF722FF2268136923F49043136122689D
:103E2000536923F02A0353612268D36843F4005393
:103E3000D36000206064202384F8413084F842304D
:103E4000606310BD80F84030FEF734FAD7E70120F8
:103E500070472DE9F04182B01E4690F84130DBB248
:103E6000202B56D104460D469046002955D00AB95C
:103E700001204FE000234364212380F84130FEF706
:103E800061FB0746A4F82480A4F82680A368B3F554
:103E9000805F02D04FF0000814E023692BB34FF08D
:103EA00000080FE0202384F84130032032E038F886
:103EB000023B2268C3F308035360E28C92B2013ADA
:103EC00092B2E284E38C9BB293B100963B4600220F
:103ED00080212046FFF748FF0028E3D1002DE6D0DF
:103EE00015F8012B23685A60E7E7A8460025E9E7A3
:103EF00000963B46002240212046FFF735FF18B9C7
:103F0000202384F8413005E0202384F84130032049
:103F100000E0022002B0BDE8F0810120FAE72DE9BF
:103F2000F04182B01E4690F84230DBB2202B59D1CE
:103F300004460D469046002958D00AB9012052E0A7
:103F400000234364222280F842200363FEF7FAFA3A
:103F50000746A4F82C80A4F82E80A368B3F5805FF0
:103F600002D04FF000081CE0236913B14FF00008A5
:103F700017E0A846002514E0202384F842300320EF
:103F800031E023685B68C3F3080328F8023B03E0D1
:103F900023685B682B700135E28D92B2013A92B2D0
:103FA000E285E38D9BB2C3B100963B4600222021FF
:103FB0002046FFF7D9FE0028DED1002DE1D0A3680E
:103FC000B3F5805FE4D013B92369002BE0D02368F8
:103FD0005B6803F07F032B70DDE7202384F8423019
:103FE000002000E0022002B0BDE8F0810120FAE7E5
:103FF00010B5044603685A6990F84130DBB2212BB2
:104000000AD023685A6902F0400294F84230DBB2C9
:10401000222B19D0002010BD02F08002002AF0D01F
:10402000226802F1140353E8003F23F080031432A6
:1040300042E800310029F3D1A06B08B1FEF71DFC66
:104040002046FFF79BFDDCE7002AE3D0226802F15F
:10405000140353E8003F23F04003143242E80031D8
:104060000029F3D1E06B08B1FEF707FC2046FFF70B
:1040700095FDCFE7704708B50168CA6822F0400295
:10408000CA60202280F84120FFF7F4FF002008BD1D
:104090007047704710B5846B23685A6994F84130B3
:1040A000DBB2212B10D023685A6902F0400294F849
:1040B0004230DBB2222B11D0636C43F010036364F7
:1040C0002046FFF7E6FF10BD02F08002002AEAD08A
:1040D0000023E3842046FFF751FDE4E7002AEBD0FC
:1040E0000023E3852046FFF759FDE5E708B5806B1F
:1040F0000023C385C384FFF7CCFF08BD704790F849
:104100004230DBB2222B69D18368B3F5805F4FD098
:10411000826AB3F5805F04D0002B56D10369002B6F
:1041200053D103685B681370836A01338362C38D64
:104130009BB2013B9BB2C385002B51D100B583B02C
:104140000268D36823F02003D3600268D36823F4A5
:104150008073D3600268536923F001035361202305
:1041600080F8423000234363036B012B33D10023DB
:104170000363026802F10C0353E8003F23F01003CD
:104180000C3242E800310029F3D103681A6812F0BA
:10419000100F06D0002201921A6801925B68019309
:1041A000019B818DFFF7AAFF002003B05DF804FB9F
:1041B0000269002AACD1826A03685B68C3F3080312
:1041C0001380836A02338362B1E703685B6803F09C
:1041D0007F031370A8E7FDF787FEE5E7022070472D
:1041E0000020704730B583B0044602681368D06879
:1041F000516913F00F0505D113F0200F02D010F014
:10420000200F19D12DB111F0010119D110F4907FB7
:1042100016D1216B01297DD013F0800F03D010F04F
:10422000800F40F0198113F0400F03D010F0400FC1
:1042300040F0168103B030BD2046FFF760FFF9E77C
:1042400013F0010F06D010F4807F03D0626C42F0AF
:104250000102626413F0040F04D019B1626C42F0E1
:104260000202626413F0020F04D019B1626C42F0D2
:104270000402626413F0080F07D010F0200F00D181
:1042800019B1626C42F008026264626C002AD1D0FB
:1042900013F0200F02D010F0200F29D123685B69A2
:1042A00003F04003626C12F0080F00D163B32046A4
:1042B000FFF774FC23685B6913F0400F20D022687D
:1042C00002F1140353E8003F23F04003143242E8A4
:1042D00000310029F3D1E36B73B1634A1A65E06BD7
:1042E000FEF715FB0028A5D0E06B036D9847A1E70A
:1042F0002046FFF704FFD1E72046FFF7CAFE99E703
:104300002046FFF7C6FE95E72046FFF7C2FE0023D2
:1043100063648FE713F0100F3FF47EAF10F0100FBF
:104320003FF47AAF0023019313680193536801931C
:10433000019B536913F0400F52D0E26B13685B6826
:104340009BB2002B3FF476AFA18D99427FF672AFFE
:10435000E385D369B3F5807F37D0226802F10C037F
:1043600053E8003F23F480730C3242E80031002907
:10437000F3D1226802F1140353E8003F23F0010354
:10438000143242E800310029F3D1226802F114030B
:1043900053E8003F23F04003143242E80031002983
:1043A000F3D1202384F8423000232363226802F1F2
:1043B0000C0353E8003F23F010030C3242E80031B5
:1043C0000029F3D1E06BFEF758FA02236363A18D55
:1043D000E38D9BB2C91A89B22046FFF78FFE29E709
:1043E000A18DE38D9BB2C91A89B2E38D9BB2002BDC
:1043F0003FF420AF00293FF41DAF226802F10C0307
:1044000053E8003F23F490730C3242E80030002858
:10441000F3D1226802F1140353E8003F23F00103B3
:10442000143242E800300028F3D1202384F84230CF
:1044300000232363226802F10C0353E8003F23F0BA
:1044400010030C3242E800300028F3D102236363EA
:104450002046FFF753FEEDE62046FFF7CDFBE9E6E9
:104460002046FFF708FEE5E6ED40000808B5806B42
:1044700001234363036B012B02D0FFF709FE08BD44
:10448000818D4908FFF73AFEF9E708B50346806BCE
:104490001B681B6813F4807F2BD10023C38502683F
:1044A00002F10C0353E8003F23F480730C3242E81E
:1044B00000310029F3D1026802F1140353E8003FF0
:1044C00023F00103143242E800310029F3D10268DD
:1044D00002F1140353E8003F23F04003143242E892
:1044E00000310029F3D1202380F84230036B012BE7
:1044F00007D000234363036B012B0FD0FDF7F4FCBF
:1045000008BD026802F10C0353E8003F23F01003DA
:104510000C3242E800310029F3D1EAE7818DFFF740
:10452000EDFDEDE781628285C2850023436422238D
:1045300080F84230036923B10268D36843F4807382
:10454000D3600268536943F0010353610268D36882
:1045500043F02003D3600020704708B590F8423044
:10456000DBB2202B08D149B10AB9012008BD0023D4
:104570000363FFF7D7FFF9E70220F7E70120F5E72C
:1045800030B583B0044613468162828500254564B8
:10459000222280F84220C26B1F48D063E26B1F4882
:1045A0001064E26B1E48D064E26B156520680A4611
:1045B000011DE06BFEF72CF9019523681A68019242
:1045C0005B680193019B23695BB1226802F10C03D4
:1045D00053E8003F43F480730C3242E80031002975
:1045E000F3D1226802F1140353E8003F43F00103C2
:1045F000143242E800310029F3D1226802F1140399
:1046000053E8003F43F04003143242E800310029F0
:10461000F3D1002003B030BD8B4400086D44000886
:104620009540000808B590F84230DBB2202B08D145
:1046300049B10AB9012008BD00230363FFF7A0FFB9
:10464000F9E70220F7E70120F5E7000010B59F4BDE
:104650001B78002B40F0A280FA239D4A13809622FB
:104660009C490A809C490A809C4A642111809C4A8A
:10467000322111809B4A13809B4BE6221A809B4B70
:104680001B78EBB101229A49CA549A48B0F900E06C
:10469000994921F813E09949B1F900C0984C24F8E0
:1046A00013C0984C2370984BA3F800E0974BA3F8E5
:1046B00000C000238D4C237003800B80944B1A7034
:1046C0008B4B5B784BB3934B4FF47A721A80924BBF
:1046D0001B78002B40F0BE80874BB3F9020028B155
:1046E000874BB3F90230002B40F0A58018B1844B02
:1046F000B3F902308BB9824BB3F90210754B1B88AA
:10470000734AB2F90020C901C00100F001FD834BDA
:1047100001221A70804B02221A70754B9B783BB1B4
:104720007F4B1B78002B00F00981012B00F01681D4
:104730006F4BDB78ABB17B4B1B78002B40F02781B4
:104740006D4BB3F90630002B00F01381012B00F004
:104750001781694BB3F90620734B1A70714B012214
:104760001A70634B1B79002B00F04E816F4B1B7846
:10477000002B40F04781604BB3F90830002B00F06C
:104780003881012B40F04081012001F0B9FB012864
:1047900040F03A81654B01221A7035E1012B1CD0A3
:1047A000022B31D0032B7FF46AAF494B4FF4A07238
:1047B0001A80484BD2221A80474BB4221A80474BAA
:1047C0006E221A80464B41221A80464B4FF4827269
:1047D0001A80454BEB221A8051E73D4B4FF48C7207
:1047E0001A803C4BB4221A803B4B96221A803B4BDA
:1047F00064221A803A4B37221A803A4BFA221A80E6
:10480000394BE6221A803AE7314B4FF496721A8000
:10481000304BD2221A80304B96221A802F4B6422C2
:104820001A802F4B3C221A802E4BFA221A802E4BD4
:10483000E6221A8023E7274B1B88254AB2F900207D
:104840000021C00100F064FC0123344A1370324A95
:10485000137062E7012B1DD0022B7FF45EAF344B47
:104860001B78012B04D02D4B1B78002B7FF455AF08
:1048700000242A4B1C70284B1C701D4B5C702D486B
:1048800001F0C0FC224B1C704FF400712A48FEF767
:1048900037FA42E7264B1B78012B04D01F4B1B78BD
:1048A000002B7FF43AAF164BB3F90210094B1B886B
:1048B000074AB2F90020C901002000F029FC0223B8
:1048C000164A1370144A137027E700BF7E0C0020AD
:1048D000140000201000002016000020120000200C
:1048E000180000201C0000201A000020850E002067
:1048F000100E0020860E0020800C0020880E002064
:10490000480D0020740E0020760E0020780E002046
:104910007D0C0020D00E00207D0E0020CE0E002049
:104920007C0E0020800E00207C0C00207F0E0020DA
:10493000930E002090C30008001402409A4B1A887E
:104940009A4B19889A4BB3F9040000F089FC0128AE
:104950007FF4EEAE974B01221A70E9E60024954BE6
:104960001C70954B9C70954801F04CFC944B1C704E
:10497000DEE6944B1988944B188800F04BFEE8E66D
:10498000904B1988904B188800F054FEE1E6012BFB
:104990007FF4E7AE864BB3F906308C4A1278934227
:1049A00007D0C3B1012B1DD0814BB3F90620874B33
:1049B0001A70874B1B78012B7FF4D3AE0024854BF4
:1049C0001C707D4BDC70844801F01CFC7C4B1C701F
:1049D0007E4B1C70C5E67B4B19887B4B188800F01A
:1049E00019FEE1E7774B1988774B188800F022FE13
:1049F000DAE7002001F084FA012805D1774B012283
:104A00001A7001E0012B3FD06B4B5B798BB1684B87
:104A1000B3F90A00C0B2724B1870724BB3F90A10A6
:104A2000C9B2714B1970714B1B78002B37D0012B19
:104A300041D0614B9B798BB15D4BB3F90C00C0B297
:104A40006B4B1870674BB3F90C10C9B2694B1970F6
:104A5000694B1B78002B3DD0012B47D0564BDB799F
:104A6000002B52D1544B5B7A002B68D0504BB3F9DA
:104A7000120005285ADC5B4BB3F91230052B55DCCC
:104A80005E4B96221A8055E00024544B1C704A4B12
:104A90001C715B4801F0B6FB494B1C70B4E7494BF5
:104AA0001B88494A128800F097FE0128C1D14F4B5C
:104AB00001221A70BDE700244C4B1C70484B1C703F
:104AC000494B1C703C4B5C714E4801F09BFB3C4BCE
:104AD0001C70AEE73B4B1B883B4A128800F0C8FFB6
:104AE0000128BBD1444B01221A70B7E70024424B86
:104AF0001C703F4B1C703F4B1C702F4B9C714248ED
:104B000001F080FB2E4B1C70A8E7274B19883F4B08
:104B1000188800F041FC0128A4D10024264BDC7148
:104B20003B4801F06FFB264B1C709BE7334B4FF467
:104B3000C8721A80374B1B782BB1012B1BD0204B2E
:104B40001B786BBB10BD00EB4004264BB3F9121071
:104B500001EB410C144B1B882C4AB2F9002001EBED
:104B60008C0100EB840000F0D3FA0123294A137072
:104B7000294A1370E3E7294B1B78012B03D0264BFE
:104B80001B78002BDBD10024234B1C70214B1C70A5
:104B9000094B5C72224801F035FB094B1C70CEE7D3
:104BA000012000F0A3F9CDE712000020180000203A
:104BB000800C00207C0E0020100E00209CC30008FA
:104BC0007D0C00201A0000201C0000207C0C00201E
:104BD0001E000020800E0020A8C300087F0E0020C9
:104BE000820E0020480D0020840E00207E0E002042
:104BF000810E0020830E00207B0E0020D00E0020AE
:104C0000B4C30008C0C30008CCC3000816000020CD
:104C1000D8C300087A0E0020CE0E0020930E00208C
:104C2000E4C30008002800DB70474042FCE70000B6
:104C300010B5694B1B781BB9012808D0052806D090
:104C4000012B0FD0644B1B78022B2DD010BD624B73
:104C500001221A70614A1378591C1170604A22F8B7
:104C60001300EFE75D490A78531CDBB20B705C4917
:104C700021F81200092B15D86B28E3D1002406E097
:104C8000574B33F81410574801F05AFA0134534B7C
:104C90001B78A342F4DC544801F0B4FA4E4B0222D4
:104CA0001A70CFE70024F2E74C4B1B78013B4C4ACB
:104CB00032F813306B2B08D00023474A1370474A51
:104CC00013704A4A0221117083E00023434A137093
:104CD000414A1370424B1B88012B07D0012B28D06F
:104CE000052B3CD0052B56D0002369E03C4A528866
:104CF0003A2AF3D13A4B9B88012B03D0032B08D0DF
:104D0000002313E0394B00221A70394801F07AFA77
:104D1000F6E7364B01221A70364801F073FAEFE7D6
:104D20002F4A002122F813100133DBB2032BF7D9ED
:104D30008CE72B4A5288FF2AD2D1294A9288022A2C
:104D4000CED12D4801F05EFA002305E0244A00216F
:104D500022F813100133DBB2032BF7D976E7204A90
:104D60005288FD2ABED11E4A92889F2ABAD1234A70
:104D70001478002CB6D1134601221A70204801F095
:104D800041FA05E0164B002223F814200134E4B266
:104D9000032CF7D95AE7124B5B88272B01D000234D
:104DA0000EE00F4B9A88B3F9063043EA0223154A06
:104DB00013804BE70A4A002122F813100133DBB2BB
:104DC000092BF7D942E7064A002122F813100133D4
:104DD000DBB2092BF7D939E7A90E0020A80E002075
:104DE000940E0020F0C30008F4C30008930E0020C6
:104DF000F8C3000808C4000814C400081E000020FE
:104E000024C40008900E002008B50B490870F32355
:104E10004B70AB238B700123CB7000230B716B2382
:104E20004B714FF47A7306220448FFF712F80A20F8
:104E3000FCF7FCFC08BD00BFAC0E0020A00B00205E
:104E4000F8B50546124C2070FE2363709823A370BA
:104E50000023E3706B2727710E4E4FF47A730522FF
:104E600021463046FEF7F5FF0A20FCF7DFFC2570EF
:104E70000A2565706D23A370E7704FF47A730422DE
:104E800021463046FEF7E5FF2846FCF7CFFCF8BD8B
:104E9000AC0E0020A00B002008B50120FFF7B4FFE6
:104EA0000220FFF7B1FF0320FFF7AEFF0420FFF75A
:104EB000ABFF0520FFF7A8FF08BD000008B50948B3
:104EC0000268D36843F02003D36001220649FFF74C
:104ED00044FB0020FFF7B4FF6420FCF7A7FCFFF7BA
:104EE000DBFF08BDA00B0020920E002008B508498A
:104EF00008703A234B706B238B704FF47A73032244
:104F00000448FEF7A6FF1420FCF790FC08BD00BF84
:104F1000AC0E0020A00B002008B5094900230B703F
:104F2000FF234B7066238B706B23CB704FF47A7327
:104F300004220448FEF78DFF0A20FCF777FC08BD29
:104F4000AC0E0020A00B002070B504460D4616469E
:104F50000846FFF767FE83B2134A1470F6215170BA
:104F6000012C05D0032C03D0002D1ADB012202E016
:104F7000002D14DB00220C498A701B0ACB700871CB
:104F80004E7101238B716B23CB714FF47A7308221E
:104F90000648FEF75EFF0A20FCF748FC70BD0122C0
:104FA000E9E70022E7E700BFAC0E0020A00B0020DD
:104FB000F8B505460C4616461F461046FFF732FE6A
:104FC00083B21E4A1570FD215170012D05D0042DAC
:104FD00003D0002E27DB012202E0002E21DB00227D
:104FE00016498A701B0ACB7008714F71230E8B71A2
:104FF000C4F30743CB71C4F307230B724C72002335
:105000008B720123CB726B230B734FF47A730D22D7
:105010000B48FEF71EFF012D07D00A20FCF706FC07
:10502000F8BD0122DCE70022DAE7064C00252570F6
:105030000A20FCF7FBFB2570EFE700BFAC0E002059
:10504000A00B0020930E0020F8B504460D4616462E
:105050001F461046FFF7E6FD83B2274A1470FD2174
:105060005170012C05D0032C03D0002E28DB012227
:1050700002E0002E22DB00221F498A701B0ACB703F
:1050800008714F712B0E8B71C5F30743CB71C5F3BC
:1050900007230B724D7201238B72CB726B230B7340
:1050A0004FF47A730D221548FEF7D3FE0A20FCF761
:1050B000BDFB012C06D0052C11D0F8BD0122DBE789
:1050C0000022D9E700230E4A137005E00D4A0021A3
:1050D00022F813100133DBB2032BF7D9EBE70023DF
:1050E000094A137005E0074A002122F81310013322
:1050F000DBB2032BF7D9E0E7AC0E0020A00B0020B9
:10510000930E0020940E00201E00002000000000DE
:105110002DE9F84F04460D4693461F4601FB01F06A
:1051200004FB0400FBF79EF906F0FAFFFBF716FC00
:10513000064600287AD0281BFFF774FD00FB0BFA07
:105140003046FBF78FF944A3D3E90023FBF7F4F9CA
:10515000804689465046FBF775F942464B46FBF7B9
:1051600015FBFBF7FBFB82466019FFF75BFD00FBBD
:105170000BF0FBF767F942464B46FBF707FBFBF7E3
:10518000EDFB06464CB32046FFF74CFD8046002C55
:105190004EDD724212B25FFA87F94B46414601205A
:1051A000FFF706FF002C45DD0FFA8AF24B46414619
:1051B0000220FFF7FDFE002C40DDCAF1000212B212
:1051C0004B4641460320FFF7F3FE002C39DD32B297
:1051D0004B4641460420FFF7EBFE1DB32846FFF780
:1051E00021FD0446002D2FDD36B2FFB23B4632468C
:1051F00021460120FFF7DCFE002D28DD0FFA8AFA98
:105200003B46524621460220FFF7D2FE3B4652461D
:1052100021460320FFF7CCFE3B46324621460420C0
:10522000FFF7C6FEFFF778FEBDE8F88F8246A9E7D4
:1052300032B2B0E7CAF1000212B2B7E70FFA8AF24F
:10524000BEE7724212B2C3E7764236B2CDE7CAF188
:10525000000A0FFA8AFAD3E7666666666666F63F64
:10526000F8B5474B1D78CDB901221A7000F15903EA
:105270009BB2B22B09D9FBF7A3FC424C2168FBF788
:10528000EBFB414B186020600DE0FBF799FC3F4BB6
:105290001968FBF7E1FB3C4B186004E00E4614462E
:1052A000012D02D000252846F8BD374B1968374B31
:1052B0001868FBF7CFFB0146FBF7CEFB07463046ED
:1052C000FBF77EFC3946FBF76DFE00283DD03046EB
:1052D000FBF772FC064606F10040FBF78BFE07B2B7
:1052E000E4B2224639460120FFF72EFE3046FBF796
:1052F00081FE06B2224631460220FFF725FE2246F5
:1053000031460320FFF720FE224639460420FFF7EE
:105310001BFEFFF701FE1C4B1E681D493046FBF7C4
:1053200099FB1A4B1C682146FBF746FEC0B1184991
:105330003046FBF791FB01462046FBF73DFE78B176
:10534000144A1378013313700DE07042FBF738FCF8
:1053500006463946FBF744FE0028BCD13E46BAE774
:105360000C4B00221A700B4B1B78092B05D900231C
:10537000084A1370024A137095E7002593E700BFAF
:10538000C20E00208C0E0020C80E0020440A00200F
:1053900000004040C00E0020F8B5854B1C7844B991
:1053A000631C834A1370834B1A68834B1A60204630
:1053B000F8BD06460D46012C01D00024F7E77E4BD0
:1053C0001C687E492046FBF7F7FD88B17C492046E2
:1053D000FBF7FCFD08B900240BE004F10040FBF7EB
:1053E00009FE2A46314600B2FFF73AFF044600E0C4
:1053F0000024714B1F6873493846FBF7DDFD28B167
:1054000071493846FBF7E2FD00285ED16A4B1F6800
:105410006E493846FBF7D0FD28B16D493846FBF799
:10542000D5FD00285ED1644B1F686A493846FBF7FA
:10543000C3FD28B168493846FBF7C8FD00285FD195
:105440005D4B1F6865493846FBF7B6FD28B16449D6
:105450003846FBF7BBFD00285FD1574B1F686149F9
:105460003846FBF7A9FD28B15F493846FBF7AEFD8A
:10547000002860D1504B1F685C493846FBF79CFD03
:1054800028B15B493846FBF7A1FD002860D14A4BA3
:105490001F6858493846FBF78FFD28B156493846F2
:1054A000FBF794FD002861D1434B1F6853493846F0
:1054B000FBF782FD28B152493846FBF787FD0028EB
:1054C00061D1012C6DD0002471E739464D48FBF7BE
:1054D000C1FAFBF78FFD2A46314600B2FFF7C0FE46
:1054E000044693E707F100404649FBF7B3FAFBF7A0
:1054F00081FD2A46314600B2FFF7B2FE044692E72C
:1055000039464148FBF7A6FAFBF774FD2A463146B7
:1055100000B2FFF7A5FE044692E707F100403A49C2
:10552000FBF798FAFBF766FD2A46314600B2FFF713
:1055300097FE044691E739463448FBF78BFAFBF7B0
:1055400059FD2A46314600B2FFF78AFE044691E72C
:1055500007F100402D49FBF77DFAFBF74BFD2A468A
:10556000314600B2FFF77CFE044690E739462848F2
:10557000FBF770FAFBF73EFD2A46314600B2FFF713
:105580006FFE044690E707F100402149FBF762FAFD
:10559000FBF730FD2A46314600B2FFF761FE0446B4
:1055A0008FE7034B00221A70034B00221A60FEE6BD
:1055B000C10E0020440A0020C40E0020000020413B
:1055C000000020C10000BE420000AA420000AAC2A2
:1055D0000000BEC20000394300002F4300002FC36B
:1055E000000039C30080894300808443008084C365
:1055F000008089C30080B6430080B1430080B1C3FE
:105600000080B6C30000B44200003443000087436A
:105610000000B44308B5064B00221A70CBB202B2A8
:1056200064210520FFF710FDFFF776FC08BD00BFE1
:105630008A0E002008B5064B04221A70CBB202B2C3
:1056400043F2C8210520FFF7FFFCFFF765FC08BD0A
:105650008A0E002008B5064B03221A70CBB202B2A4
:1056600041F27C510520FFF7EFFCFFF755FC08BD28
:105670008A0E002008B5064B01221A70CBB202B286
:105680004FF47A610520FFF7DFFCFFF745FC08BD0A
:105690008A0E002008B5064B02221A70CBB202B265
:1056A00041F288310520FFF7CFFCFFF735FC08BD3C
:1056B0008A0E002008B502460520054B1870CBB2B3
:1056C00012B241F28831FFF7BFFCFFF725FC08BD9D
:1056D0008A0E002000000000334B984203D0334B69
:1056E00098424ED0704710B5314B1B78012B17D024
:1056F00013B9304B00221A802F4B1B78012B1ED080
:105700002D4B1B7813B92D4B00221A802C4A13887D
:1057100001339BB21380632B20D800F047FB10BDF0
:10572000244A138801339BB21380264A128893427D
:10573000E2D300231F4A13801D4A1370DCE71F4A7F
:10574000138801339BB213801F4A12889342D7D328
:1057500000231A4A1380184A1370D1E74FF480616E
:105760001A48FDF7CDFA1A4C0DA3D3E90023D4E96A
:105770000001FAF72BFDC4E90001114B00221A8049
:10578000CBE7144A138801339BB213804CF24F329B
:105790009342A7D90F4B00221A807047AFF30080C5
:1057A00079E9263108AC7C3FB00A0020F80A0020D5
:1057B000D60E0020D40E0020CE0E0020CC0E0020ED
:1057C000E80E0020D80E0020D00E00200014024069
:1057D000E00E0020D20E0020F8B515461F46A04A64
:1057E000732414809F4A147814B30E46012C2AD0D7
:1057F000022C38D0042C73D0032C7ED0052C00F062
:105800008C80062C00F0AA80072C00F0B880082CB1
:1058100000F0DB80092C00F0E3800A2C00F0F3801C
:105820000B2C00F0FE800C2C00F00F81002408E00F
:1058300019462846FFF7EEFE01238B4A1370894A6A
:1058400013702046F8BD894B1B78012B04D0864B82
:105850001B78002B40F0FE80824B02221A7000243D
:10586000814B1C70EDE770B101280FD0022810D0D9
:10587000012000F00FFB0446012000F041FB012C49
:105880000AD00024DDE700F077FBF1E700F074FBBD
:10589000EEE700F071FBEBE7012801D00024D0E730
:1058A000724B1B78012B01D00024CAE71EB1012ED8
:1058B0000DD00024C5E739462846FFF7BBFE6A4BEA
:1058C00001221A70674B03221A703446B9E7394631
:1058D0002846FFF7EFFE634B04221A700024B0E75E
:1058E000624B1B78012B01D00024AAE75D4B0522F7
:1058F0001A7000245C4B1C70A3E75C4B1B78012BD7
:1059000004D0594B1B78002B40F0A680554B052244
:105910001A700024544B1C7093E750B101280BD02F
:1059200002280CD0002000F0B5FA01280AD000248B
:1059300087E700F021FBF5E700F01EFBF2E700F03F
:105940001BFBEFE7474B06221A7039462846FFF744
:1059500061FE454B01221A70002472E7434B1B780D
:10596000012B04D0404B1B780BB1002469E73D4B61
:1059700007221A703C4B00221A70022461E758B1CA
:1059800001280DD002280FD00024002000F0B8FA22
:1059900001280DD0002454E700F0EEFA0446F4E7A5
:1059A00000F0EAFA0446F0E700F0E6FA0446ECE715
:1059B000012C01D0002444E72A4B08221A703946F2
:1059C0002846FFF757FE00243BE7284B1B78012BA6
:1059D00001D0002435E7234B09221A70002430E758
:1059E000012000F057FA012801D0002429E71D4BBF
:1059F0000A221A7039462846FFF70CFE1A4B01227C
:105A00001A7003241DE7194B1B78012B02D0164B8B
:105A10001B781BBB134B0B221A700024124B1C70FB
:105A20000FE7002000F0A8FA0446012000F068FA11
:105A3000012C01D0002404E7012801D0002400E754
:105A4000084B0C221A700024FBE6064B00221A7049
:105A50000124F6E60024F4E60024F2E60024F0E651
:105A6000D80E0020DA0E0020D60E00201E000020E6
:105A70002DE9F04115461E468E4B73221A808E4B3F
:105A80001C780CB30F464FF00008012C28D0022CD4
:105A900036D0032C68D0042C71D0052C00F0828005
:105AA000062C00F08E80082C00F0AC80072C00F053
:105AB000BB80092C00F0CD800A2C00F0E0800B2C7C
:105AC00000F0EB80002408E031462846FFF7A2FDF5
:105AD00001237A4A1370784A13702046BDE8F0819A
:105AE000774B1B78012B04D0744B1B78002B40F0B4
:105AF000D980714B02221A700024704B1C70ECE7A5
:105B00006F4B1B78012B01D00024E6E778B1012808
