:020000040800F2
:1000000000000220B927000805200008072000088A
:10001000092000080B2000080D2000080000000047
:100020000000000000000000000000000F20000899
:10003000112000080000000013200008152000080F
:1000400009280008092800080928000809280008CC
:1000500009280008092800080928000809280008BC
:1000600009280008092800080928000809280008AC
:100070001D20000809280008092800080928000890
:10008000092800080928000809280008092800088C
:10009000092800080928000809280008092800087C
:1000A000092800080928000809280008092800086C
:1000B000092800080928000809280008092800085C
:1000C000092800080928000809280008092800084C
:1000D000092800082D200008092800083D200008F4
:1000E000092800080928000809280008092800082C
:1000F000092800080928000809280008092800081C
:10010000092800080928000809280008092800080B
:100110000928000809280008A92000080928000863
:1001200009280008092800080928000809280008EB
:1001300009280008092800080928000809280008DB
:1001400009280008092800080928000809280008CB
:1001500009280008092800080928000809280008BB
:1001600009280008092800080928000809280008AB
:1001700009280008092800080928000800000000D4
:08018000092800080928000805
:1001C00081F0004102E000BF83F0004330B54FEA08
:1001D00041044FEA430594EA050F08BF90EA020F75
:1001E0001FBF54EA000C55EA020C7FEA645C7FEA08
:1001F000655C00F0E2804FEA5454D4EB5555B8BF2B
:100200006D420CDD2C4480EA020281EA030382EA9B
:10021000000083EA010180EA020281EA0303362D2D
:1002200088BF30BD11F0004F4FEA01314FF4801C00
:100230004CEA113102D0404261EB410113F0004F12
:100240004FEA03334CEA133302D0524263EB4303C9
:1002500094EA050F00F0A780A4F10104D5F1200E67
:100260000DDB02FA0EFC22FA05F2801841F10001C2
:1002700003FA0EF2801843FA05F359410EE0A5F196
:1002800020050EF1200E012A03FA0EFC28BF4CF0C7
:10029000020C43FA05F3C01851EBE37101F000457D
:1002A00007D54FF0000EDCF1000C7EEB00006EEB8A
:1002B0000101B1F5801F1BD3B1F5001F0CD3490814
:1002C0005FEA30004FEA3C0C04F101044FEA44526B
:1002D00012F5800F80F09A80BCF1004F08BF5FEAF2
:1002E000500C50F1000041EB045141EA050130BDD2
:1002F0005FEA4C0C404141EB0101013C28BFB1F5E4
:10030000801FE9D291F0000F04BF01460020B1FA2E
:1003100081F308BF2033A3F10B03B3F120020CDA01
:100320000C3208DD02F1140CC2F10C0201FA0CF0DF
:1003300021FA02F10CE002F11402D8BFC2F1200C44
:1003400001FA02F120FA0CFCDCBF41EA0C019040FA
:10035000E41AA2BF01EB0451294330BD6FEA040443
:100360001F3C1CDA0C340EDC04F11404C4F120022E
:1003700020FA04F001FA02F340EA030021FA04F340
:1003800045EA030130BDC4F10C04C4F1200220FA97
:1003900002F001FA04F340EA0300294630BD21FAD5
:1003A00004F0294630BD94F0000F83F4801306BF9B
:1003B00081F480110134013D4EE77FEA645C18BF8F
:1003C0007FEA655C29D094EA050F08BF90EA020F26
:1003D00005D054EA000C04BF1946104630BD91EA1E
:1003E000030F1EBF0021002030BD5FEA545C05D121
:1003F0004000494128BF41F0004130BD14F5800460
:100400003CBF01F5801130BD01F0004545F0FE41D3
:1004100041F470014FF0000030BD7FEA645C1ABF08
:10042000194610467FEA655C1CBF0B46024650EA3F
:10043000013406BF52EA033591EA030F41F400216B
:1004400030BD00BF90F0000F04BF0021704730B5F1
:100450004FF4806404F132044FF000054FF00001C6
:1004600050E700BF90F0000F04BF0021704730B587
:100470004FF4806404F1320410F0004548BF40425C
:100480004FF000013EE700BF42004FEAE2014FEAB1
:1004900031014FEA02701FBF12F07F4393F07F4F8C
:1004A00081F06051704732F07F4208BF704793F08F
:1004B0007F4F04BF41F40021704730B54FF46074A2
:1004C00001F0004521F000411CE700BF50EA0102A5
:1004D00008BF704730B54FF000050AE050EA01024E
:1004E00008BF704730B511F0004502D5404261EBBE
:1004F00041014FF4806404F132045FEA915C3FF4FF
:10050000D8AE4FF003025FEADC0C18BF03325FEA9B
:10051000DC0C18BF033202EBDC02C2F1200300FA4C
:1005200003FC20FA02F001FA03FE40EA0E0021FA71
:1005300002F11444BDE600BF70B54FF0FF0C4CF45F
:10054000E06C1CEA11541DBF1CEA135594EA0C0F11
:1005500095EA0C0F00F0DEF82C4481EA030621EA4C
:100560004C5123EA4C5350EA013518BF52EA033587
:1005700041F4801143F4801338D0A0FB02CE4FF039
:100580000005E1FB02E506F00042E0FB03E54FF069
:100590000006E1FB03569CF0000F18BF4EF0010E61
:1005A000A4F1FF04B6F5007F64F5407404D25FEA5D
:1005B0004E0E6D4146EB060642EAC62141EA555110
:1005C0004FEAC52040EA5E504FEACE2EB4F1FD0C52
:1005D00088BFBCF5E06F1ED8BEF1004F08BF5FEAD0
:1005E000500E50F1000041EB045170BD06F0004682
:1005F00046EA010140EA020081EA0301B4EB5C042F
:10060000C2BFD4EB0C0541EA045170BD41F4801126
:100610004FF0000E013C00F3AB8014F1360FDEBF4B
:10062000002001F0004170BDC4F10004203C35DA27
:100630000C341BDC04F11404C4F1200500FA05F3AA
:1006400020FA04F001FA05F240EA020001F000424B
:1006500021F0004110EBD37021FA04F642EB0601C1
:100660005EEA430E08BF20EAD37070BDC4F10C04EB
:10067000C4F1200500FA04F320FA05F001FA04F2AF
:1006800040EA020001F0004110EBD37041F100019B
:100690005EEA430E08BF20EAD37070BDC4F12005A6
:1006A00000FA05F24EEA020E20FA04F301FA05F20E
:1006B00043EA020321FA04F001F0004121FA04F2B6
:1006C00020EA020000EBD3705EEA430E08BF20EA86
:1006D000D37070BD94F0000F0FD101F000464000C0
:1006E00041EB010111F4801F08BF013CF7D041EA42
:1006F000060195F0000F18BF704703F00046520046
:1007000043EB030313F4801F08BF013DF7D043EA16
:100710000603704794EA0C0F0CEA135518BF95EACC
:100720000C0F0CD050EA410618BF52EA4306D1D153
:1007300081EA030101F000414FF0000070BD50EA72
:10074000410606BF1046194652EA430619D094EAFC
:100750000C0F02D150EA013613D195EA0C0F05D1E6
:1007600052EA03361CBF104619460AD181EA03013A
:1007700001F0004141F0FE4141F470014FF00000F2
:1007800070BD41F0FE4141F4780170BD70B54FF08D
:10079000FF0C4CF4E06C1CEA11541DBF1CEA13550D
:1007A00094EA0C0F95EA0C0F00F0A7F8A4EB0504EF
:1007B00081EA030E52EA03354FEA013100F08880E6
:1007C0004FEA03334FF0805545EA131343EA1263AF
:1007D0004FEA022245EA111545EA10654FEA002664
:1007E0000EF000419D4208BF964244F1FD0404F51D
:1007F000407402D25B084FEA3202B61A65EB030579
:100800005B084FEA32024FF480104FF4002CB6EB35
:10081000020E75EB030E22BFB61A754640EA0C00B5
:100820005B084FEA3202B6EB020E75EB030E22BFF5
:10083000B61A754640EA5C005B084FEA3202B6EB36
:10084000020E75EB030E22BFB61A754640EA9C00F5
:100850005B084FEA3202B6EB020E75EB030E22BFC5
:10086000B61A754640EADC0055EA060E18D04FEA83
:10087000051545EA16754FEA06164FEAC30343EA23
:1008800052734FEAC2025FEA1C1CC0D111F4801FF0
:100890000BD141EA00014FF000004FF0004CB6E7E9
:1008A00011F4801F04BF01430020B4F1FD0C88BF88
:1008B000BCF5E06F3FF6AFAEB5EB030C04BFB6EB93
:1008C000020C5FEA500C50F1000041EB045170BD86
:1008D0000EF0004E4EEA113114EB5C04C2BFD4EBB3
:1008E0000C0541EA045170BD41F480114FF0000E37
:1008F000013C90E645EA060E8DE60CEA135594EAB3
:100900000C0F08BF95EA0C0F3FF43BAF94EA0C0FB5
:100910000AD150EA01347FF434AF95EA0C0F7FF42A
:1009200025AF104619462CE795EA0C0F06D152EA7E
:1009300003353FF4FDAE1046194622E750EA410662
:1009400018BF52EA43067FF4C5AE50EA41047FF473
:100950000DAF52EA43057FF4EBAE12E74FF0FF3CD8
:1009600006E000BF4FF0010C02E000BF4FF0010CA9
:100970004DF804CD4FEA410C7FEA6C5C4FEA430C22
:1009800018BF7FEA6C5C1BD001B050EA410C0CBF71
:1009900052EA430C91EA030F02BF90EA020F0020D3
:1009A000704710F1000F91EA030F58BF994208BF3A
:1009B00090422CBFD8176FEAE37040F001007047F7
:1009C0004FEA410C7FEA6C5C02D150EA013C07D14E
:1009D0004FEA430C7FEA6C5CD6D152EA033CD3D099
:1009E0005DF8040B704700BF8446104662468C4693
:1009F0001946634600E000BF01B5FFF7B7FF0028C6
:100A000048BF10F1000F01BD4DF808EDFFF7F4FFEE
:100A10000CBF012000205DF808FB00BF4DF808ED79
:100A2000FFF7EAFF34BF012000205DF808FB00BF9C
:100A30004DF808EDFFF7E0FF94BF012000205DF8BE
:100A400008FB00BF4DF808EDFFF7CEFF94BF012073
:100A500000205DF808FB00BF4DF808EDFFF7C4FF6C
:100A600034BF012000205DF808FB00BF4FEA4102BF
:100A700012F5001215D211D56FF47873B3EB6252F0
:100A800012D94FEAC12343F0004343EA505311F017
:100A9000004F23FA02F018BF404270474FF00000A9
:100AA000704750EA013005D111F0004008BF6FF0E7
:100AB000004070474FF00000704700BF80F00040DA
:100AC00002E000BF81F0004142001FBF5FEA410326
:100AD00092EA030F7FEA226C7FEA236C6AD04FEA26
:100AE0001262D2EB1363C1BFD2184140484041406B
:100AF000B8BF5B42192B88BF704710F0004F40F41D
:100B0000000020F07F4018BF404211F0004F41F438
:100B1000000121F07F4118BF494292EA030F3FD004
:100B2000A2F1010241FA03FC10EB0C00C3F1200317
:100B300001FA03F100F0004302D5494260EB4000A6
:100B4000B0F5000F13D3B0F1807F06D340084FEA11
:100B5000310102F10102FE2A51D2B1F1004F40EB06
:100B6000C25008BF20F0010040EA0300704749006E
:100B700040EB0000013A28BFB0F5000FEDD2B0FA0B
:100B800080FCACF1080CB2EB0C0200FA0CF0AABF2E
:100B900000EBC25052421843BCBFD04018437047CC
:100BA00092F0000F81F4000106BF80F400000132D2
:100BB000013BB5E74FEA41037FEA226C18BF7FEAA9
:100BC000236C21D092EA030F04D092F0000F08BFEB
:100BD0000846704790EA010F1CBF0020704712F0D2
:100BE0007F4F04D1400028BF40F00040704712F111
:100BF00000723CBF00F50000704700F0004343F076
:100C0000FE4040F4000070477FEA226216BF0846AB
:100C10007FEA23630146420206BF5FEA412390EA6E
:100C2000010F40F4800070474FF0000304E000BF64
:100C300010F0004348BF40425FEA000C08BF704715
:100C400043F0964301464FF000001CE050EA0102D9
:100C500008BF70474FF000030AE000BF50EA0102EE
:100C600008BF704711F0004302D5404261EB4101DB
:100C70005FEA010C02BF84460146002043F0B64300
:100C800008BFA3F18053A3F50003BCFA8CF2083A25
:100C9000A3EBC25310DB01FA02FC634400FA02FC2E
:100CA000C2F12002BCF1004F20FA02F243EB020035
:100CB00008BF20F00100704702F1200201FA02FC97
:100CC000C2F1200250EA4C0021FA02F243EB02008A
:100CD00008BF20EADC7070474FF0FF0C1CEAD052CE
:100CE0001EBF1CEAD15392EA0C0F93EA0C0F6FD08F
:100CF0001A4480EA010C400218BF5FEA41211ED06D
:100D00004FF0006343EA501043EA5111A0FB013158
:100D10000CF00040B1F5000F3EBF490041EAD3712D
:100D20005B0040EA010062F17F02FD2A1DD8B3F1A9
:100D3000004F40EBC25008BF20F00100704790F018
:100D4000000F0CF0004C08BF49024CEA502040EA6A
:100D500051207F3AC2BFD2F1FF0340EAC250704730
:100D600040F400004FF00003013A5DDC12F1190F6E
:100D7000DCBF00F000407047C2F10002410021FAE0
:100D800002F1C2F1200200FA02FC5FEA310040F1F8
:100D9000000053EA4C0308BF20EADC70704792F071
:100DA000000F00F0004C02BF400010F4000F013AA9
:100DB000F9D040EA0C0093F0000F01F0004C02BFA4
:100DC000490011F4000F013BF9D041EA0C018FE713
:100DD0000CEAD15392EA0C0F18BF93EA0C0F0AD019
:100DE00030F0004C18BF31F0004CD8D180EA01003F
:100DF00000F00040704790F0000F17BF90F0004FD8
:100E0000084691F0000F91F0004F14D092EA0C0FB9
:100E100001D142020FD193EA0C0F03D14B0218BF4C
:100E2000084608D180EA010000F0004040F0FE4092
:100E300040F40000704740F0FE4040F4400070472E
:100E40004FF0FF0C1CEAD0521EBF1CEAD15392EAAD
:100E50000C0F93EA0C0F69D0A2EB030280EA010C9D
:100E600049024FEA402037D04FF0805343EA111136
:100E700043EA10130CF000408B4238BF5B0042F194
:100E80007D024FF4000C8B4224BF5B1A40EA0C0039
:100E9000B3EB510F24BFA3EB510340EA5C00B3EB6B
:100EA000910F24BFA3EB910340EA9C00B3EBD10F59
:100EB00024BFA3EBD10340EADC001B0118BF5FEAAB
:100EC0001C1CE0D1FD2A3FF650AF8B4240EBC250D4
:100ED00008BF20F0010070470CF0004C4CEA502095
:100EE0007F32C2BFD2F1FF0340EAC250704740F4E4
:100EF00000004FF00003013A37E792F0000F00F0D6
:100F0000004C02BF400010F4000F013AF9D040EA53
:100F10000C0093F0000F01F0004C02BF490011F4E7
:100F2000000F013BF9D041EA0C0195E70CEAD153DF
:100F300092EA0C0F08D142027FF47DAF93EA0C0FC6
:100F40007FF470AF084676E793EA0C0F04D14B02AA
:100F50003FF44CAF08466EE730F0004C18BF31F05C
:100F6000004CCAD130F000427FF45CAF31F0004356
:100F70007FF43CAF5FE700BF4FF0FF3C06E000BFEF
:100F80004FF0010C02E000BF4FF0010C4DF804CD12
:100F90004FEA40024FEA41037FEA226C18BF7FEA22
:100FA000236C11D001B052EA530C18BF90EA010F24
:100FB00058BFB2EB030088BFC81738BF6FEAE170B3
:100FC00018BF40F0010070477FEA226C02D15FEA4F
:100FD000402C05D17FEA236CE4D15FEA412CE1D0BB
:100FE0005DF8040B704700BF844608466146FFE782
:100FF0000FB5FFF7C9FF002848BF10F1000F0FBD64
:101000004DF808EDFFF7F4FF0CBF012000205DF85C
:1010100008FB00BF4DF808EDFFF7EAFF34BF0120E1
:1010200000205DF808FB00BF4DF808EDFFF7E0FF7A
:1010300094BF012000205DF808FB00BF4DF808EDCB
:10104000FFF7D2FF94BF012000205DF808FB00BF2E
:101050004DF808EDFFF7C8FF34BF012000205DF810
:1010600008FB00BF4FEA4002B2F1FE4F0FD34FF032
:101070009E03B3EB12620DD94FEA002343F0004305
:1010800010F0004F23FA02F018BF404270474FF0B3
:101090000000704712F1610F01D1420205D110F03A
:1010A000004008BF6FF0004070474FF000007047ED
:1010B00042000ED2B2F1FE4F0BD34FF09E03B3EBC2
:1010C000126209D44FEA002343F0004323FA02F0EE
:1010D00070474FF00000704712F1610F01D14202DA
:1010E00002D14FF0FF3070474FF00000704700BF53
:1010F00053B94AB9002908BF00281CBF4FF0FF317F
:101100004FF0FF3000F074B9ADF1080C6DE904CE7A
:1011100000F006F8DDF804E0DDE9022304B07047D2
:101120002DE9F047089E0D4604468846002B4DD118
:101130008A42944668D9B2FA82F252B101FA02F3B5
:10114000C2F1200120FA01F10CFA02FC41EA030885
:1011500094404FEA1C45210CB8FBF5FE1FFA8CF7B2
:1011600005FB1E8341EA03430EFB07F199420BD9AD
:101170001CEB03030EF1FF3080F01E81994240F218
:101180001B81AEF1020E63445B1AA4B2B3FBF5F00F
:1011900005FB103344EA034400FB07F7A7420AD9D2
:1011A0001CEB040400F1FF3380F00881A74240F2F9
:1011B000058164440238E41B40EA0E4000211EB160
:1011C000D4400023C6E90043BDE8F0878B4208D92C
:1011D000002E00F0EE800021C6E900050846BDE8BB
:1011E000F087B3FA83F100294AD1AB4202D382429D
:1011F00000F2F980841A65EB030301209846002E63
:10120000E2D0C6E90048DFE702B9FFDEB2FA82F2B7
:10121000002A40F09180A1EB0C054FEA1C471FFA11
:101220008CFE0121B5FBF7F307FB1350250C45EAB3
:1012300000450EFB03F0A84208D91CEB050503F19D
:10124000FF3802D2A84200F2CB8043462D1AA4B246
:10125000B5FBF7F007FB105544EA05440EFB00FE12
:10126000A64508D91CEB040400F1FF3502D2A645BF
:1012700000F2BB802846A4EB0E0440EA03409EE740
:10128000C1F120078B4022FA07FC4CEA030C20FA3C
:1012900007F405FA01F31C43FD404FEA1C4900FA2C
:1012A00001F3B5FBF9F8200C1FFA8CFE09FB185569
:1012B00040EA054508FB0EF0A84202FA01F20BD9FC
:1012C0001CEB050508F1FF3A80F08880A84240F247
:1012D0008580A8F1020865442D1AA4B2B5FBF9F087
:1012E00009FB105544EA054500FB0EFEAE4508D942
:1012F0001CEB050500F1FF346CD2AE456AD902380B
:10130000654440EA0840A0FB0294A5EB0E05A54207
:10131000C846A64656D353D05EB1B3EB080265EB80
:101320000E0505FA07F722FA01F3CD401F43C6E97F
:1013300000750021BDE8F087C2F1200320FA03F117
:101340000CFA02FC25FA03F395400D434FEA1C47C3
:101350001FFA8CFEB3FBF7F107FB11302B0C43EAAD
:10136000004301FB0EF0984204FA02F408D91CEB8A
:10137000030301F1FF382FD298422DD9023963447B
:101380001B1AADB2B3FBF7F007FB103345EA034578
:1013900000FB0EF3AB4208D91CEB050500F1FF384A
:1013A00016D2AB4214D902386544ED1A40EA014125
:1013B00038E73146304607E78646E5E61846FAE65E
:1013C0004B45A9D2B9EB020864EB0C0E0138A3E738
:1013D0004046EAE7204694E74146D1E7D0467BE71E
:1013E000023B654432E7084609E76444023842E7B5
:1013F000704700BF00000000000000000000000077
:1014000090F800F06DE9024520F007016FF0000C44
:1014100010F0070491F820F040F049804FF00004EC
:101420006FF00700D1E9002391F840F000F10800C7
:1014300082FA4CF2A4FA8CF283FA4CF3A2FA8CF3FF
:101440004BBBD1E9022382FA4CF200F10800A4FA66
:101450008CF283FA4CF3A2FA8CF3E3B9D1E90423BA
:1014600082FA4CF200F10800A4FA8CF283FA4CF3F1
:10147000A2FA8CF37BB9D1E9062301F1200182FAAB
:101480004CF200F10800A4FA8CF283FA4CF3A2FAB1
:101490008CF3002BC6D0002A04BF04301A4612BABF
:1014A000B2FA82F2FDE8024500EBD2007047D1E9C2
:1014B000002304F00305C4F100004FEAC50514F051
:1014C000040F91F840F00CFA05F562EA05021CBF22
:1014D00063EA050362464FF00004A9E7000000003C
:1014E00001F0FF01102A2BDB10F0070F08D010F8D5
:1014F000013B013A8B422DD010F0070F42B3F6D1D9
:10150000F0B441EA012141EA014122F007047FF0F1
:1015100000070023F0E80256083C85EA010586EA48
:10152000010685FA47F5A3FA87F586FA47F6A5FA84
:1015300087F68EB9EED1F0BC01F0FF0102F0070290
:1015400032B110F8013B013A83EA010313B1F8D13B
:101550000020704701387047002D06BF354603381C
:10156000073815F0010F07D1013015F4807F02BF55
:10157000013015F4C03F0130F0BC0138704700BFA6
:10158000844641EA000313F003036DD1403A41D38E
:1015900051F8043B40F8043B51F8043B40F8043B4D
:1015A00051F8043B40F8043B51F8043B40F8043B3D
:1015B00051F8043B40F8043B51F8043B40F8043B2D
:1015C00051F8043B40F8043B51F8043B40F8043B1D
:1015D00051F8043B40F8043B51F8043B40F8043B0D
:1015E00051F8043B40F8043B51F8043B40F8043BFD
:1015F00051F8043B40F8043B51F8043B40F8043BED
:1016000051F8043B40F8043B51F8043B40F8043BDC
:10161000403ABDD2303211D351F8043B40F8043B7C
:1016200051F8043B40F8043B51F8043B40F8043BBC
:1016300051F8043B40F8043B103AEDD20C3205D38C
:1016400051F8043B40F8043B043AF9D2043208D084
:10165000D2071CBF11F8013B00F8013B01D30B88F6
:1016600003806046704700BF082A13D38B078DD0D4
:1016700010F003038AD0C3F10403D21ADB071CBFA6
:1016800011F8013B00F8013B80D331F8023B20F810
:10169000023B7BE7043AD9D3013A11F8013B00F849
:1016A000013BF9D20B7803704B7843708B788370D1
:1016B000604670474FEA410C7FEA6C5C02D150EA09
:1016C000013C0AD14FEA430C7FEA6C5C02D152EA3A
:1016D000033C02D14FF0000070474FF0010070470B
:1016E00008B5A82000F0F8F903F08CFF044802F0D8
:1016F0009DF900F051FA4FF47A7000F019FA08BD24
:10170000E80B002010B5214B1B78012B04D0022BD5
:1017100013D0032B2AD010BD1D4805F06BFA00230F
:101720006FF031024FF47A61052003F0C7FF03F038
:10173000ADFF164B02221A70EDE7052003F090FF73
:10174000144C2188144805F0F3F92388952BE2D92D
:10175000124805F04FFA0D4B03221A70052003F0D2
:1017600013FF04F0CBFB04F0F5FFD4E70C4805F0C1
:1017700041FA002005F0BCF80128CCD105F082F830
:101780000128C8D1014B00221A70C4E7D8090020F3
:1017900008CD00089610002018CD000830CD0008B4
:1017A00040CD0008002304E0C2180021D1700133AD
:1017B0009BB2202BF8D9552383700023037043700C
:1017C0007047000038B5444B5B78202B40F2838093
:1017D000002417E0414B33F91500FFF729FA4FF0C9
:1017E0006051FFF779FA4FF08341FFF775FA05F181
:1017F0000C02394B43F822000135EDB2022DE9D934
:101800000134E4B2032C62D804EB840304EB4303F9
:10181000314AD118C978927891425CD1591C2E4A2C
:101820000A44D278522A0ED0532A2ED0512AE7D118
:101830000233294A1344294AD3F80300D3F8071086
:1018400003C20025DAE70233234A1344244AD3F8BB
:101850000300D3F8071003C2002513E0204B33F92F
:101860001500FFF7E5F94FF06051FFF735FA1D4914
:10187000FFF732FA05F10E02174B03EB82035860B3
:101880000135EDB2022DE9D9BAE70233124A134409
:10189000154AD3F80300D3F8071003C2002513E05C
:1018A000114B33F91500FFF7C3F94FF06051FFF703
:1018B00013FA0E49FFF710FA05F10802064B03EB85
:1018C000820358600135EDB2022DE9D998E7024B49
:1018D000DA6A074B1A6038BDDC090020240B0020AF
:1018E000340B00200000FA442C0B0020000034438D
:1018F000400B002010B504460021FFF78BFB08B910
:10190000204610BD04F10044FAE70000000000008A
:10191000454B1B78012B00D07047F0B585B00023F4
:10192000019302930393414B1F7847BB3E4B002228
:101930001A7005B0F0BD04EB4403334404AA02EB73
:1019400086053B4A52F8231055F80C0CFFF7BCF8FB
:1019500045F80C0C0134A742EDDC04AB03EB860424
:101960003846FFF765F9014654F80C0CFFF768FAA2
:1019700044F80C0C0136022E03DC0024EBE70026B1
:10198000F9E72C4B19680198FFF79CF8FFF7B2FFB5
:10199000FEF77AFD22A3D3E90023FFF749F8E8B167
:1019A000244B59680298FFF78DF8FFF7A3FFFEF765
:1019B0006BFD1BA3D3E90023FFF73AF870B11D4B71
:1019C00099680398FFF77EF8FFF794FFFEF75CFD38
:1019D00013A3D3E90023FFF72BF890B9164B00228D
:1019E0001A70164805F006F90023022B10DC04AA31
:1019F00002EB830252F80C1C0E4A42F8231001330A
:101A0000F3E70D4B01221A700D4805F0F3F8EBE7F0
:101A10000023064A13700B4A138087E7AFF3008058
:101A20007B14AE47E17A943F240A0020250A002067
:101A3000280A0020180B0020E210002064CD0008C6
:101A400050CD0008E010002000B583B08DF80000F4
:101A50008DF801108DF802208DF803309DF81030BC
:101A60008DF804304FF0FF3305226946024802F03A
:101A70000EFD03B05DF804FB680D002010B582B0C8
:101A8000B523009388236922AA21FF20FFF7DCFFFA
:101A9000C82000F04DF80024009408230122AA2158
:101AA000FF20FFF7D1FFC82000F042F80094042384
:101AB0000122AA21FF20FFF7C7FFC82000F038F855
:101AC000009423462246AA21FF20FFF7BDFFC8202D
:101AD00000F02EF802B010BD10B50446002000F052
:101AE00053FFE408014B1C7010BD00BF3C0B0020ED
:101AF0000E4B1B7800FB03F3013B4FF0E0225361D8
:101B000000239361136943F0010313614FF0E02355
:101B10001B6903F00113012BF8D04FF0E0231A6981
:101B200022F001021A6100229A6170473C0B0020EA
:101B300038B50C4CA4FB0034640A4FF4077505FB60
:101B4000140503E00848FFF7D3FF013C002CF9D14E
:101B500005B938BD4FF47A7005FB00F0FFF7C8FFF8
:101B6000F7E700BF49D6B9F2603D080010B5084C50
:101B70002046FFF717FEFFF781FF06480268D3688B
:101B800043F01003D3602122E11C03F069F810BD7B
:101B9000DC090020680D002008B5FFF7E7FF08BD4D
:101BA00008B5054B1860054B18680023022219463A
:101BB000806805F027F808BD440B00202C000020A9
:101BC000022801D80120704708B504F035FF092329
:101BD0000360002008BD000010B5013801280AD8B4
:101BE00014464FF0FF3392B20748006802F04FFCF2
:101BF00040B9204610BD04F01FFF092303604FF0D9
:101C0000FF30F7E70520F5E7440B0020022801D854
:101C10000020704708B504F00FFF092303604FF060
:101C2000FF3008BD08B504F007FF092303604FF03B
:101C3000FF3008BD08B548B94FF0FF33012208480E
:101C4000006802F08AFC40B9012008BD04F0F4FEEF
:101C5000092303604FF0FF30F7E70520F5E700BFE9
:101C6000440B002008B5022804D84FF400534B6001
:101C7000002008BD04F0E0FE09230360F8E700003F
:101C800000B583B000210191094B1A6B42F4001298
:101C90001A631B6B03F400130193019B0A460C208B
:101CA00000F018FE0C2000F04DFE03B05DF804FBC0
:101CB00000380240F0B58DB00024079408940994D0
:101CC0000A940B940094434B1A6B42F010021A636F
:101CD0001A6B02F010020092009A01941A6B42F003
:101CE00020021A631A6B02F020020192019A0294F8
:101CF0001A6B42F080021A631A6B02F080020292A1
:101D0000029A03941A6B42F001021A631A6B02F0F2
:101D100001020392039A04941A6B42F002021A63BE
:101D20001A6B02F002020492049A05941A6B42F0B4
:101D300004021A631A6B02F004020592059A0694D3
:101D40001A6B42F008021A631B6B03F00803069338
:101D5000069B214F22462021384601F07BF91F4D7A
:101D6000224640F2C311284601F074F901224FF4D3
:101D7000C061284601F06EF91823079308940126E4
:101D8000099607A9384601F073F8202307930896AF
:101D900009940A9407A9384601F06AF8402307938A
:101DA0000894099407A9384601F062F840F2C37319
:101DB0000793089609940A9407A9284601F058F851
:101DC0003C2307930894099607A9284601F050F888
:101DD0000DB0F0BD00380240001002400014024077
:101DE00008B50B480B4B03600B4B4360002383602B
:101DF000C3604FF48042026143618361C361036247
:101E000001F038F900B908BD00F040F8FBE700BF69
:101E1000480B002000540040A086010030B589B076
:101E20000023039304930593069307930268144BCE
:101E30009A4201D009B030BD00250195114C236BA9
:101E400043F002032363236B03F002030193019B1E
:101E5000C0230393122304930323069304230793BD
:101E600003A9094801F004F80295236C43F4001318
:101E70002364236C03F400130293029BDAE700BF90
:101E800000540040003802400004024072B6FEE7F1
:101E900000B595B03022002108A804F0F7FD00231A
:101EA000039304930593069307930193214A116CBE
:101EB00041F080511164126C02F080520192019A3B
:101EC00002931D4B1A6842F480421A601B6803F4A7
:101ED00080430293029B012308934FF480330993BC
:101EE00002230E934FF480020F92082210924FF4B7
:101EF000A872119212930423139308A801F098F981
:101F000098B90F23039302230493002305934FF4FE
:101F1000A05306934FF480530793052103A801F0C3
:101F2000EDFB20B915B05DF804FBFFF7AFFFFFF73D
:101F3000ADFF00BF003802400070004008B51F48E8
:101F4000FFF72EFE00F088FCFFF7A2FFFFF7B2FEBE
:101F5000FFF796FE00F062FA00F07AFA00F0CEF990
:101F600000F0F6F800F01CF900F0A6FAFFF738FFD1
:101F700000F03AFA00F086FA00F0B8FAFFF7B0FB8A
:101F80000F4804F037FE0F4B01221A700E4804F080
:101F900031FE08E0002004F075FC012004F0A8FCEC
:101FA0006420FFF7C5FD02F06FFEFFF7B1FCFFF7FD
:101FB000A9FB044B1B78002BECD0F1E7F80D0020B7
:101FC00078CD0008D809002084CD000882B0002117
:101FD00000910B4B5A6C42F480425A645A6C02F4E2
:101FE00080420092009A01911A6C42F080521A6469
:101FF0001B6C03F080530193019B02B0704700BF3C
:1020000000380240FEE7FEE7FEE7FEE7FEE7704726
:102010007047704708B500F039FC08BD08B50248A4
:1020200000F038FE08BD00BF780C002008B502485B
:1020300002F0F6FB08BD00BFD80C002010B582B03E
:10204000144B1B681A6812F0100F0AD1114C212290
:102050001149204602F004FE204602F0E1FB02B0E6
:1020600010BD002201921A6801925B680193019BE6
:10207000084802F0DBFA094B1B685B68C3F12103D7
:10208000074A5370FFF79EFB4FF40071054800F0BC
:10209000E7FFDBE7680D0020DF090020780C002057
:1020A000DC0900200014024008B5024801F007FDD9
:1020B00008BD00BFE80B00200268074B9A4200D021
:1020C000704710B5054C207803F060F901222146D5
:1020D000034802F060FD10BD001001409810002080
:1020E000D80C00200120704708B504F0A5FC162389
:1020F00003604FF0FF3008BD08B54FF0FF31FFF728
:10210000F3FFFEE710B503460C4A0D490D48006881
:1021100040B10C4800680344521A934206D8094A59
:10212000136010BD0748084C0460F2E704F084FC1B
:102130000C2303604FF0FF30F3E700BF00000220E4
:10214000000400009C0B002040110020704700009C
:1021500000B583B00023009301930F480F4A02603B
:1021600042F2CF02426083606323C36080238361B5
:1021700001F0C0FD50B90023009301936946064861
:1021800001F0D2FF28B903B05DF804FBFFF77EFE33
:10219000F1E7FFF77BFEF6E7E80B002000100040B8
:1021A00000B583B00023009301930F480F4A0260EB
:1021B00042F2CF02426083606323C3608023836165
:1021C00001F098FD50B90023009301936946064839
:1021D00001F0AAFF28B903B05DF804FBFFF756FE33
:1021E000F1E7FFF753FEF6E7300C00200014004043
:1021F00000B585B003681D4A934208D01C4A93423B
:1022000012D01C4A934223D005B05DF804FB002392
:102210000193194B1A6C42F002021A641B6C03F012
:1022200002030193019BEFE700210291124B1A6C0C
:1022300042F010021A641B6C03F010030293029B1D
:102240000A46362000F046FB362000F07BFBDBE739
:1022500000230393084B1A6C42F020021A641B6C93
:1022600003F020030393039BCEE700BF000400406C
:1022700000100040001400400038024030B589B022
:102280000023039304930593069307930268184B66
:102290009A4201D009B030BD0025019503F50D33F8
:1022A0001A6B42F001021A631A6B02F001020192EA
:1022B000019A02951A6B42F002021A631B6B03F03B
:1022C00002030293029BC023039302240494079405
:1022D00003A9084800F0CCFD03230393049405955B
:1022E0000695079403A9044800F0C2FDD2E700BF99
:1022F00000040040000002400004024000B58FB01E
:1023000000230A930B930C930D9308930993019365
:102310000293039304930593069307933048314A3D
:10232000026053224260836044F61F62C260036110
:102330008023836101F0DEFC002839D14FF4805303
:102340000A930AA9264801F0DFFD002833D124486A
:1023500001F0FCFC002831D100230893099308A95F
:102360001F4801F0E1FE60BB60230193002202924E
:102370000392059201A91A4801F04CFD20BB0422EA
:102380000DEB0201164801F045FD00BB082201A932
:10239000134801F03FFDE8B90C2201A9104801F0F3
:1023A00039FDD0B90E48FFF769FF0FB05DF804FBA7
:1023B000FFF76CFDC2E7FFF769FDC8E7FFF766FDB1
:1023C000CAE7FFF763FDCFE7FFF760FDD7E7FFF749
:1023D0005DFDDBE7FFF75AFDDEE7FFF757FDE1E7BD
:1023E000A00B00200004004008B50A480A4B036017
:1023F0004FF4E133436000238360C36003610C2228
:1024000042618361C36102F012F800B908BDFFF7B1
:102410003DFDFBE7B00D0020004C004008B50A4828
:102420000A4B03604FF4E133436000238360C360D1
:1024300003610C2242618361C36101F0F8FF00B9BE
:1024400008BDFFF723FDFBE7F80D0020005000401A
:1024500008B50A480A4B03604FF4E1334360002398
:102460008360C36003610C2242618361C36101F038
:10247000DEFF00B908BDFFF709FDFBE7D80C00201F
:102480000010014008B50A480A4B03604FF4E133DD
:10249000436000238360C36003610C224261836157
:1024A000C36101F0C4FF00B908BDFFF7EFFCFBE713
:1024B000200D00200044004008B50A480A4B036084
:1024C0004FF4E133436000238360C36003610C2257
:1024D00042618361C36101F0AAFF00B908BDFFF743
:1024E000D5FCFBE7680D00200048004008B50A480D
:1024F0000A4B03604FF4E133436000238360C36001
:1025000003610C2242618361C36101F090FF00B955
:1025100008BDFFF7BBFCFBE7400E002000140140A4
:10252000F0B593B000230D930E930F931093119376
:102530000368944A934214D00446934A934232D09B
:10254000924A934267D0924A934200F09080914A17
:10255000934200F0AF80904A934200F0F08013B0B5
:10256000F0BD002100918D4B1A6C42F400221A64D8
:102570001A6C02F400220092009A01911A6B42F048
:1025800001021A631B6B03F001030193019B0323F8
:102590000D9302220E921093082311930DA98048E7
:1025A00000F066FCDBE7002402947C4B1A6C42F4DA
:1025B00080121A641A6C02F480120292029A039436
:1025C0001A6B42F004021A631A6B02F004020392BF
:1025D000039A04941A6B42F008021A631B6B03F00F
:1025E00008030493049B4FF480530D9302270E9726
:1025F00003261096082511950DA96A4800F038FCAD
:1026000004230D930E970F94109611950DA966480B
:1026100000F02EFCA3E700240594604B5A6C42F0B6
:1026200010025A645A6C02F010020592059A069440
:102630001A6B42F001021A631B6B03F0010306934D
:10264000069B4FF4C0630D9302230E930323109354
:10265000072311930DA9524800F00AFC2246214697
:10266000252000F037F9252000F06CF977E70021EC
:1026700007914A4B1A6C42F400321A641A6C02F445
:1026800000320792079A08911A6B42F001021A630E
:102690001B6B03F001030893089B0C230D9302238B
:1026A0000E9303231093072311930DA93C4800F0C8
:1026B000DFFB54E700250995384B1A6C42F4802261
:1026C0001A641A6C02F480220992099A0A951A6B0C
:1026D00042F002021A631B6B03F002030A930A9B87
:1026E0004FF440630D9302230E93032310930723AB
:1026F00011930DA92D4800F0BBFB2D482D4B036015
:102700004FF0006343608560C5604FF480630361F0
:1027100045618561C5610562456200F0C3F958B93C
:10272000234BE3639C6300221146272000F0D2F87C
:10273000272000F007F912E7FFF7A8FBF0E70021D8
:102740000B91164B5A6C42F020025A645A6C02F0FC
:1027500020020B920B9A0C911A6B42F004021A633E
:102760001B6B03F004030C930C9BC0230D930223FB
:102770000E9303231093082311930DA9094800F029
:1027800077FBECE6004C0040005000400010014098
:10279000004400400048004000140140003802405E
:1027A0000000024000080240000C02400004024009
:1027B000780C002028600240DFF834D0FFF7C6FC18
:1027C0000C480D490D4A002302E0D458C45004338C
:1027D000C4188C42F9D30A4A0A4C002301E0136062
:1027E0000432A242FBD304F02DF9FFF7A7FB704798
:1027F0000000022000000020D4090020B8D2000808
:10280000D80900203C110020FEE7000010B5044666
:102810000E4B18784FF47A73B3FBF0F30C4A106840
:10282000B0FBF3F000F09CF868B90F2C01D901203F
:102830000AE0002221464FF0FF3000F04BF8054B34
:102840001C60002000E0012010BD00BF040000203B
:10285000000000200800002008B50B4B1A6842F465
:1028600000721A601A6842F480621A601A6842F4B0
:1028700080721A60032000F01BF80F20FFF7C6FFDC
:10288000FFF7A4FB002008BD003C0240034A11688A
:10289000034B1B780B441360704700BF880E002069
:1028A00004000020014B1868704700BF880E00200C
:1028B000074AD36823F4E0631B041B0C000200F4F6
:1028C000E060034343F0BF6343F40033D3607047D9
:1028D00000ED00E000B5194BDB68C3F30223C3F140
:1028E000070CBCF1040F28BF4FF0040C03F1040ED9
:1028F000BEF1060F18D9033B4FF0FF3E0EFA0CFC59
:1029000021EA0C0199400EFA03F322EA030319436A
:1029100000280BDB0901C9B200F1604000F56140FD
:1029200080F800135DF804FB0023E5E700F00F00DA
:102930000901C9B2024B1954F4E700BF00ED00E0F1
:1029400014ED00E0002807DB00F01F02400901231E
:102950009340024A42F82030704700BF00E100E097
:102960000138B0F1807F0BD24FF0E0235861054A67
:10297000F02182F823100020986107221A61704725
:102980000120704700ED00E0042806D04FF0E0225F
:10299000136923F00403136170474FF0E0221369B9
:1029A00043F004031361704730B405682C6824F4C5
:1029B00080242C60046863608368402B05D0036822
:1029C00099600368DA6030BC704703689A600368F6
:1029D000D960F8E710B40368D9B210390B4AA2FBEA
:1029E000014212090A4CA25CC2655F2908D923F48E
:1029F0007F7323F0030304338365806D10BC70473D
:102A000023F47F7323F003038365F6E7ABAAAAAA36
:102A1000A8CD0008836A826992B9012B0AD0022BE3
:102A200002D00BB100207047C36A13F0807F28D119
:102A300000207047C36AB3F1C07F24D000207047E4
:102A4000B2F5005F09D0022B25D9032B25D1C36A2B
:102A500013F0807F23D100207047032B03D8DFE8D9
:102A600003F01404140A00207047C36A13F0807F37
:102A70000DD100207047C36AB3F1C07F09D0002098
:102A800070470120704701207047012070470120E6
:102A900070470120704701207047002070470120D7
:102AA0007047000070B50446FFF7FCFE002C5BD0B9
:102AB0000546022384F83530002384F83430226838
:102AC000136823F00103136023681A6812F0010FE2
:102AD0000AD0FFF7E7FE431B052BF5D920236365DA
:102AE000032084F8350070BD1A68204810406168E2
:102AF000A2680A43E1680A4321690A4361690A43FB
:102B0000A1690A43E1690A43216A0A430243616AEF
:102B100004291ED01A602668756925F00705636AC6
:102B20001D43042B07D1A36A1D43E36A1BB1204652
:102B3000FFF770FF90B975612046FFF74BFFE26D1C
:102B40003F239340836000206065012384F8353083
:102B5000C9E7E16A206B01430A43DBE74023636571
:102B6000012084F83500BEE70120BCE73F8010F06B
:102B700038B50446856D90F8340001282BD001202B
:102B800084F8340094F83500C0B2012804D0002342
:102B900084F83430022038BD022084F8350000204B
:102BA00060652046FFF700FFE26D3F239340AB6076
:102BB0002268136843F016031360236C23B1226864
:102BC000136843F0080313602268136843F001039D
:102BD00013600020DFE70220DDE770B50446866D54
:102BE000FFF760FE94F83530DBB2022B06D080236D
:102BF0006365002384F83430012070BD05462268E7
:102C0000136823F0160313602268536923F08003CE
:102C10005361236CE3B12268136823F00803136047
:102C20002268136823F00103136023681B6813F004
:102C3000010F11D0FFF736FE431B052BF5D92023DA
:102C40006365032084F83500002384F83430D4E72A
:102C5000A36C002BDFD1E3E7E26D3F239340B36029
:102C6000012384F83530002084F83400C5E790F85B
:102C70003530DBB2022B03D080234365012070473F
:102C8000052380F835300268136823F001031360D0
:102C900000207047F0B583B0044600230193724BC7
:102CA0001D68724BA3FB0535AD0A876D3E68C26D8A
:102CB00008239340334210D003681A6812F0040FBF
:102CC0000BD01A6822F004021A60C26D08239340E8
:102CD000BB60436D43F001034365E26D0123934004
:102CE000334209D02268526912F0800F04D0BB60D1
:102CF000636D43F002036365E26D04239340334246
:102D000009D02268126812F0020F04D0BB60636D14
:102D100043F004036365E26D10239340334224D0F3
:102D20002268126812F0080F1FD0BB6023681A686F
:102D300012F4802F0DD01B6813F4002F04D1236CE4
:102D40009BB12046984710E0A36C73B1204698478A
:102D50000BE01A6812F4807F03D11A6822F008028F
:102D60001A60236C0BB120469847E26D20239340F4
:102D7000334255D02268126812F0100F50D0BB6059
:102D800094F83530DBB2052B0ED023681A6812F4A4
:102D9000802F33D01B6813F4002F2AD1636C002BD3
:102DA0003ED0204698473BE02268136823F0160384
:102DB00013602268536923F080035361236CA3B12D
:102DC0002268136823F008031360E26D3F239340E9
:102DD000BB60012384F83530002384F83430236D40
:102DE000002B3FD0204698473CE0A36C002BE7D156
:102DF000EBE7E36BA3B12046984711E01A6812F4A1
:102E0000807F09D11A6822F010021A60012384F829
:102E10003530002384F83430E36B0BB120469847FB
:102E2000636DFBB1636D13F0010F17D0052384F8B8
:102E300035302268136823F001031360019B0133CE
:102E40000193AB4204D823681B6813F0010FF5D13E
:102E5000012384F83530002384F83430E36C0BB15F
:102E60002046984703B0F0BD00000020B5814E1BFE
:102E700000230F2B00F2E48070B582B060E085681B
:102E80005E000324B44025EA0405CC68B4402C431A
:102E90008460456825EA02054C68C4F300129A4034
:102EA0002A4342605AE0DC08083450F8246003F0FA
:102EB000070295000F22AA4026EA020E0A69AA40DC
:102EC00042EA0E0240F824205CE0072200E00022E3
:102ED00002FA0EF22A4302345A4D45F824205A4A87
:102EE00094686FEA0C0224EA0C054E6816F4801F01
:102EF00001D04CEA0405544CA560E46802EA0405DC
:102F00004E6816F4001F01D04CEA04054E4CE560F3
:102F1000646802EA04054E6816F4003F01D04CEAEA
:102F20000405494C6560246822404D6815F4803FD3
:102F300001D04CEA0402444C226001330F2B7DD8AF
:102F400001229A400C6804EA020C32EA0404F4D12B
:102F50004C6804F00304013C012C90D94A6802F04B
:102F60000302032A09D0C4685D000322AA4024EAB0
:102F700002048A68AA402243C2604A6802F003023F
:102F8000022A90D004684FEA430E032202FA0EF29E
:102F900024EA02044A6802F0030202FA0EF2224313
:102FA00002604A6812F4403FC7D000220192274ACB
:102FB000546C44F480445464526C02F48042019294
:102FC000019A9C08A51C1F4A52F8255003F00302E1
:102FD0004FEA820E0F2202FA0EF225EA02051C4A7F
:102FE00090423FF474AF02F5806290421AD002F52D
:102FF0008062904218D002F58062904216D002F5AD
:103000008062904214D002F58062904212D002F5A4
:103010008062904210D002F5806290423FF455AF3A
:10302000082255E7012253E7022251E703224FE726
:1030300004224DE705224BE7062249E702B070BDA6
:10304000704700BF00380140003C0140003802409A
:10305000000002400AB18161704709048161704734
:10306000436901EA030221EA030141EA0241816165
:1030700070470000002800F0CC8070B5044690F83E
:103080003D30002B77D0242384F83D30226813682C
:1030900023F0010313602268136843F400431360B4
:1030A0002268136823F40043136000F0DDFB6268BC
:1030B0005A4B9A4264D85A4B98428CBF0023012342
:1030C000002B40F0A8805749A1FB00318B0C2568EC
:1030D0006A6822F03F0242EA91426A6021680A6A05
:1030E00022F03F0266684D4DAE424FD80133134384
:1030F0000B622168CA6922F44F4222F0FF0266681F
:10310000464B9E424CD8431E7600B3FBF6F3013388
:1031100040F6FC70034278D0C3F30B031343CB613A
:1031200021680B6823F0C003E269206A024313435D
:103130000B6021688B6823F4034323F0FF032269AB
:10314000E068024313438B602168CB6823F0FF03E0
:103150006269A06902431343CB602268136843F09D
:103160000103136000202064202384F83D30206395
:1031700084F83E0070BD80F83C30FEF74FFE82E7D9
:10318000294B98428CBF0023012399E74FF4967591
:1031900005FB03F3254DA5FB03539B090133A6E76C
:1031A000A368BBB9451E06EB460CB5FBFCF5013523
:1031B000C5F30B05B5FA85F56D0945BBC3B90138F3
:1031C00006EB4603B0FBF3F30133C3F30B0343F405
:1031D0000043A3E7451E06EB860C0CEB8C0CB5FBFD
:1031E000FCF50135C5F30B05B5FA85F56D09E4E786
:1031F000013806EB860303EB8303B0FBF3F30133E3
:10320000C3F30B0343F4404388E7042386E7012319
:1032100084E7012070470120ACE700BFA0860100D1
:103220007F841E0083DE1B43FF083D00D34D6210E8
:10323000002800F0E08170B582B00446036813F006
:10324000010F3BD09F4B9B6803F00C03042B2CD049
:103250009C4B9B6803F00C03082B21D06368B3F5EB
:10326000803F4FD0B3F5A02F52D0964B1A6822F46E
:1032700080321A601A6822F480221A606368002B78
:1032800050D0FFF70FFB05468E4B1B6813F4003F31
:1032900014D1FFF707FB401B6428F5D90320B1E1E7
:1032A000884B5B6813F4800FD8D0864B1B6813F4EF
:1032B000003F03D06368002B00F09F81236813F068
:1032C000020F54D07F4B9B6813F00C0F3ED07D4B08
:1032D0009B6803F00C03082B33D0E368002B68D005
:1032E000794B01221A60FFF7DDFA0546754B1B6822
:1032F00013F0020F54D1FFF7D5FA401B0228F5D97D
:1033000003207FE16F4A136843F480331360B5E70D
:103310006C4B1A6842F480221A601A6842F48032B8
:103320001A60ABE7FFF7BEFA0546664B1B6813F45D
:10333000003FC3D0FFF7B6FA401B6428F5D903203D
:1033400060E1604B5B6813F4800FC6D15D4B1B6876
:1033500013F0020F03D0E368012B40F05081594A6B
:10336000136823F0F803216943EAC103136023685B
:1033700013F0080F42D063696BB3534B0122C3F8BB
:10338000802EFFF78FFA05464E4B5B6F13F0020F4E
:1033900034D1FFF787FA401B0228F5D9032031E129
:1033A000484A136823F0F803216943EAC103136014
:1033B000DDE7454B00221A60FFF774FA0546414BE2
:1033C0001B6813F0020FD2D0FFF76CFA401B0228E3
:1033D000F5D9032016E13C4B0022C3F8802EFFF7FD
:1033E00061FA0546374B5B6F13F0020F06D0FFF70B
:1033F00059FA401B0228F5D9032003E1236813F092
:10340000040F77D02F4B1B6C13F0805F33D1002358
:1034100001932C4B1A6C42F080521A641B6C03F01F
:1034200080530193019B0125284B1B6813F4807F77
:1034300023D0A368012B34D0052B38D0214B1A6F31
:1034400022F001021A671A6F22F004021A67A368B9
:10345000002B3DD0FFF726FA06461A4B1B6F13F0E0
:10346000020F46D1FFF71EFA801B41F288339842C3
:10347000F3D90320C6E00025D6E7144A136843F4C5
:1034800080731360FFF70EFA0646104B1B6813F4A7
:10349000807FCED1FFF706FA801B0228F5D90320E2
:1034A000B0E0084A136F43F001031367CFE7054B01
:1034B0001A6F42F004021A671A6F42F001021A678B
:1034C000C5E700BF003802400000474200700040DE
:1034D000FFF7E8F90646524B1B6F13F0020F08D0B6
:1034E000FFF7E0F9801B41F288339842F3D90320BB
:1034F00088E0EDB9A369002B00F08380484A926808
:1035000002F00C02082A51D0022B17D0454B0022A2
:103510001A66FFF7C7F90446414B1B6813F0007F9A
:1035200042D0FFF7BFF9001B0228F5D9032069E05C
:103530003B4A136C23F080531364DBE7394B0022C2
:103540001A66FFF7AFF90546354B1B6813F0007F8D
:1035500006D0FFF7A7F9401B0228F5D9032051E058
:10356000E369226A1343626A43EA8213A26A520839
:10357000013A43EA0243E26A43EA0263284A53609B
:10358000284B01221A66FFF78DF90446244B1B686D
:1035900013F0007F06D1FFF785F9001B0228F5D94B
:1035A00003202FE000202DE000202BE0012B2BD06A
:1035B0001B4B5B6803F48001E269914226D103F062
:1035C0003F02216A8A4223D1616A47F6C0721A40DB
:1035D000B2EB811F1ED103F44031A26A5208013AB6
:1035E000B1EB024F18D103F07063E26AB3EB026FE4
:1035F00014D1002006E001207047012002E00120E4
:1036000000E0002002B070BD0120FBE70120F9E7D7
:103610000120F7E70120F5E70120F3E70120F1E7BA
:10362000003802400000474208B5314B9B6803F068
:103630000C03042B57D0082B57D12D4B5A6802F09E
:103640003F025B6813F4800F2AD0294B5968C1F3FD
:10365000881C4FEA4C11B1EB0C006EEB0E0E4FEADA
:103660008E1343EA90638101091A63EB0E03DB00BA
:1036700043EA5173C90011EB0C0C43F100035902EA
:1036800000234FEA4C2041EADC51FDF731FD184B95
:103690005B68C3F3014301335B00B0FBF3F025E04B
:1036A000134B5968C1F3881C4FEA4C11B1EB0C0065
:1036B0006EEB0E0E4FEA8E1343EA90638101091AF6
:1036C00063EB0E03DB0043EA5173C90011EB0C0CF2
:1036D00043F10003990200234FEA8C2041EA9C51F8
:1036E000FDF706FDD3E7034800E0034808BD00BF2F
:1036F0000038024000127A000024F400002800F094
:103700009B8070B50D4604464F4B1B6803F00703C2
:103710008B4208D2CBB24C4A1370136803F00703F4
:103720008B4240F08B80236813F0020F17D013F008
:10373000040F04D0454A936843F4E0539360236830
:1037400013F0080F04D0414A936843F46043936038
:103750003E4A936823F0F003A1680B43936023680B
:1037600013F0010F32D06368012B21D09A1E012A79
:1037700025D9364A126812F0020F61D033498A689F
:1037800022F0030213438B60FFF78CF806462F4BA1
:103790009B6803F00C036268B3EB820F16D0FFF74F
:1037A00081F8801B41F288339842F0D9032042E02F
:1037B000264A126812F4003FE0D101203BE0234A80
:1037C000126812F0007FD9D1012034E01E4B1B6833
:1037D00003F00703AB4207D9EAB21B4B1A701B6810
:1037E00003F00703AB422DD1236813F0040F06D07A
:1037F000164A936823F4E053E1680B43936023680F
:1038000013F0080F07D0114A936823F4604321692D
:1038100043EAC1039360FFF707FF0C4B9B68C3F3B8
:1038200003130B4AD35CD8400A4B18600A4B186844
:10383000FEF7ECFF002070BD012070470120FAE781
:103840000120F8E70120F6E7003C02400038024082
:1038500090CD00080000002008000020014B1868EF
:10386000704700BF0000002008B5FFF7F7FF044BCA
:103870009B68C3F38223034AD35CD84008BD00BFD2
:1038800000380240A0CD000808B5FFF7E7FF044B61
:103890009B68C3F34233034AD35CD84008BD00BFE2
:1038A00000380240A0CD000830B4036A026A22F05A
:1038B000010202624268846924F073040D682C439B
:1038C00023F0020C8B6843EA0C03104DA84203D08E
:1038D00005F58065A84205D123F00803CD682B4388
:1038E00023F00403094DA84203D005F58065A842E2
:1038F00005D122F440724D692A438D692A43426002
:1039000084614A684263036230BC70470000014032
:1039100030B4036A026A22F4807202624268C469A7
:1039200024F0730C0C6844EA0C0523F400738C68D3
:1039300043EA0423114CA04203D004F58064A04262
:1039400006D123F40063CC6843EA042323F48063A4
:103950000A4CA04203D004F58064A04207D122F4AF
:1039600040524C6942EA04128C6942EA04124260F5
:10397000C5614A68C263036230BC70470000014001
:1039800030B4036A026A22F4805202624468C26957
:1039900022F4E6420D6842EA052223F400538D68C2
:1039A00043EA0533094DA84203D005F58065A842D6
:1039B00004D124F480444D6944EA85144460C26112
:1039C0004A680264036230BC704700BF00000140D7
:1039D00010B4036A046A24F001040462846924F0C8
:1039E000F00C4CEA021223F00A030B4382610362DB
:1039F00010BC704710B4036A046A24F01004046217
:103A0000846924F4704C4CEA023223F0A00343EAA8
:103A100001138261036210BC7047836823F0700356
:103A20000B4343F0070383607047000090F83D307C
:103A3000DBB2012B37D1022380F83D300268D36816
:103A400043F00103D3600368194A934220D0B3F1D5
:103A5000804F1DD0A2F57C42934219D002F58062BE
:103A6000934215D002F58062934211D002F578425C
:103A700093420DD002F57052934209D0A2F59432D0
:103A8000934205D01A6842F001021A600020704784
:103A90009A6802F00702062A07D01A6842F001026B
:103AA0001A6000207047012070470020704700BF57
:103AB000000001407047704770477047704770B50D
:103AC00004460368DE681D6915F0020F10D016F079
:103AD000020F0DD06FF002021A6101230377036811
:103AE0009B6913F0030F5ED0FFF7E6FF00232377F7
:103AF00015F0040F12D016F0040F0FD023686FF0EA
:103B000004021A610223237723689B6913F4407F20
:103B10004FD02046FFF7D0FF0023237715F0080F82
:103B200012D016F0080F0FD023686FF008021A6148
:103B3000042323772368DB6913F0030F40D020466A
:103B4000FFF7BAFF0023237715F0100F12D016F0FD
:103B5000100F0FD023686FF010021A61082323772B
:103B60002368DB6913F4407F31D02046FFF7A4FFC0
:103B70000023237715F0010F02D016F0010F2DD18D
:103B800015F0800F02D016F0800F2FD115F0400FE6
:103B900002D016F0400F31D115F0200F02D016F0F0
:103BA000200F33D170BDFFF786FF2046FFF785FF5A
:103BB0009CE72046FFF77FFF2046FFF77EFFABE73D
:103BC0002046FFF778FF2046FFF777FFBAE7204649
:103BD000FFF771FF2046FFF770FFC9E723686FF01A
:103BE00001021A61204602F007FAC9E723686FF064
:103BF00080021A61204600F0DEFAC7E723686FF002
:103C000040021A612046FFF759FFC5E723686FF0AD
:103C100020021A61204600F0CDFAC3E70368344A57
:103C2000904212D0B0F1804F0FD0A2F57C4290426A
:103C30000BD002F58062904207D002F5806290427C
:103C400003D002F57842904203D123F070034A6812
:103C50001343274A90422AD0B0F1804F27D0A2F5D3
:103C60007C42904223D002F5806290421FD002F540
:103C7000806290421BD002F57842904217D002F544
:103C80007052904213D002F5806290420FD002F53C
:103C9000806290420BD0A2F59832904207D002F594
:103CA0008062904203D002F58062904203D123F4F7
:103CB0004073CA68134323F080034A6913430360C7
:103CC0008B68C3620B688362094B984203D003F58B
:103CD0008063984201D10B69036301234361036947
:103CE00013F0010F03D0036923F001030361704750
:103CF0000000014040B310B5044690F83D30F3B1E8
:103D0000022384F83D30214651F8040BFFF786FF6B
:103D1000012384F8463084F83E3084F83F3084F83C
:103D2000403084F8413084F8423084F8433084F8DD
:103D3000443084F8453084F83D30002010BD80F8D0
:103D40003C30FEF755FADBE70120704740B310B571
:103D5000044690F83D30F3B1022384F83D3021460B
:103D600051F8040BFFF75AFF012384F8463084F81A
:103D70003E3084F83F3084F8403084F8413084F895
:103D8000423084F8433084F8443084F8453084F875
:103D90003D30002010BD80F83C30FFF78BFEDBE7A4
:103DA0000120704730B4036A026A22F010020262F6
:103DB0004468826922F4E6420D6842EA052223F053
:103DC00020038D6843EA0513114DA84203D005F581
:103DD0008065A84206D123F08003CD6843EA05132D
:103DE00023F040030A4DA84203D005F58065A842A0
:103DF00007D124F440644D6944EA85048D6944EA9E
:103E00008504446082614A688263036230BC704703
:103E10000000014038B590F83C30012B66D00446D4
:103E20000D46012380F83C300C2A5AD8DFE802F016
:103E3000075959591B595959305959594400006863
:103E4000FFF732FD2268936943F00803936122680B
:103E5000936923F0040393612268936929690B43F2
:103E6000936100203EE00068FFF79CFF22689369A1
:103E700043F4006393612268936923F48063936140
:103E800022689369296943EA01239361002029E0AC
:103E90000068FFF73DFD2268D36943F00803D36152
:103EA0002268D36923F00403D3612268D3692969A6
:103EB0000B43D361002015E00068FFF761FD226825
:103EC000D36943F40063D3612268D36923F4806328
:103ED000D3612268D369296943EA0123D3610020B1
:103EE00000E00120002384F83C3038BD0220FCE7CC
:103EF00010B4846824F47F4C42EA03220A4342EA65
:103F00000C02826010BC704790F83C30012B78D0D6
:103F100010B50446012380F83C30022380F83D3080
:103F20000268936823F47F4323F0770393600B6860
:103F3000602B4CD029D8402B54D00CD9502B22D1F7
:103F4000CA6849680068FFF743FD50212068FFF701
:103F500064FD002005E0202B0DD009D9302B0AD0BC
:103F60000120012384F83D30002384F83C3010BD4B
:103F70000BB1102B05D119462068FFF74EFD00202C
:103F8000EFE70120EDE70120EBE7B3F5805F34D0E8
:103F9000B3F5005F0CD1CB684A6889680068FFF709
:103FA000A7FF2268936843F4804393600020D8E71A
:103FB000702B24D1CB684A6889680068FFF798FFA6
:103FC0002268936843F0770393600020C9E7CA68CA
:103FD00049680068FFF70EFD60212068FFF71DFDAE
:103FE0000020BEE7CA6849680068FFF7F1FC40217D
:103FF0002068FFF712FD0020B3E70020B1E70120A1
:10400000AFE70220704701F01F01012303FA01FC12
:10401000036A23EA0C030362036A02FA01F10B4309
:104020000362704710B504460846002942D194F84F
:104030003E30DBB2013B18BF0123002B6ED10028BC
:1040400051D1022384F83E30012201462068FFF757
:10405000DAFF2368334A934203D002F58062934229
:1040600003D15A6C42F400425A6423682D4A9342A9
:1040700049D0B3F1804F46D0A2F57C42934242D062
:1040800002F5806293423ED002F5806293423AD0BC
:1040900002F57842934236D002F57052934232D004
:1040A000A2F5943293422ED01A6842F001021A60AF
:1040B000002032E0042908D008290DD094F84130BE
:1040C000DBB2013B18BF0123B7E794F83F30DBB206
:1040D000013B18BF0123B0E794F84030DBB2013B4D
:1040E00018BF0123A9E7042805D0082807D0022318
:1040F00084F84130A8E7022384F83F30A4E7022384
:1041000084F84030A0E79A6802F00702062A07D038
:104110001A6842F001021A60002010BD0120FCE77D
:104120000020FAE70000014090F83C30012B3CD021
:1041300010B4012380F83C30022380F83D3003683E
:104140005A689C6822F0700C0A6842EA0C025A60B5
:104150000368174A93421AD0B3F1804F17D0A2F5E3
:104160007C42934213D002F5806293420FD002F555
:10417000806293420BD002F57842934207D002F559
:104180007052934203D0A2F59432934204D124F0AA
:1041900080044A6814439C60012380F83D3000236A
:1041A00080F83C30184610BC70470220704700BFB2
:1041B0000000014070477047026802F10C0353E8A9
:1041C000003F23F0C0030C3242E800310029F3D154
:1041D000202380F841307047026802F10C0353E855
:1041E000003F23F490730C3242E800310029F3D1F0
:1041F000026802F1140353E8003F23F00103143274
:1042000042E800310029F3D1036B012B05D02023B4
:1042100080F84230002303637047026802F10C0308
:1042200053E8003F23F010030C3242E8003100292C
:10423000F3D1ECE790F84130DBB2212B01D0022022
:1042400070478368B3F5805F17D0036A5A1C026217
:104250001A7803685A60C38C9BB2013B9BB2C3843B
:104260004BB90268D36823F08003D3600268D36837
:1042700043F04003D360002070470369002BE4D172
:10428000036A1B880268C3F308035360036A02339E
:104290000362E0E738B504460268136923F440532B
:1042A000C1680B4313618368026913434269134376
:1042B000C2691A430168CB6823F4164323F00C0348
:1042C0001343CB600268536923F4407381690B4345
:1042D00053610368314A934206D002F580629342EB
:1042E00002D0FFF7C1FA01E0FFF7CEFAE369B3F5B8
:1042F000004F29D00021031849411B1841F100014A
:10430000C90041EA5371DB00181863684FEA830261
:104310004FEA937341F10001FCF7EAFE204DA5FB43
:1043200000325109642303FB11031B013233A5FB47
:1043300003235B0903F0F00202EB011203F00F0309
:10434000216813448B6038BD0023021843EB03013E
:10435000121841F10001C90041EA5271D20010184F
:1043600041F10001626892185B41FCF7C1FE0C4DFF
:10437000A5FB00325109642303FB1103DB00323338
:10438000A5FB03235B095A0002F4F87202EB011249
:1043900003F00703216813448B60D4E70010014049
:1043A0001F85EB512DE9F04383B005460E461746B5
:1043B0009946DDF828802C68246836EA04030CBF8F
:1043C0004FF0010C4FF0000CBC4528D1B8F1FF3F75
:1043D000F1D0FEF767FAA0EB0900404523D8B8F109
:1043E000000F22D02B68DA6812F0040FE3D0802E81
:1043F000E1D0402EDFD01A6812F0080FDBD0002485
:1044000001941A6801925B680193019B2846FFF7AB
:10441000E3FE08236B6485F84040012000E00020A3
:1044200003B0BDE8F0830320FAE70320F8E760B3A8
:1044300010B5044690F8413013B3242384F841307A
:104440002268D36823F40053D3602046FFF722FF8D
:104450002268136923F4904313612268536923F09F
:104460002A0353612268D36843F40053D3600020C9
:104470006064202384F8413084F84230606310BDCA
:1044800080F84030FEF74CF8D7E7012070472DE95F
:10449000F04182B01E4690F84130DBB2202B56D15D
:1044A00004460D469046002955D00AB901204FE038
:1044B00000234364212380F84130FEF7F3F90746D7
:1044C000A4F82480A4F82680A368B3F5805F02D006
:1044D0004FF0000814E023692BB34FF000080FE001
:1044E000202384F84130032032E038F8023B226870
:1044F000C3F308035360E28C92B2013A92B2E284B1
:10450000E38C9BB293B100963B460022802120466B
:10451000FFF748FF0028E3D1002DE6D015F8012B66
:1045200023685A60E7E7A8460025E9E700963B467E
:10453000002240212046FFF735FF18B9202384F8D8
:10454000413005E0202384F84130032000E00220C0
:1045500002B0BDE8F0810120FAE72DE9F04182B018
:104560001E4690F84230DBB2202B59D104460D464E
:104570009046002958D00AB9012052E00023436434
:10458000222280F842200363FEF78CF90746A4F844
:104590002C80A4F82E80A368B3F5805F02D04FF082
:1045A00000081CE0236913B14FF0000817E0A8468B
:1045B000002514E0202384F84230032031E02368F2
:1045C0005B68C3F3080328F8023B03E023685B68D9
:1045D0002B700135E28D92B2013A92B2E285E38D01
:1045E0009BB2C3B100963B46002220212046FFF734
:1045F000D9FE0028DED1002DE1D0A368B3F5805F9D
:10460000E4D013B92369002BE0D023685B6803F082
:104610007F032B70DDE7202384F84230002000E088
:10462000022002B0BDE8F0810120FAE710B504468F
:1046300003685A6990F84130DBB2212B0AD0236815
:104640005A6902F0400294F84230DBB2222B19D0B2
:10465000002010BD02F08002002AF0D0226802F192
:10466000140353E8003F23F08003143242E8003182
:104670000029F3D1A06B08B1FEF7AFFA2046FFF78F
:104680009BFDDCE7002AE3D0226802F1140353E823
:10469000003F23F04003143242E800310029F3D1F7
:1046A000E06B08B1FEF799FA2046FFF795FDCFE7DA
:1046B000704708B50168CA6822F04002CA6020222B
:1046C00080F84120FFF7F4FF002008BD70477047D5
:1046D00010B5846B23685A6994F84130DBB2212B02
:1046E00010D023685A6902F0400294F84230DBB2DD
:1046F000222B11D0636C43F0100363642046FFF754
:10470000E6FF10BD02F08002002AEAD00023E38415
:104710002046FFF751FDE4E7002AEBD00023E385B4
:104720002046FFF759FDE5E708B5806B0023C385F8
:10473000C384FFF7CCFF08BD704790F84230DBB26E
:10474000222B69D18368B3F5805F4FD0826AB3F5BD
:10475000805F04D0002B56D10369002B53D103682E
:104760005B681370836A01338362C38D9BB2013B24
:104770009BB2C385002B51D100B583B00268D368CA
:1047800023F02003D3600268D36823F48073D360DE
:104790000268536923F001035361202380F84230FB
:1047A00000234363036B012B33D1002303630268AF
:1047B00002F10C0353E8003F23F010030C3242E8EF
:1047C00000310029F3D103681A6812F0100F06D0E7
:1047D000002201921A6801925B680193019B818D0E
:1047E000FFF7AAFF002003B05DF804FB0269002A6E
:1047F000ACD1826A03685B68C3F308031380836AE1
:1048000002338362B1E703685B6803F07F031370D0
:10481000A8E7FDF751FCE5E702207047002070474C
:1048200030B583B0044602681368D068516913F04C
:104830000F0505D113F0200F02D010F0200F19D171
:104840002DB111F0010119D110F4907F16D1216B17
:1048500001297DD013F0800F03D010F0800F40F0BD
:10486000198113F0400F03D010F0400F40F0168173
:1048700003B030BD2046FFF760FFF9E713F0010FEA
:1048800006D010F4807F03D0626C42F001026264B3
:1048900013F0040F04D019B1626C42F0020262649A
:1048A00013F0020F04D019B1626C42F0040262648A
:1048B00013F0080F07D010F0200F00D119B1626C6F
:1048C00042F008026264626C002AD1D013F0200F1B
:1048D00002D010F0200F29D123685B6903F0400358
:1048E000626C12F0080F00D163B32046FFF774FC2E
:1048F00023685B6913F0400F20D0226802F1140393
:1049000053E8003F23F04003143242E8003100290D
:10491000F3D1E36B73B1634A1A65E06BFEF7A7F955
:104920000028A5D0E06B036D9847A1E72046FFF76C
:1049300004FFD1E72046FFF7CAFE99E72046FFF7BC
:10494000C6FE95E72046FFF7C2FE002363648FE7AB
:1049500013F0100F3FF47EAF10F0100F3FF47AAF5A
:10496000002301931368019353680193019B5369DA
:1049700013F0400F52D0E26B13685B689BB2002BC0
:104980003FF476AFA18D99427FF672AFE385D3698C
:10499000B3F5807F37D0226802F10C0353E8003F63
:1049A00023F480730C3242E800310029F3D12268ED
:1049B00002F1140353E8003F23F00103143242E8EC
:1049C00000310029F3D1226802F1140353E8003FBB
:1049D00023F04003143242E800310029F3D12023B0
:1049E00084F8423000232363226802F10C0353E869
:1049F000003F23F010030C3242E800310029F3D1CC
:104A0000E06BFEF7EAF802236363A18DE38D9BB2AE
:104A1000C91A89B22046FFF78FFE29E7A18DE38DE1
:104A20009BB2C91A89B2E38D9BB2002B3FF420AF31
:104A300000293FF41DAF226802F10C0353E8003F48
:104A400023F490730C3242E800300028F3D122683E
:104A500002F1140353E8003F23F00103143242E84B
:104A600000300028F3D1202384F842300023236350
:104A7000226802F10C0353E8003F23F010030C32CC
:104A800042E800300028F3D1022363632046FFF799
:104A900053FEEDE62046FFF7CDFBE9E62046FFF7A3
:104AA00008FEE5E62947000808B5806B012343634B
:104AB000036B012B02D0FFF709FE08BD818D490869
:104AC000FFF73AFEF9E708B50346806B1B681B68E1
:104AD00013F4807F2BD10023C385026802F10C03FD
:104AE00053E8003F23F480730C3242E80031002980
:104AF000F3D1026802F1140353E8003F23F00103ED
:104B0000143242E800310029F3D1026802F11403A3
:104B100053E8003F23F04003143242E800310029FB
:104B2000F3D1202380F84230036B012B07D0002300
:104B30004363036B012B0FD0FDF7BEFA08BD02687B
:104B400002F10C0353E8003F23F010030C3242E85B
:104B500000310029F3D1EAE7818DFFF7EDFDEDE7A4
:104B600081628285C28500234364222380F842301B
:104B7000036923B10268D36843F48073D360026889
:104B8000536943F0010353610268D36843F0200383
:104B9000D3600020704708B590F84230DBB2202B7C
:104BA00008D149B10AB9012008BD00230363FFF70A
:104BB000D7FFF9E70220F7E70120F5E730B583B02A
:104BC000044613468162828500254564222280F8CE
:104BD0004220C26B1F48D063E26B1F481064E26B37
:104BE0001E48D064E26B156520680A46011DE06B23
:104BF000FDF7BEFF019523681A6801925B68019377
:104C0000019B23695BB1226802F10C0353E8003F6A
:104C100043F480730C3242E800310029F3D122685A
:104C200002F1140353E8003F43F00103143242E859
:104C300000310029F3D1226802F1140353E8003F48
:104C400043F04003143242E800310029F3D1002040
:104C500003B030BDC74A0008A94A0008D146000881
:104C600008B590F84230DBB2202B08D149B10AB91F
:104C7000012008BD00230363FFF7A0FFF9E702202E
:104C8000F7E70120F5E7000010B59A4B1B78002BE1
:104C900040F0A080984BDC221A80984B78221A8032
:104CA000974B96221A80974B64221A80964B322299
:104CB0001A80964BFA221A80954BE6221A80954B61
:104CC0001B78002B40F0E980934B1B78A3B10122A5
:104CD0009249CA5492480488924921F81340924953
:104CE000B1F800C0914C24F813C000238A4C237003
:104CF00003800B80874B1A70884B5B784BB38C4BCF
:104D00004FF47A721A808B4B1B78002B40F0228173
:104D1000844BB3F9020028B1844BB3F90230002B65
:104D200040F0C28018B1814BB3F902308BB9002832
:104D300040F0CC807D4BB3F90210002940F0D080C8
:104D40007D4B01221A707B4B02221A707B4801F0C6
:104D500051FF724B9B783BB1794B1B78002B00F0D5
:104D60003B81012B00F048816C4BDB78ABB1754B7C
:104D70001B78002B40F059816A4BB3F90630002BA9
:104D800000F04581012B00F04981664BB3F9062004
:104D90006D4B1A706B4B01221A70604B1B79002B04
:104DA00000F08081694B1B78002B40F079815D4BCE
:104DB000B3F90830002B00F06A81012B40F07281BA
:104DC000012001F095FD012840F06C815F4B01222C
:104DD0001A7067E1012B1ED0022B30D0032B45D077
:104DE000042B7FF46CAF444B4FF4A0721A80434BFA
:104DF000D2221A80424BB4221A80424B6E221A8071
:104E0000414B41221A80414B4FF482721A80404B31
:104E1000EB221A8053E7FA23374A13809622374948
:104E20000A8037490A80374A64211180364A322184
:104E30001180364A1380364BE6221A803FE72E4B0C
:104E40004FF48C721A802D4BB4221A802C4B962270
:104E50001A802C4B64221A802B4B37221A802B4B42
:104E6000FA221A802A4BE6221A8028E7224B4FF4B6
:104E700096721A80214BD2221A80214B96221A80D8
:104E8000204B64221A80204B3C221A801F4BFA22AE
:104E90001A801F4BE6221A8011E7012000F0CAFB9E
:104EA000052000F0C7FB0FE7144B1B88124AB2F92C
:104EB00000200021C00100F00BFD01231E4A1370E9
:104EC0001C4A1370224801F095FE42E70B4B1B88E9
:104ED000094AB2F900200021C00100F0F9FC2FE7D7
:104EE000064B1B88044AB2F90020C901002000F0DB
:104EF000EFFC25E71A000020100000200C00002025
:104F0000120000200E0000201400002018000020D5
:104F1000160000208D0E002084100020201000209C
:104F200086100020900E002088100020580F0020CE
:104F3000D41000208D100020D2100020C0CD000819
:104F40008C100020901000208C0E00208F1000206C
:104F5000B0CD0008012B20D0022B7FF4FAAE9C4B81
:104F60001B78012B07D09B4B1B7823B19A4B1B78E6
:104F7000012B7FF4EEAE0024964B1C70974B1C70F7
:104F8000974B5C70974801F035FE974B1C704FF4BF
:104F900000719648FEF764F8DBE68D4B1B78012B19
:104FA00007D08C4B1B7823B18B4B1B78012B7FF4E4
:104FB000D0AE8F4BB3F902108E4B1B888E4AB2F9DC
:104FC0000020C901002000F083FC844B02221A70EB
:104FD0008A4801F00FFEBCE6894B1A88894B198874
:104FE000894BB3F9040000F0B7FD01287FF4BCAE93
:104FF000864B01221A70B7E60024844B1C70784B54
:105000009C70834801F0F6FD774B1C70ACE6814B39
:105010001988814B188800F08FFFB6E67D4B198800
:105020007D4B188800F098FFAFE6012B7FF4B5AEFA
:10503000754BB3F90630794A1278934207D0C3B161
:10504000012B1DD0704BB3F90620744B1A70744BB2
:105050001B78012B7FF4A1AE0024724B1C70604BB7
:10506000DC70714801F0C6FD5F4B1C706B4B1C700F
:1050700093E6684B1988684B188800F05DFFE1E7FC
:10508000644B1988644B188800F066FFDAE700204B
:1050900001F02EFC012805D1644B01221A7001E0B9
:1050A000012B42D04E4B5B798BB1574BB3F90A00C1
:1050B000C0B25F4B18704E4BB3F90A10C9B25D4BCA
:1050C00019705D4B1B78002B3AD0012B44D0444B18
:1050D0009B798BB14C4BB3F90C00C0B2574B187095
:1050E000434BB3F90C10C9B2554B1970554B1B7893
:1050F000002B40D0012B4AD0394BDB79002B55D106
:10510000374B5B7A002B00F0D5803F4BB3F9120090
:10511000052800F3A580364BB3F91230052B00F3B8
:105120009F80494B96221A809EE000243F4B1C70C2
:105130002B4B1C71454801F05DFD2B4B1C70B1E7FA
:10514000344B1B88344A128801F01AF80128BED16A
:10515000394B01221A70BAE70024374B1C70344BCC
:105160001C70344B1C701E4B5C71394801F042FDC1
:105170001D4B1C70ABE7274B1B88274A128801F098
:105180004BF90128B8D12F4B01221A70B4E7002443
:105190002C4B1C70294B1C70294B1C70104B9C71A4
:1051A0002C4801F027FD104B1C70A5E7144B198803
:1051B000294B188800F064FD0128A1D10024084B78
:1051C000DC71264801F016FD074B1C7098E700BF04
:1051D00099100020D2100020E21000208D10002035
:1051E00020100020F0CD00088D0E00200014024099
:1051F000580F00200C00002010000020E0CD000817
:105200000E00002014000020900E00208C100020C2
:10521000FCCD000816000020180000208C0E002095
:105220001C0000209010002008CE00088F100020E5
:1052300092100020941000208E1000209110002069
:10524000931000208B100020D410002014CE0008F2
:1052500020CE00082CCE00081200002038CE000816
:105260003C4B4FF4C8721A803B4B1B78002B34D157
:1052700018B13A4BB3F91230EBB918B1374BB3F957
:105280001230BBB900EB4004344BB3F9121001EB00
:10529000410C334B1B88334AB2F9002001EB8C01DF
:1052A00000EB840000F014FB2B4B02221A702E4BF3
:1052B00001221A7010BD00EB4004294B1B88294ABB
:1052C000B2F90020002100EB840000F001FB012373
:1052D000214A1370244A1370ECE7012B19D0022BDA
:1052E000E8D1224B1B78012B06D01F4B1B781BB13A
:1052F0001F4B1B78012BDDD100241B4B1C70164B60
:105300001C701C4B5C721C4801F074FC1B4B1C7025
:10531000D0E7164B1B78012B06D0134B1B781BB123
:10532000134B1B78012BC5D10C4BB3F9121001EBB9
:1053300041000B4B1B880B4AB2F9002001EB8001A6
:10534000002000F0C5FA044B02221A70064B01221D
:105350001A70AFE7D41000208A100020580F0020E8
:105360000E00002012000020D21000209910002012
:10537000E21000202010002044CE00088D0E0020F6
:10538000002800DB70474042FCE7000010B5634B8B
:105390001B781BB9012808D0052806D0012B0FD097
:1053A0005E4B1B78022B2DD010BD5C4B01221A7076
:1053B0005B4A1378591C11705A4A22F81300EFE720
:1053C00057490A78531CDBB20B70564921F812007A
:1053D000092B15D86B28E3D1002406E0514B33F894
:1053E0001410514801F0A4FB01344D4B1B78A3422B
:1053F000F4DC4E4801F0FEFB484B02221A70CFE766
:105400000024F2E7464B1B78013B464A32F8133042
:105410006B2B08D00023414A1370414A1370444A51
:105420000221117076E000233D4A13703B4A13704D
:105430003C4B1B88012B05D0052B2AD0052B4BD0CC
:1054400000235EE0374A52883A2AF5D1384B1A7861
:10545000384B1A70334B9B88012B03D0032B08D099
:10546000002313E0324B00221A70334801F0C2FBD4
:10547000F6E72F4B01221A70304801F0BBFBEFE733
:10548000284A002122F813100133DBB2032BF7D98D
:105490008AE7244A52883A2AD0D1224B9B88012B92
:1054A00003D0032B08D0002313E0254B00221A70F1
:1054B000244801F09FFBF6E7214B01221A70224895
:1054C00001F098FBEFE7174A002122F8131001338F
:1054D000DBB2032BF7D967E7124B5B88272B01D090
:1054E00000230EE00F4B9A88B3F9063043EA0223FB
:1054F000164A138058E70B4A002122F81310013393
:10550000DBB2092BF7D94FE7064A002122F8131026
:105510000133DBB2092BF7D946E700BFB1100020F9
:10552000B01000209C10002050CE000890CE000843
:10553000991000201B00002054CE000864CE000803
:105540001C00002070CE000884CE000896100020B9
:1055500008B50B490870F3234B70AB238B70012304
:10556000CB7000230B716B234B714FF47A730622BF
:105570000448FEF78CFF0A20FCF7DAFA08BD00BFEA
:10558000B4100020D80C0020F8B50546124C20704D
:10559000FE2363709823A3700023E3706B272771A9
:1055A0000E4E4FF47A73052221463046FEF76FFF08
:1055B0000A20FCF7BDFA25700A2565706D23A370DB
:1055C000E7704FF47A73042221463046FEF75FFFFE
:1055D0002846FCF7ADFAF8BDB4100020D80C002026
:1055E00008B50120FFF7B4FF0220FFF7B1FF032049
:1055F000FFF7AEFF0420FFF7ABFF0520FFF7A8FF82
:1056000008BD000008B509480268D36843F02003CC
:10561000D36001220649FFF7BEFA0020FFF7B4FF6E
:105620006420FCF785FAFFF7DBFF08BDD80C0020EB
:105630009810002008B5084908703A234B706B2376
:105640008B704FF47A7303220448FEF720FF142076
:10565000FCF76EFA08BD00BFB4100020D80C002083
:1056600008B50849087027234B706B238B704FF4E3
:105670007A7303220448FEF70AFF1420FCF758FA55
:1056800008BD00BFB4100020D80C002008B509499F
:1056900000230B70FF234B7066238B706B23CB7042
:1056A0004FF47A7304220448FEF7F1FE0A20FCF757
:1056B0003FFA08BDB4100020D80C0020F8B505460C
:1056C0000C4616461F461046FFF75AFE83B21E4A86
:1056D0001570FD215170012D05D0032D03D0002E32
:1056E00027DB012202E0002E21DB002216498A700E
:1056F0001B0ACB7008714F71230E8B71C4F30743E3
:10570000CB71C4F307230B724C7200238B720123FD
:10571000CB726B230B734FF47A730D220B48FEF799
:10572000B6FE012D07D00A20FCF702FAF8BD0122CF
:10573000DCE70022DAE7064C002525700A20FCF79A
:10574000F7F92570EFE700BFB4100020D80C002057
:1057500099100020F8B506460D4614461F46184617
:10576000FFF70EFE83B2254A1570FD2151705EB918
:10577000012D05D0032D03D0002F07DB012605E006
:10578000002F03DA012601E0012E22D01B498E7082
:105790001B0ACB7008719DF818304B71230E8B716A
:1057A000C4F30743CB71C4F307230B724C7200237D
:1057B0008B720123CB726B230B734FF47A730D2220
:1057C0000F48FEF764FE012D0FD00A20FCF7B0F958
:1057D000F8BD012D05D0042D03D0002FD6DA002608
:1057E000D4E7002FD2DB0026D0E7064C0025257039
:1057F0000A20FCF79DF92570E7E700BFB4100020F0
:10580000D80C002099100020F8B504460D46164625
:105810001F461046FFF7B4FD83B2274A1470FD21DE
:105820005170012C05D0032C03D0002E28DB01225F
:1058300002E0002E22DB00221F498A701B0ACB7077
:1058400008714F712B0E8B71C5F30743CB71C5F3F4
:1058500007230B724D7201238B72CB726B230B7378
:105860004FF47A730D221548FEF711FE0A20FCF75B
:105870005FF9012C06D0052C11D0F8BD0122DBE721
:105880000022D9E700230E4A137005E00D4A0021DB
:1058900022F813100133DBB2032BF7D9EBE7002317
:1058A000094A137005E0074A002122F8131001335A
:1058B000DBB2032BF7D9E0E7B4100020D80C0020AE
:1058C000991000209C1000201C0000200000000007
:1058D0002DE9F04F85B00C4615469B46064600B1B3
:1058E00031B116B9002C40F0A48005B0BDE8F08FAE
:1058F0000F1A3846FFF744FD00FB05FA04FB04F0DD
:1059000006FB0600FAF7AEFD8046894607F000F96F
:105910008BA3D3E90023FAF70FFECDE9020150462D
:10592000FAF790FDDDE90223FAF730FFFBF79EF866
:10593000029006EB040A5046FFF722FD00FB05F536
:105940004046494607F0E4F87DA3D3E90023FAF77F
:10595000F3FD804689462846FAF774FD42464B46D9
:10596000FAF714FFFBF782F8BAF1000F2FDB05B24C
:105970005FFA8BF8CDF800802B46524601210020BB
:10598000FFF7E8FECDF800802B46524604210020A8
:10599000FFF7E0FE6C4801F02DF9002F31DBBDF977
:1059A00008405FFA8BF5009523463A460221002015
:1059B000FFF7D0FE009523463A4603210020FFF76B
:1059C000C9FE624801F016F9FFF760FE8DE7CAF1E3
:1059D000000A404205B25FFA8BF8CDF800802B46F2
:1059E000524601210020FFF7B5FECDF800802B467E
:1059F000524604210020FFF7ADFE554801F0FAF8A9
:105A0000CBE7341B029B5D422DB25FFA8BF600960A
:105A10002B46224602210020FFF79CFE00962B46D3
:105A2000224603210020FFF795FE4A4801F0E2F8E4
:105A3000CAE7A01BFFF7A4FC00FB05F704FB04F07A
:105A400006FB0600FAF70EFD8046894607F060F86F
:105A50003BA3D3E90023FAF76FFDCDE902013846F5
:105A6000FAF7F0FCDDE90223FAF790FEFAF7FEFF01
:105A7000824626443046FFF783FC074600FB05F5C7
:105A80004046494607F044F82DA3D3E90023FAF72E
:105A900053FD804689462846FAF7D4FC42464B46D9
:105AA000FAF774FEFAF7E2FF002C23DB04B25FFA88
:105AB0008BF500952346324601210846FFF74AFE42
:105AC0000FFA8AFA00955346324602210120FFF769
:105AD00041FE00955346324603210120FFF73AFE6E
:105AE00000952346324604210120FFF733FEFFF7DD
:105AF000CDFDFAE6404205B25FFA8BF400942B46E6
:105B00003A4601210846FFF725FECAF1000A0FFABE
