:020000040800F2
:1000000000000220A52A0008191F00081B1F000875
:100010001D1F00081F1F0008211F0008000000000E
:10002000000000000000000000000000231F000886
:10003000251F000800000000271F0008291F0008D6
:10004000F52A0008F52A0008F52A0008F52A000814
:10005000F52A0008F52A0008F52A0008F52A000804
:10006000F52A0008F52A0008F52A0008F52A0008F4
:10007000311F0008F52A0008F52A0008F52A0008B3
:10008000F52A0008F52A0008F52A0008F52A0008D4
:10009000F52A0008F52A0008F52A0008F52A0008C4
:1000A000F52A0008F52A0008F52A0008F52A0008B4
:1000B000F52A0008F52A0008F52A0008F52A0008A4
:1000C000F52A0008F52A0008F52A0008F52A000894
:1000D000F52A0008F52A0008411F0008511F0008F2
:1000E000F52A0008F52A0008F52A0008F52A000874
:1000F000C11F0008F52A0008F52A0008F52A0008A3
:10010000F52A0008F52A0008F52A0008F52A000853
:10011000E11F0008F11F000801200008112000085D
:10012000F52A0008F52A0008F52A0008F52A000833
:10013000F52A0008F52A0008F52A0008F52A000823
:10014000F52A0008F52A0008F52A0008F52A000813
:10015000F52A0008F52A0008F52A0008F52A000803
:10016000F52A0008F52A0008F52A0008F52A0008F3
:10017000F52A0008F52A0008F52A0008000000000A
:08018000F52A0008F52A000829
:1001C00081F0004102E000BF83F0004330B54FEA08
:1001D00041044FEA430594EA050F08BF90EA020F75
:1001E0001FBF54EA000C55EA020C7FEA645C7FEA08
:1001F000655C00F0E2804FEA5454D4EB5555B8BF2B
:100200006D420CDD2C4480EA020281EA030382EA9B
:10021000000083EA010180EA020281EA0303362D2D
:1002200088BF30BD11F0004F4FEA01314FF4801C00
:100230004CEA113102D0404261EB410113F0004F12
:100240004FEA03334CEA133302D0524263EB4303C9
:1002500094EA050F00F0A780A4F10104D5F1200E67
:100260000DDB02FA0EFC22FA05F2801841F10001C2
:1002700003FA0EF2801843FA05F359410EE0A5F196
:1002800020050EF1200E012A03FA0EFC28BF4CF0C7
:10029000020C43FA05F3C01851EBE37101F000457D
:1002A00007D54FF0000EDCF1000C7EEB00006EEB8A
:1002B0000101B1F5801F1BD3B1F5001F0CD3490814
:1002C0005FEA30004FEA3C0C04F101044FEA44526B
:1002D00012F5800F80F09A80BCF1004F08BF5FEAF2
:1002E000500C50F1000041EB045141EA050130BDD2
:1002F0005FEA4C0C404141EB0101013C28BFB1F5E4
:10030000801FE9D291F0000F04BF01460020B1FA2E
:1003100081F308BF2033A3F10B03B3F120020CDA01
:100320000C3208DD02F1140CC2F10C0201FA0CF0DF
:1003300021FA02F10CE002F11402D8BFC2F1200C44
:1003400001FA02F120FA0CFCDCBF41EA0C019040FA
:10035000E41AA2BF01EB0451294330BD6FEA040443
:100360001F3C1CDA0C340EDC04F11404C4F120022E
:1003700020FA04F001FA02F340EA030021FA04F340
:1003800045EA030130BDC4F10C04C4F1200220FA97
:1003900002F001FA04F340EA0300294630BD21FAD5
:1003A00004F0294630BD94F0000F83F4801306BF9B
:1003B00081F480110134013D4EE77FEA645C18BF8F
:1003C0007FEA655C29D094EA050F08BF90EA020F26
:1003D00005D054EA000C04BF1946104630BD91EA1E
:1003E000030F1EBF0021002030BD5FEA545C05D121
:1003F0004000494128BF41F0004130BD14F5800460
:100400003CBF01F5801130BD01F0004545F0FE41D3
:1004100041F470014FF0000030BD7FEA645C1ABF08
:10042000194610467FEA655C1CBF0B46024650EA3F
:10043000013406BF52EA033591EA030F41F400216B
:1004400030BD00BF90F0000F04BF0021704730B5F1
:100450004FF4806404F132044FF000054FF00001C6
:1004600050E700BF90F0000F04BF0021704730B587
:100470004FF4806404F1320410F0004548BF40425C
:100480004FF000013EE700BF42004FEAE2014FEAB1
:1004900031014FEA02701FBF12F07F4393F07F4F8C
:1004A00081F06051704732F07F4208BF704793F08F
:1004B0007F4F04BF41F40021704730B54FF46074A2
:1004C00001F0004521F000411CE700BF50EA0102A5
:1004D00008BF704730B54FF000050AE050EA01024E
:1004E00008BF704730B511F0004502D5404261EBBE
:1004F00041014FF4806404F132045FEA915C3FF4FF
:10050000D8AE4FF003025FEADC0C18BF03325FEA9B
:10051000DC0C18BF033202EBDC02C2F1200300FA4C
:1005200003FC20FA02F001FA03FE40EA0E0021FA71
:1005300002F11444BDE600BF70B54FF0FF0C4CF45F
:10054000E06C1CEA11541DBF1CEA135594EA0C0F11
:1005500095EA0C0F00F0DEF82C4481EA030621EA4C
:100560004C5123EA4C5350EA013518BF52EA033587
:1005700041F4801143F4801338D0A0FB02CE4FF039
:100580000005E1FB02E506F00042E0FB03E54FF069
:100590000006E1FB03569CF0000F18BF4EF0010E61
:1005A000A4F1FF04B6F5007F64F5407404D25FEA5D
:1005B0004E0E6D4146EB060642EAC62141EA555110
:1005C0004FEAC52040EA5E504FEACE2EB4F1FD0C52
:1005D00088BFBCF5E06F1ED8BEF1004F08BF5FEAD0
:1005E000500E50F1000041EB045170BD06F0004682
:1005F00046EA010140EA020081EA0301B4EB5C042F
:10060000C2BFD4EB0C0541EA045170BD41F4801126
:100610004FF0000E013C00F3AB8014F1360FDEBF4B
:10062000002001F0004170BDC4F10004203C35DA27
:100630000C341BDC04F11404C4F1200500FA05F3AA
:1006400020FA04F001FA05F240EA020001F000424B
:1006500021F0004110EBD37021FA04F642EB0601C1
:100660005EEA430E08BF20EAD37070BDC4F10C04EB
:10067000C4F1200500FA04F320FA05F001FA04F2AF
:1006800040EA020001F0004110EBD37041F100019B
:100690005EEA430E08BF20EAD37070BDC4F12005A6
:1006A00000FA05F24EEA020E20FA04F301FA05F20E
:1006B00043EA020321FA04F001F0004121FA04F2B6
:1006C00020EA020000EBD3705EEA430E08BF20EA86
:1006D000D37070BD94F0000F0FD101F000464000C0
:1006E00041EB010111F4801F08BF013CF7D041EA42
:1006F000060195F0000F18BF704703F00046520046
:1007000043EB030313F4801F08BF013DF7D043EA16
:100710000603704794EA0C0F0CEA135518BF95EACC
:100720000C0F0CD050EA410618BF52EA4306D1D153
:1007300081EA030101F000414FF0000070BD50EA72
:10074000410606BF1046194652EA430619D094EAFC
:100750000C0F02D150EA013613D195EA0C0F05D1E6
:1007600052EA03361CBF104619460AD181EA03013A
:1007700001F0004141F0FE4141F470014FF00000F2
:1007800070BD41F0FE4141F4780170BD70B54FF08D
:10079000FF0C4CF4E06C1CEA11541DBF1CEA13550D
:1007A00094EA0C0F95EA0C0F00F0A7F8A4EB0504EF
:1007B00081EA030E52EA03354FEA013100F08880E6
:1007C0004FEA03334FF0805545EA131343EA1263AF
:1007D0004FEA022245EA111545EA10654FEA002664
:1007E0000EF000419D4208BF964244F1FD0404F51D
:1007F000407402D25B084FEA3202B61A65EB030579
:100800005B084FEA32024FF480104FF4002CB6EB35
:10081000020E75EB030E22BFB61A754640EA0C00B5
:100820005B084FEA3202B6EB020E75EB030E22BFF5
:10083000B61A754640EA5C005B084FEA3202B6EB36
:10084000020E75EB030E22BFB61A754640EA9C00F5
:100850005B084FEA3202B6EB020E75EB030E22BFC5
:10086000B61A754640EADC0055EA060E18D04FEA83
:10087000051545EA16754FEA06164FEAC30343EA23
:1008800052734FEAC2025FEA1C1CC0D111F4801FF0
:100890000BD141EA00014FF000004FF0004CB6E7E9
:1008A00011F4801F04BF01430020B4F1FD0C88BF88
:1008B000BCF5E06F3FF6AFAEB5EB030C04BFB6EB93
:1008C000020C5FEA500C50F1000041EB045170BD86
:1008D0000EF0004E4EEA113114EB5C04C2BFD4EBB3
:1008E0000C0541EA045170BD41F480114FF0000E37
:1008F000013C90E645EA060E8DE60CEA135594EAB3
:100900000C0F08BF95EA0C0F3FF43BAF94EA0C0FB5
:100910000AD150EA01347FF434AF95EA0C0F7FF42A
:1009200025AF104619462CE795EA0C0F06D152EA7E
:1009300003353FF4FDAE1046194622E750EA410662
:1009400018BF52EA43067FF4C5AE50EA41047FF473
:100950000DAF52EA43057FF4EBAE12E74FEA4102D6
:1009600012F5001215D211D56FF47873B3EB625201
:1009700012D94FEAC12343F0004343EA505311F028
:10098000004F23FA02F018BF404270474FF00000BA
:10099000704750EA013005D111F0004008BF6FF0F8
:1009A000004070474FF00000704700BF80F00040EB
:1009B00002E000BF81F0004142001FBF5FEA410337
:1009C00092EA030F7FEA226C7FEA236C6AD04FEA37
:1009D0001262D2EB1363C1BFD2184140484041407C
:1009E000B8BF5B42192B88BF704710F0004F40F42E
:1009F000000020F07F4018BF404211F0004F41F44A
:100A0000000121F07F4118BF494292EA030F3FD015
:100A1000A2F1010241FA03FC10EB0C00C3F1200328
:100A200001FA03F100F0004302D5494260EB4000B7
:100A3000B0F5000F13D3B0F1807F06D340084FEA22
:100A4000310102F10102FE2A51D2B1F1004F40EB17
:100A5000C25008BF20F0010040EA0300704749007F
:100A600040EB0000013A28BFB0F5000FEDD2B0FA1C
:100A700080FCACF1080CB2EB0C0200FA0CF0AABF3F
:100A800000EBC25052421843BCBFD04018437047DD
:100A900092F0000F81F4000106BF80F400000132E3
:100AA000013BB5E74FEA41037FEA226C18BF7FEABA
:100AB000236C21D092EA030F04D092F0000F08BFFC
:100AC0000846704790EA010F1CBF0020704712F0E3
:100AD0007F4F04D1400028BF40F00040704712F122
:100AE00000723CBF00F50000704700F0004343F087
:100AF000FE4040F4000070477FEA226216BF0846BD
:100B00007FEA23630146420206BF5FEA412390EA7F
:100B1000010F40F4800070474FF0000304E000BF75
:100B200010F0004348BF40425FEA000C08BF704726
:100B300043F0964301464FF000001CE050EA0102EA
:100B400008BF70474FF000030AE000BF50EA0102FF
:100B500008BF704711F0004302D5404261EB4101EC
:100B60005FEA010C02BF84460146002043F0B64311
:100B700008BFA3F18053A3F50003BCFA8CF2083A36
:100B8000A3EBC25310DB01FA02FC634400FA02FC3F
:100B9000C2F12002BCF1004F20FA02F243EB020046
:100BA00008BF20F00100704702F1200201FA02FCA8
:100BB000C2F1200250EA4C0021FA02F243EB02009B
:100BC00008BF20EADC7070474FF0FF0C1CEAD052DF
:100BD0001EBF1CEAD15392EA0C0F93EA0C0F6FD0A0
:100BE0001A4480EA010C400218BF5FEA41211ED07E
:100BF0004FF0006343EA501043EA5111A0FB01316A
:100C00000CF00040B1F5000F3EBF490041EAD3713E
:100C10005B0040EA010062F17F02FD2A1DD8B3F1BA
:100C2000004F40EBC25008BF20F00100704790F029
:100C3000000F0CF0004C08BF49024CEA502040EA7B
:100C400051207F3AC2BFD2F1FF0340EAC250704741
:100C500040F400004FF00003013A5DDC12F1190F7F
:100C6000DCBF00F000407047C2F10002410021FAF1
:100C700002F1C2F1200200FA02FC5FEA310040F109
:100C8000000053EA4C0308BF20EADC70704792F082
:100C9000000F00F0004C02BF400010F4000F013ABA
:100CA000F9D040EA0C0093F0000F01F0004C02BFB5
:100CB000490011F4000F013BF9D041EA0C018FE724
:100CC0000CEAD15392EA0C0F18BF93EA0C0F0AD02A
:100CD00030F0004C18BF31F0004CD8D180EA010050
:100CE00000F00040704790F0000F17BF90F0004FE9
:100CF000084691F0000F91F0004F14D092EA0C0FCB
:100D000001D142020FD193EA0C0F03D14B0218BF5D
:100D1000084608D180EA010000F0004040F0FE40A3
:100D200040F40000704740F0FE4040F4400070473F
:100D30004FF0FF0C1CEAD0521EBF1CEAD15392EABE
:100D40000C0F93EA0C0F69D0A2EB030280EA010CAE
:100D500049024FEA402037D04FF0805343EA111147
:100D600043EA10130CF000408B4238BF5B0042F1A5
:100D70007D024FF4000C8B4224BF5B1A40EA0C004A
:100D8000B3EB510F24BFA3EB510340EA5C00B3EB7C
:100D9000910F24BFA3EB910340EA9C00B3EBD10F6A
:100DA00024BFA3EBD10340EADC001B0118BF5FEABC
:100DB0001C1CE0D1FD2A3FF650AF8B4240EBC250E5
:100DC00008BF20F0010070470CF0004C4CEA5020A6
:100DD0007F32C2BFD2F1FF0340EAC250704740F4F5
:100DE00000004FF00003013A37E792F0000F00F0E7
:100DF000004C02BF400010F4000F013AF9D040EA65
:100E00000C0093F0000F01F0004C02BF490011F4F8
:100E1000000F013BF9D041EA0C0195E70CEAD153F0
:100E200092EA0C0F08D142027FF47DAF93EA0C0FD7
:100E30007FF470AF084676E793EA0C0F04D14B02BB
:100E40003FF44CAF08466EE730F0004C18BF31F06D
:100E5000004CCAD130F000427FF45CAF31F0004367
:100E60007FF43CAF5FE700BF4FF0FF3C06E000BF00
:100E70004FF0010C02E000BF4FF0010C4DF804CD23
:100E80004FEA40024FEA41037FEA226C18BF7FEA33
:100E9000236C11D001B052EA530C18BF90EA010F35
:100EA00058BFB2EB030088BFC81738BF6FEAE170C4
:100EB00018BF40F0010070477FEA226C02D15FEA60
:100EC000402C05D17FEA236CE4D15FEA412CE1D0CC
:100ED0005DF8040B704700BF844608466146FFE793
:100EE0000FB5FFF7C9FF002848BF10F1000F0FBD75
:100EF0004DF808EDFFF7F4FF0CBF012000205DF86E
:100F000008FB00BF4DF808EDFFF7EAFF34BF0120F2
:100F100000205DF808FB00BF4DF808EDFFF7E0FF8B
:100F200094BF012000205DF808FB00BF4DF808EDDC
:100F3000FFF7D2FF94BF012000205DF808FB00BF3F
:100F40004DF808EDFFF7C8FF34BF012000205DF821
:100F500008FB00BF4FEA4002B2F1FE4F0FD34FF043
:100F60009E03B3EB12620DD94FEA002343F0004316
:100F700010F0004F23FA02F018BF404270474FF0C4
:100F80000000704712F1610F01D1420205D110F04B
:100F9000004008BF6FF0004070474FF000007047FE
:100FA00042000ED2B2F1FE4F0BD34FF09E03B3EBD3
:100FB000126209D44FEA002343F0004323FA02F0FF
:100FC00070474FF00000704712F1610F01D14202EB
:100FD00002D14FF0FF3070474FF00000704700BF64
:100FE00053B94AB9002908BF00281CBF4FF0FF3190
:100FF0004FF0FF3000F074B9ADF1080C6DE904CE8C
:1010000000F006F8DDF804E0DDE9022304B07047E3
:101010002DE9F047089E0D4604468846002B4DD129
:101020008A42944668D9B2FA82F252B101FA02F3C6
:10103000C2F1200120FA01F10CFA02FC41EA030896
:1010400094404FEA1C45210CB8FBF5FE1FFA8CF7C3
:1010500005FB1E8341EA03430EFB07F199420BD9BE
:101060001CEB03030EF1FF3080F01E81994240F229
:101070001B81AEF1020E63445B1AA4B2B3FBF5F020
:1010800005FB103344EA034400FB07F7A7420AD9E3
:101090001CEB040400F1FF3380F00881A74240F20A
:1010A000058164440238E41B40EA0E4000211EB171
:1010B000D4400023C6E90043BDE8F0878B4208D93D
:1010C000002E00F0EE800021C6E900050846BDE8CC
:1010D000F087B3FA83F100294AD1AB4202D38242AE
:1010E00000F2F980841A65EB030301209846002E74
:1010F000E2D0C6E90048DFE702B9FFDEB2FA82F2C9
:10110000002A40F09180A1EB0C054FEA1C471FFA22
:101110008CFE0121B5FBF7F307FB1350250C45EAC4
:1011200000450EFB03F0A84208D91CEB050503F1AE
:10113000FF3802D2A84200F2CB8043462D1AA4B257
:10114000B5FBF7F007FB105544EA05440EFB00FE23
:10115000A64508D91CEB040400F1FF3502D2A645D0
:1011600000F2BB802846A4EB0E0440EA03409EE751
:10117000C1F120078B4022FA07FC4CEA030C20FA4D
:1011800007F405FA01F31C43FD404FEA1C4900FA3D
:1011900001F3B5FBF9F8200C1FFA8CFE09FB18557A
:1011A00040EA054508FB0EF0A84202FA01F20BD90D
:1011B0001CEB050508F1FF3A80F08880A84240F258
:1011C0008580A8F1020865442D1AA4B2B5FBF9F098
:1011D00009FB105544EA054500FB0EFEAE4508D953
:1011E0001CEB050500F1FF346CD2AE456AD902381C
:1011F000654440EA0840A0FB0294A5EB0E05A54219
:10120000C846A64656D353D05EB1B3EB080265EB91
:101210000E0505FA07F722FA01F3CD401F43C6E990
:1012200000750021BDE8F087C2F1200320FA03F128
:101230000CFA02FC25FA03F395400D434FEA1C47D4
:101240001FFA8CFEB3FBF7F107FB11302B0C43EABE
:10125000004301FB0EF0984204FA02F408D91CEB9B
:10126000030301F1FF382FD298422DD9023963448C
:101270001B1AADB2B3FBF7F007FB103345EA034589
:1012800000FB0EF3AB4208D91CEB050500F1FF385B
:1012900016D2AB4214D902386544ED1A40EA014136
:1012A00038E73146304607E78646E5E61846FAE66F
:1012B0004B45A9D2B9EB020864EB0C0E0138A3E749
:1012C0004046EAE7204694E74146D1E7D0467BE72F
:1012D000023B654432E7084609E76444023842E7C6
:1012E000704700BF00000000000000000000000088
:1012F00000000000000000000000000000000000EE
:1013000090F800F06DE9024520F007016FF0000C45
:1013100010F0070491F820F040F049804FF00004ED
:101320006FF00700D1E9002391F840F000F10800C8
:1013300082FA4CF2A4FA8CF283FA4CF3A2FA8CF300
:101340004BBBD1E9022382FA4CF200F10800A4FA67
:101350008CF283FA4CF3A2FA8CF3E3B9D1E90423BB
:1013600082FA4CF200F10800A4FA8CF283FA4CF3F2
:10137000A2FA8CF37BB9D1E9062301F1200182FAAC
:101380004CF200F10800A4FA8CF283FA4CF3A2FAB2
:101390008CF3002BC6D0002A04BF04301A4612BAC0
:1013A000B2FA82F2FDE8024500EBD2007047D1E9C3
:1013B000002304F00305C4F100004FEAC50514F052
:1013C000040F91F840F00CFA05F562EA05021CBF23
:1013D00063EA050362464FF00004A9E7000000003D
:1013E00001F0FF01102A2BDB10F0070F08D010F8D6
:1013F000013B013A8B422DD010F0070F42B3F6D1DA
:10140000F0B441EA012141EA014122F007047FF0F2
:1014100000070023F0E80256083C85EA010586EA49
:10142000010685FA47F5A3FA87F586FA47F6A5FA85
:1014300087F68EB9EED1F0BC01F0FF0102F0070291
:1014400032B110F8013B013A83EA010313B1F8D13C
:101450000020704701387047002D06BF354603381D
:10146000073815F0010F07D1013015F4807F02BF56
:10147000013015F4C03F0130F0BC0138704700BFA7
:10148000844641EA000313F003036DD1403A41D38F
:1014900051F8043B40F8043B51F8043B40F8043B4E
:1014A00051F8043B40F8043B51F8043B40F8043B3E
:1014B00051F8043B40F8043B51F8043B40F8043B2E
:1014C00051F8043B40F8043B51F8043B40F8043B1E
:1014D00051F8043B40F8043B51F8043B40F8043B0E
:1014E00051F8043B40F8043B51F8043B40F8043BFE
:1014F00051F8043B40F8043B51F8043B40F8043BEE
:1015000051F8043B40F8043B51F8043B40F8043BDD
:10151000403ABDD2303211D351F8043B40F8043B7D
:1015200051F8043B40F8043B51F8043B40F8043BBD
:1015300051F8043B40F8043B103AEDD20C3205D38D
:1015400051F8043B40F8043B043AF9D2043208D085
:10155000D2071CBF11F8013B00F8013B01D30B88F7
:1015600003806046704700BF082A13D38B078DD0D5
:1015700010F003038AD0C3F10403D21ADB071CBFA7
:1015800011F8013B00F8013B80D331F8023B20F811
:10159000023B7BE7043AD9D3013A11F8013B00F84A
:1015A000013BF9D20B7803704B7843708B788370D2
:1015B000604670474FF0FF3C06E000BF4FF0010C63
:1015C00002E000BF4FF0010C4DF804CD4FEA410C92
:1015D0007FEA6C5C4FEA430C18BF7FEA6C5C1BD05F
:1015E00001B050EA410C0CBF52EA430C91EA030FE0
:1015F00002BF90EA020F0020704710F1000F91EA3D
:10160000030F58BF994208BF90422CBFD8176FEA0A
:10161000E37040F0010070474FEA410C7FEA6C5CD8
:1016200002D150EA013C07D14FEA430C7FEA6C5CDF
:10163000D6D152EA033CD3D05DF8040B704700BF0B
:101640008446104662468C461946634600E000BF59
:1016500001B5FFF7B7FF002848BF10F1000F01BD2B
:101660004DF808EDFFF7F4FF0CBF012000205DF8F6
:1016700008FB00BF4DF808EDFFF7EAFF34BF01207B
:1016800000205DF808FB00BF4DF808EDFFF7E0FF14
:1016900094BF012000205DF808FB00BF4DF808ED65
:1016A000FFF7CEFF94BF012000205DF808FB00BFCC
:1016B0004DF808EDFFF7C4FF34BF012000205DF8AE
:1016C00008FB00BF4FEA410C7FEA6C5C02D150EA94
:1016D000013C0AD14FEA430C7FEA6C5C02D152EA2A
:1016E000033C02D14FF0000070474FF001007047FB
:1016F00008B5A82000F098F800F0E0F84FF47A70F0
:1017000000F0BEF8014B01221A7008BD80080020CD
:1017100008B5E7283BD023D8842830D0D52807D176
:101720003E4B32221A7231225A7233229A7208E0E8
:101730007B2806D1394B31221A7232225A72332257
:101740009A72E7295AD042D884294FD0D5292ED170
:10175000324B32221A7331225A7333229A732FE09A
:10176000B0F59C7F1BD040F241139842E9D12B4B3E
:1017700033221A7232225A7231229A72E1E7274BCF
:1017800031221A7233225A7232229A72D9E7234BCB
:1017900032221A7233225A7231229A72D1E71F4BC7
:1017A00033221A7231225A7232229A72C9E77B2985
:1017B00006D11A4B31221A7332225A7333229A738A
:1017C000174B13221549174802F0F3FE08BDB1F577
:1017D0009C7F1BD040F241139942F1D10F4B332231
:1017E0001A7332225A7331229A73E9E70B4B312272
:1017F0001A7333225A7332229A73E1E7074B32226B
:101800001A7333225A7331229A73D9E7034B332266
:101810001A7331225A7332229A73D1E700000020E2
:10182000FFFF0F00540B002010B50446002001F00C
:1018300035FAE408014B1C7010BD00BF8108002080
:101840000E4B1B7800FB03F3013B4FF0E02253618A
:1018500000239361136943F0010313614FF0E02308
:101860001B6903F00113012BF8D04FF0E0231A6934
:1018700022F001021A6100229A617047810800205B
:1018800038B50C4CA4FB0034640A4FF4077505FB13
:10189000140503E00848FFF7D3FF013C002CF9D101
:1018A00005B938BD4FF47A7005FB00F0FFF7C8FFAB
:1018B000F7E700BF49D6B9F2603D08007047000065
:1018C00038B5424B5B78202B7ED9002417E0404B83
:1018D00033F91500FFF724F94FF06051FFF774F961
:1018E0004FF08341FFF770F905F10C02374B43F8D5
:1018F00022000135EDB2022DE9D90134E4B2032C06
:1019000062D804EB840304EB4303304AD118C9784E
:101910009278914258D1591C2C4A0A44D278522AC2
:101920000ED0532A2ED0512AE7D10233274A13442E
:10193000274AD3F80300D3F8071003C20025DAE7DB
:101940000233224A1344234AD3F80300D3F8071082
:1019500003C2002513E01F4B33F91500FFF7E0F831
:101960004FF06051FFF730F91B49FFF72DF905F1F2
:101970000E02164B03EB820358600135EDB2022DC7
:10198000E9D9BAE70233114A1344144AD3F80300E1
:10199000D3F8071003C2002513E0104B33F91500EC
:1019A000FFF7BEF84FF06051FFF70EF90C49FFF753
:1019B0000BF905F10802054B03EB82035860013572
:1019C000EDB2022DE9D998E738BD00BF84080020A8
:1019D000DC080020EC0800200000FA44E4080020A5
:1019E00000003443234B1B781BB9234A12788242F0
:1019F00006D0012B0CD0022B17D0032B25D070471B
:101A00001E4A1278002AF4D11D4B00221A70FBE7FF
:101A10006A2806D01B4A1378591C1170184AD054F2
:101A20007047144B02221A7070476B2806D0154A73
:101A30001378591C1170144AD05470470D4B03226F
:101A40001A70104B00221A707047104B1B7883429B
:101A500006D00C4A1378591C11700D4AD054CEE7A9
:101A60000023084A1370034A1370044B01221A70B2
:101A7000704700BFD908002014000020D6080020BD
:101A8000CC080020D8080020D00800201300002037
:101A9000D408002000B583B000210191094B1A6BD6
:101AA00042F400121A631B6B03F400130193019BB1
:101AB0000A460C2001F098F80C2001F0CDF803B094
:101AC0005DF804FB003802402DE9F0478EB0002499
:101AD00009940A940B940C940D940194664B1A6B20
:101AE00042F010021A631A6B02F010020192019A7E
:101AF00002941A6B42F020021A631A6B02F0200261
:101B00000292029A03941A6B42F080021A631A6BD3
:101B100002F080020392039A04941A6B42F00102CD
:101B20001A631A6B02F001020492049A05941A6B6C
:101B300042F002021A631A6B02F002020592059A41
:101B400006941A6B42F008021A631A6B02F008023C
:101B50000692069A07941A6B42F040021A631A6BB7
:101B600002F040020792079A08941A6B42F00402AE
:101B70001A631B6B03F004030893089B3F4F224634
:101B80002021384601F0F0FB3D4E012240F2036176
:101B9000304601F0E9FB22464FF4E071304601F097
:101BA000E3FBDFF8E0A022464FF4F851504601F085
:101BB000DBFBDFF8D49022467C21484601F0D4FBC1
:101BC000DFF8C88001224FF44071404601F0CCFBA1
:101BD000182309930A9401250B9509A9384601F0A9
:101BE000D1FA202309930A950B940C9409A938463D
:101BF00001F0C8FA402309930A940B9409A93846C6
:101C000001F0C0FA40F2C37309930A950B940C9447
:101C100009A9304601F0B6FA3C2309930A940B95C2
:101C200009A9304601F0AEFA09950A9402260B96EE
:101C300009A9174801F0A6FA4FF4F85309930A9539
:101C40000B940C9409A9504601F09CFA7C2309934B
:101C50000A950B940C9409A9484601F093FA4FF4A5
:101C6000407309930A950B940C9609A9404601F01C
:101C700089FA0EB0BDE8F08700380240001002403B
:101C800000140240000C0240001802400004024010
:101C90000000024008B572B6034804F09FFD4FF4FF
:101CA0007A7000F07BFFF7E70883000800B595B075
:101CB0003022002108A804F0F1FC002303930493D0
:101CC0000593069307930193214A116C41F08051CB
:101CD0001164126C02F080520192019A02931D4B22
:101CE0001A6842F480421A601B6803F4804302932E
:101CF000029B012308934FF48033099302230E9330
:101D00004FF480020F92082210924FF4A8721192A1
:101D100012930423139308A801F036FB98B90F23FC
:101D2000039302230493002305934FF4A0530693D7
:101D30004FF480530793052103A801F08BFD20B9D0
:101D400015B05DF804FBFFF7A5FFFFF7A3FF00BF89
:101D5000003802400070004010B5224800F050F8F2
:101D6000FFF7C6FC00F0EEFEFFF7A0FFFFF7ACFEAA
:101D7000FFF790FE00F0B6FC00F0CEFC00F0E6FCB1
:101D800000F0D0FB00F058FB00F09CF900F076FC6E
:101D900000F08EFC00F0F4FC00F0DCFA00F0BAF980
:101DA000114804F01BFD114B01221A70104B4FF625
:101DB000EB721A8000240F4B1C800F4804F00EFDBC
:101DC00007E04FF480610D4801F0D4FA002402F0DE
:101DD000EDFF6420FFF754FD0134E4B2042CF0D889
:101DE000F5E700BFE40B002014830008810E0020FB
:101DF000820E0020840E0020208300080014024080
:101E000008B5054B1860054B1868002302221946D7
:101E1000806804F0EBFC08BDF408002040000020BE
:101E2000022801D80120704708B504F00DFC0923F1
:101E30000360002008BD000010B5013801280AD851
:101E400014464FF0FF3392B20748006802F0B1FB2E
:101E500040B9204610BD04F0F7FB092303604FF0A2
:101E6000FF30F7E70520F5E7F4080020022801D845
:101E70000020704708B504F0E7FB092303604FF02A
:101E8000FF3008BD08B504F0DFFB092303604FF005
:101E9000FF3008BD08B548B94FF0FF3301220848AC
:101EA000006802F0ECFB40B9012008BD04F0CCFB57
:101EB000092303604FF0FF30F7E70520F5E700BF87
:101EC000F408002008B5022804D84FF400534B60F2
:101ED000002008BD04F0B8FB09230360F8E7000008
:101EE00082B0002100910B4B5A6C42F480425A643C
:101EF0005A6C02F480420092009A01911A6C42F0EE
:101F000080521A641B6C03F080530193019B02B052
:101F1000704700BF00380240FEE7FEE7FEE7FEE73D
:101F2000FEE770477047704708B500F025FE08BD12
:101F300008B5024801F038F808BD00BF640A002067
:101F400008B5024802F0FEFC08BD00BF0C0B0020E3
:101F500010B582B0154B1B681A6812F0100F0AD129
:101F6000124C21221249204602F00CFF204602F0BA
:101F7000E9FC02B010BD002201921A6801925A6871
:101F80000192019A1A685B68084802F0E1FB094B6C
:101F90001B685B68C3F12103074A5370FFF790FC8D
:101FA0004FF40071054801F0E5F9D9E7540B002022
:101FB00087080020640A00208408002000140240E2
:101FC00008B5064B1B681A6912F0010F02D06FF0BA
:101FD00001021A61014801F0D9FD08BD1C0A002068
:101FE00008B5024802F0AEFC08BD00BF9C0B002003
:101FF00008B5024802F0A6FC08BD00BFE40B0020B3
:1020000008B5024801F0C2FD08BD00BF8C090020E0
:1020100008B5024801F0BAFD08BD00BFD409002090
:1020200010B5044602680E4B9A420ED022680D4B42
:102030009A420FD001220C490C4802F03EFE0122C8
:102040000B490C4802F039FE10BD074B187803F01D
:10205000D9F9EBE7064B1878FFF7C4FCEAE700BFB5
:1020600000100140004400408E0E0020C40A0020F1
:10207000D70800200C0B002010B503460C4A0D4970
:102080000D48006840B10C4800680344521A93425E
:1020900006D8094A136010BD0748084C0460F2E7EF
:1020A00004F0D2FA0C2303604FF0FF30F3E700BFD7
:1020B0000000022000040000F8080020300F00207B
:1020C0007047000000B583B00023009301930F48D0
:1020D0000F4A026042F2CF02426083606323C36012
:1020E0008023836101F06EFE50B9002300930193B9
:1020F0006946064802F080F828B903B05DF804FB91
:10210000FFF7C8FDF1E7FFF7C5FDF6E78C090020F2
:102110000010004000B583B00023009301930F48E6
:102120000F4A026042F2CF02426083606323C360C1
:102130008023836101F046FE50B900230093019390
:102140006946064802F058F828B903B05DF804FB68
:10215000FFF7A0FDF1E7FFF79DFDF6E7D4090020AA
:102160000014004000B587B00368334A93421FD083
:10217000324A93422BD0324A934235D0314A93426D
:1021800046D0314A93421FD1002105912F4B5A6C02
:1021900042F002025A645B6C03F002030593059B54
:1021A0000A462C2000F020FD2C2000F055FD0BE00D
:1021B00000230193254B5A6C42F001025A645B6C78
:1021C00003F001030193019B07B05DF804FB0023BA
:1021D00002931E4B1A6C42F002021A641B6C03F04D
:1021E00002030293029BEFE700210391174B1A6C45
:1021F00042F010021A641B6C03F010030393039B5C
:102200000A46362000F0F0FC362000F025FDDBE722
:10221000002104910D4B1A6C42F020021A641B6CD1
:1022200003F020030493049B0A46372000F0DCFCF3
:10223000372000F011FDC7E7000001400004004016
:10224000001000400014004000040140003802402B
:1022500030B58BB000230593069307930893099339
:102260000368344A934207D0334A93421DD0334A1D
:10227000934244D00BB030BD00230193304B1A6B16
:1022800042F010021A631B6B03F010030193019BD1
:102290004FF40073059302230693012308930993D7
:1022A00005A9284800F06EFFE4E700250295244BBD
:1022B0001A6B42F001021A631A6B02F001020292D9
:1022C000029A03951A6B42F002021A631B6B03F029
:1022D00002030393039BC0230593022406940994ED
:1022E00005A9194800F04EFF0323059306940795AE
:1022F0000895099405A9154800F044FFBAE70023A2
:1023000004930F4B1A6B42F004021A631B6B03F029
:1023100004030493049B4FF4707305930223069304
:10232000012308930323099305A9094800F02AFF14
:10233000A0E700BF0000014000040040000401408D
:102340000038024000100240000002400004024039
:102350000008024010B596B000241294139414940F
:1023600015941094119409940A940B940C940D9460
:102370000E940F942022214601A804F08FF92C48D6
:102380002C4B0360446084604FF6FF73C3600461AC
:102390004461846101F016FD002837D14FF4805369
:1023A000129312A9224801F017FE002831D12048CB
:1023B00001F034FD00282FD100231093119310A9B0
:1023C0001B4801F019FF50BB6023099300220A92B9
:1023D0000B920C920D920E920F9209A9144801F0E3
:1023E00081FDF8B9002301930293039304930593AD
:1023F0004FF400520692089301A90D4801F042FFE4
:1024000098B90B48FFF724FF16B010BDFFF742FC48
:10241000C4E7FFF73FFCCAE7FFF73CFCCCE7FFF758
:1024200039FCD1E7FFF736FCDCE7FFF733FCE8E7E0
:10243000FC0800200000014000B58FB000230A9383
:102440000B930C930D9308930993019302930393B9
:1024500004930593069307933048314A0260532250
:102460004260836044F61F62C2600361802383611F
:1024700001F0A8FC002839D14FF480530A930AA92F
:10248000264801F0A9FD002833D1244801F0C6FCFC
:10249000002831D100230893099308A91F4801F0AF
:1024A000ABFE60BB6023019300220292039205926F
:1024B00001A91A4801F016FD20BB04220DEB020110
:1024C000164801F00FFD00BB082201A9134801F0D6
:1024D00009FDE8B90C2201A9104801F003FDD0B9AB
:1024E0000E48FFF7B5FE0FB05DF804FBFFF7D2FB17
:1024F000C2E7FFF7CFFBC8E7FFF7CCFBCAE7FFF760
:10250000C9FBCFE7FFF7C6FBD7E7FFF7C3FBDBE766
:10251000FFF7C0FBDEE7FFF7BDFBE1E74409002062
:102520000004004010B596B0002412941394149443
:1025300015941094119409940A940B940C940D948E
:102540000E940F942022214601A804F0A7F84948D0
:10255000494B036040F247334360846040F2E73305
:10256000C36004614461846101F02CFC002866D1E1
:102570004FF48053129312A93E4801F02DFD00281C
:1025800060D13C4801F04AFC00285ED10023109342
:10259000119310A9374801F02FFE002858D160236D
:1025A000099340F2F3130A9300220B920C920D92BE
:1025B0000E920F9209A92F4801F094FC00284AD1ED
:1025C000042209A92B4801F08DFC002846D10822DD
:1025D00009A9284801F086FC002842D10C2209A94B
:1025E000244801F07FFC00283ED100230193029390
:1025F0000393049305934FF400520692089301A9A4
:102600001C4801F03FFE90BB1A4C2268D36843F08F
:102610000103D3600021204601F06CFD0421204617
:1026200001F068FD0821204601F064FD0C212046E0
:1026300001F060FD2046FFF70BFE16B010BDFFF75E
:1026400029FB95E7FFF726FB9BE7FFF723FB9DE7B9
:10265000FFF720FBA3E7FFF71DFBB1E7FFF71AFB2E
:10266000B5E7FFF717FBB9E7FFF714FBBDE7FFF787
:1026700011FBC9E71C0A00200004014008B50A4804
:102680000A4B03604FF4E133436000238360C3606F
:1026900003610C2242618361C36101F05AFF00B9FA
:1026A00008BDFFF7F7FAFBE79C0B0020004C004049
:1026B00008B50A480A4B03604FF4E1334360002336
:1026C0008360C36003610C2242618361C36101F0D6
:1026D00040FF00B908BDFFF7DDFAFBE7E40B00207F
:1026E0000050004008B50A480A4B03604FF4E1333C
:1026F000436000238360C36003610C2242618361F5
:10270000C36101F026FF00B908BDFFF7C3FAFBE77C
:10271000C40A00200010014008B50A480A4B0360B3
:102720004FF4E133436000238360C36003610C22F4
:1027300042618361C36101F00CFF00B908BDFFF77E
:10274000A9FAFBE70C0B00200044004008B50A483A
:102750000A4B03604FF4E133436000238360C3609E
:1027600003610C2242618361C36101F0F2FE00B992
:1027700008BDFFF78FFAFBE7540B0020004800402C
:1027800008B50A480A4B03604FF4E1334360002365
:102790008360C36003610C2242618361C36101F005
:1027A000D8FE00B908BDFFF775FAFBE72C0C002036
:1027B00000140140F0B595B000230F9310931193CE
:1027C000129313930368964A934215D00446954A90
:1027D000934250D0944A934200F08D80934A9342A2
:1027E00000F0AD80924A934200F0D480914A934227
:1027F00000F0308115B0F0BD002401948E4B1A6CAE
:1028000042F400221A641A6C02F400220192019A26
:1028100002941A6B42F001021A631A6B02F0010271
:102820000292029A03941A6B42F004021A631B6B21
:1028300003F004030393039B02250F9510950327D0
:102840001297082613960FA97C4800F09BFC4FF4C2
:1028500080630F9310951194129713960FA97848DF
:1028600000F090FC22462146342000F0BDF93420CF
:1028700000F0F2F9BEE7002404946F4B1A6C42F4A6
:1028800080121A641A6C02F480120492049A05945D
:102890001A6B42F004021A631A6B02F004020592EA
:1028A000059A06941A6B42F008021A631B6B03F038
:1028B00008030693069B4FF480530F93022710974B
:1028C00003261296082513950FA95D4800F05AFCBF
:1028D00004230F9310971194129613950FA959483A
:1028E00000F050FC22462146352000F07DF93520CD
:1028F00000F0B2F97EE7002107914F4B5A6C42F08D
:1029000010025A645A6C02F010020792079A08915A
:102910001A6B42F001021A631B6B03F00103089368
:10292000089B4FF4C0630F93022310930323129369
:10293000072313930FA9414800F024FC5AE7002411
:1029400009943D4B1A6C42F400321A641A6C02F47A
:1029500000320992099A0A941A6B42F001021A6332
:102960001B6B03F001030A930A9B0C230F930223B2
:10297000109303231293072313930FA92F4800F0FA
:1029800001FC22462146262000F02EF9262000F0E8
:1029900063F92FE700250B95274B1A6C42F4802230
:1029A0001A641A6C02F480220B920B9A0C951A6B23
:1029B00042F002021A631B6B03F002030C930C9BA0
:1029C0004FF440630F930223109312930723139342
:1029D0000FA91D4800F0D6FB1C481D4B03604FF0AB
:1029E000006343608560C5604FF4806303614561A7
:1029F0008561C5614FF400330362456200F0DCF984
:102A000058B9124BE3639C6300221146272000F063
:102A1000EBF8272000F020F9ECE6FFF73BF9F0E7B0
:102A2000004C0040005000400010014000440040B5
:102A300000480040001401400038024000000240FD
:102A400000080240000C024000040240640A00201A
:102A50002860024000210D91104B5A6C42F0200278
:102A60005A645A6C02F020020D920D9A0E911A6B64
:102A700042F040021A631B6B03F040030E930E9B5F
:102A80004FF484430F9302231093032312930823DC
:102A900013930FA9024800F075FBABE60038024023
:102AA00000180240DFF834D0FFF70AFB0C480D494C
:102AB0000D4A002302E0D458C4500433C4188C4299
:102AC000F9D30A4A0A4C002301E013600432A242FF
:102AD000FBD303F0BFFDFFF73FF970470000022072
:102AE0000000002080080020848300088008002067
:102AF0002C0F0020FEE7000010B504460E4B18789E
:102B00004FF47A73B3FBF0F30C4A1068B0FBF3F0A8
:102B100000F0B0F868B90F2C01D901200AE00022BA
:102B200021464FF0FF3000F05FF8054B1C6000209D
:102B300000E0012010BD00BF1C0000201800002094
:102B40002000002008B50B4B1A6842F400721A608E
:102B50001A6842F480621A601A6842F480721A603D
:102B6000032000F02FF80F20FFF7C6FFFFF7B8F99A
:102B7000002008BD003C0240034A1168034B1B784B
:102B80000B441360704700BF740C00201C00002031
:102B9000014B1868704700BF740C002038B504461C
:102BA000FFF7F6FF0546B4F1FF3F02D0044B1B7858
:102BB0001C44FFF7EDFF401BA042FAD338BD00BF15
:102BC0001C000020074AD36823F4E0631B041B0C9D
:102BD000000200F4E060034343F0BF6343F40033BA
:102BE000D360704700ED00E000B5194BDB68C3F31C
:102BF0000223C3F1070CBCF1040F28BF4FF0040CF3
:102C000003F1040EBEF1060F18D9033B4FF0FF3E4F
:102C10000EFA0CFC21EA0C0199400EFA03F322EAA9
:102C20000303194300280BDB0901C9B200F160401E
:102C300000F5614080F800135DF804FB0023E5E730
:102C400000F00F000901C9B2024B1954F4E700BFAC
:102C500000ED00E014ED00E0002807DB00F01F02AB
:102C6000400901239340024A42F82030704700BFD8
:102C700000E100E00138B0F1807F0BD24FF0E0239B
:102C80005861054AF02182F823100020986107223C
:102C90001A6170470120704700ED00E0042806D05B
:102CA0004FF0E022136923F00403136170474FF0E3
:102CB000E022136943F004031361704730B40568E0
:102CC0002C6824F480242C60046863608368402BA3
:102CD00005D0036899600368DA6030BC7047036808
:102CE0009A600368D960F8E710B40368D9B2103964
:102CF0000B4AA2FB014212090A4CA25CC2655F2981
:102D000008D923F47F7323F0030304338365806DB4
:102D100010BC704723F47F7323F003038365F6E749
:102D2000ABAAAAAA40830008836A826992B9012BE0
:102D30000AD0022B02D00BB100207047C36A13F0F7
:102D4000807F28D100207047C36AB3F1C07F24D0B0
:102D500000207047B2F5005F09D0022B25D9032B64
:102D600025D1C36A13F0807F23D100207047032B45
:102D700003D8DFE803F01404140A00207047C36A84
:102D800013F0807F0DD100207047C36AB3F1C07F7C
:102D900009D00020704701207047012070470120B2
:102DA00070470120704701207047012070470020C4
:102DB000704701207047000070B50446FFF7E8FE39
:102DC000002C5BD00546022384F83530002384F8BC
:102DD00034302268136823F00103136023681A68F3
:102DE00012F0010F0AD0FFF7D3FE431B052BF5D9D4
:102DF00020236365032084F8350070BD1A682048DD
:102E000010406168A2680A43E1680A4321690A43E5
:102E100061690A43A1690A43E1690A43216A0A43D5
:102E20000243616A04291ED01A602668756925F07C
:102E30000705636A1D43042B07D1A36A1D43E36A98
:102E40001BB12046FFF770FF90B975612046FFF770
:102E50004BFFE26D3F2393408360002060650123B8
:102E600084F83530C9E7E16A206B01430A43DBE7A8
:102E700040236365012084F83500BEE70120BCE7EC
:102E80003F8010F038B50446856D90F83400012875
:102E90002BD0012084F8340094F83500C0B201280A
:102EA00004D0002384F83430022038BD022084F896
:102EB0003500002060652046FFF700FFE26D3F23EC
:102EC0009340AB602268136843F016031360236CD1
:102ED00023B12268136843F0080313602268136863
:102EE00043F0010313600020DFE70220DDE770B547
:102EF0000446866DFFF74CFE94F83530DBB2022BAA
:102F000006D080236365002384F83430012070BD2F
:102F100005462268136823F016031360226853697C
:102F200023F080035361236CE3B12268136823F01C
:102F3000080313602268136823F0010313602368F9
:102F40001B6813F0010F11D0FFF722FE431B052B66
:102F5000F5D920236365032084F83500002384F825
:102F60003430D4E7A36C002BDFD1E3E7E26D3F23DD
:102F70009340B360012384F83530002084F8340096
:102F8000C5E790F83530DBB2022B03D080234365D0
:102F900001207047052380F835300268136823F05C
:102FA0000103136000207047F0B583B0044600238E
:102FB0000193724B1D68724BA3FB0535AD0A876DFB
:102FC0003E68C26D08239340334210D003681A68EC
:102FD00012F0040F0BD01A6822F004021A60C26DBE
:102FE00008239340BB60436D43F001034365E26DEA
:102FF00001239340334209D02268526912F0800FB6
:1030000004D0BB60636D43F002036365E26D04238B
:103010009340334209D02268126812F0020F04D0A4
:10302000BB60636D43F004036365E26D102393405E
:10303000334224D02268126812F0080F1FD0BB6000
:1030400023681A6812F4802F0DD01B6813F4002F28
:1030500004D1236C9BB12046984710E0A36C73B158
:10306000204698470BE01A6812F4807F03D11A6853
:1030700022F008021A60236C0BB120469847E26DDB
:1030800020239340334255D02268126812F0100F6B
:1030900050D0BB6094F83530DBB2052B0ED02368DE
:1030A0001A6812F4802F33D01B6813F4002F2AD132
:1030B000636C002B3ED0204698473BE022681368A3
:1030C00023F0160313602268536923F080035361D1
:1030D000236CA3B12268136823F008031360E26D28
:1030E0003F239340BB60012384F83530002384F8EC
:1030F0003430236D002B3FD0204698473CE0A36C32
:10310000002BE7D1EBE7E36BA3B12046984711E032
:103110001A6812F4807F09D11A6822F010021A602E
:10312000012384F83530002384F83430E36B0BB18D
:1031300020469847636DFBB1636D13F0010F17D004
:10314000052384F835302268136823F001031360E7
:10315000019B01330193AB4204D823681B6813F031
:10316000010FF5D1012384F83530002384F8343081
:10317000E36C0BB12046984703B0F0BD1800002067
:10318000B5814E1B00230F2B00F2E48070B582B096
:1031900060E085685E000324B44025EA0405CC683D
:1031A000B4402C438460456825EA02054C68C4F3AA
:1031B00000129A402A4342605AE0DC08083450F872
:1031C000246003F0070295000F22AA4026EA020EAF
:1031D0000A69AA4042EA0E0240F824205CE0072275
:1031E00000E0002202FA0EF22A4302345A4D45F85A
:1031F00024205A4A94686FEA0C0224EA0C054E68AF
:1032000016F4801F01D04CEA0405544CA560E46814
:1032100002EA04054E6816F4001F01D04CEA0405CA
:103220004E4CE560646802EA04054E6816F4003FFF
:1032300001D04CEA0405494C6560246822404D6881
:1032400015F4803F01D04CEA0402444C2260013363
:103250000F2B7DD801229A400C6804EA020C32EA56
:103260000404F4D14C6804F00304013C012C90D90F
:103270004A6802F00302032A09D0C4685D000322F1
:10328000AA4024EA02048A68AA402243C2604A682B
:1032900002F00302022A90D004684FEA430E032290
:1032A00002FA0EF224EA02044A6802F0030202FA69
:1032B0000EF2224302604A6812F4403FC7D0002257
:1032C0000192274A546C44F480445464526C02F4D2
:1032D00080420192019A9C08A51C1F4A52F8255071
:1032E00003F003024FEA820E0F2202FA0EF225EAE1
:1032F00002051C4A90423FF474AF02F5806290428E
:103300001AD002F58062904218D002F58062904295
:1033100016D002F58062904214D002F5806290428D
:1033200012D002F58062904210D002F58062904285
:103330003FF455AF082255E7012253E7022251E737
:1033400003224FE704224DE705224BE7062249E717
:1033500002B070BD704700BF00380140003C014022
:1033600000380240000002400AB181617047090440
:1033700081617047436901EA030221EA030141EADE
:103380000241816170470000002800F0E08170B5C3
:1033900082B00446036813F0010F3BD09F4B9B683B
:1033A00003F00C03042B2CD09C4B9B6803F00C0304
:1033B000082B21D06368B3F5803F4FD0B3F5A02F21
:1033C00052D0964B1A6822F480321A601A6822F49E
:1033D00080221A606368002B50D0FFF7D9FB0546A6
:1033E0008E4B1B6813F4003F14D1FFF7D1FB401B39
:1033F0006428F5D90320B1E1884B5B6813F4800F92
:10340000D8D0864B1B6813F4003F03D06368002BB1
:1034100000F09F81236813F0020F54D07F4B9B680C
:1034200013F00C0F3ED07D4B9B6803F00C03082B70
:1034300033D0E368002B68D0794B01221A60FFF784
:10344000A7FB0546754B1B6813F0020F54D1FFF71D
:103450009FFB401B0228F5D903207FE16F4A1368C8
:1034600043F480331360B5E76C4B1A6842F4802252
:103470001A601A6842F480321A60ABE7FFF788FBE3
:103480000546664B1B6813F4003FC3D0FFF780FB73
:10349000401B6428F5D9032060E1604B5B6813F49E
:1034A000800FC6D15D4B1B6813F0020F03D0E36899
:1034B000012B40F05081594A136823F0F803216929
:1034C00043EAC1031360236813F0080F42D0636915
:1034D0006BB3534B0122C3F8802EFFF759FB05460F
:1034E0004E4B5B6F13F0020F34D1FFF751FB401BC3
:1034F0000228F5D9032031E1484A136823F0F80384
:10350000216943EAC1031360DDE7454B00221A60DD
:10351000FFF73EFB0546414B1B6813F0020FD2D06C
:10352000FFF736FB401B0228F5D9032016E13C4B80
:103530000022C3F8802EFFF72BFB0546374B5B6F4D
:1035400013F0020F06D0FFF723FB401B0228F5D92A
:10355000032003E1236813F0040F77D02F4B1B6C7B
:1035600013F0805F33D1002301932C4B1A6C42F08F
:1035700080521A641B6C03F080530193019B012558
:10358000284B1B6813F4807F23D0A368012B34D011
:10359000052B38D0214B1A6F22F001021A671A6FDF
:1035A00022F004021A67A368002B3DD0FFF7F0FA5F
:1035B00006461A4B1B6F13F0020F46D1FFF7E8FACD
:1035C000801B41F288339842F3D90320C6E00025DE
:1035D000D6E7144A136843F480731360FFF7D8FAF0
:1035E0000646104B1B6813F4807FCED1FFF7D0FA4C
:1035F000801B0228F5D90320B0E0084A136F43F07E
:1036000001031367CFE7054B1A6F42F004021A67F4
:103610001A6F42F001021A67C5E700BF0038024086
:103620000000474200700040FFF7B2FA0646524BD6
:103630001B6F13F0020F08D0FFF7AAFA801B41F2AC
:1036400088339842F3D9032088E0EDB9A369002BB1
:1036500000F08380484A926802F00C02082A51D098
:10366000022B17D0454B00221A66FFF791FA044649
:10367000414B1B6813F0007F42D0FFF789FA001B13
:103680000228F5D9032069E03B4A136C23F08053EC
:103690001364DBE7394B00221A66FFF779FA054617
:1036A000354B1B6813F0007F06D0FFF771FA401B03
:1036B0000228F5D9032051E0E369226A1343626AC4
:1036C00043EA8213A26A5208013A43EA0243E26AD9
:1036D00043EA0263284A5360284B01221A66FFF727
:1036E00057FA0446244B1B6813F0007F06D1FFF7FE
:1036F0004FFA001B0228F5D903202FE000202DE00F
:1037000000202BE0012B2BD01B4B5B6803F48001C6
:10371000E269914226D103F03F02216A8A4223D115
:10372000616A47F6C0721A40B2EB811F1ED103F4E2
:103730004031A26A5208013AB1EB024F18D103F0AE
:103740007063E26AB3EB026F14D1002006E001203F
:103750007047012002E0012000E0002002B070BDAF
:103760000120FBE70120F9E70120F7E70120F5E759
:103770000120F3E70120F1E7003802400000474252
:1037800008B5314B9B6803F00C03042B57D0082B72
:1037900057D12D4B5A6802F03F025B6813F4800F3B
:1037A0002AD0294B5968C1F3881C4FEA4C11B1EB60
:1037B0000C006EEB0E0E4FEA8E1343EA906381010C
:1037C000091A63EB0E03DB0043EA5173C90011EBE6
:1037D0000C0C43F10003590200234FEA4C2041EA4C
:1037E000DC51FDF7FDFB184B5B68C3F3014301336C
:1037F0005B00B0FBF3F025E0134B5968C1F3881C64
:103800004FEA4C11B1EB0C006EEB0E0E4FEA8E132B
:1038100043EA90638101091A63EB0E03DB0043EA7C
:103820005173C90011EB0C0C43F100039902002302
:103830004FEA8C2041EA9C51FDF7D2FBD3E70348C5
:1038400000E0034808BD00BF0038024000127A00C3
:103850000024F400002800F09B8070B50D4604465B
:103860004F4B1B6803F007038B4208D2CBB24C4A84
:103870001370136803F007038B4240F08B802368BA
:1038800013F0020F17D013F0040F04D0454A9368C9
:1038900043F4E0539360236813F0080F04D0414AC7
:1038A000936843F4604393603E4A936823F0F003C7
:1038B000A1680B439360236813F0010F32D0636853
:1038C000012B21D09A1E012A25D9364A126812F0FE
:1038D000020F61D033498A6822F0030213438B60E0
:1038E000FFF756F906462F4B9B6803F00C036268FE
:1038F000B3EB820F16D0FFF74BF9801B41F28833F0
:103900009842F0D9032042E0264A126812F4003FA0
:10391000E0D101203BE0234A126812F0007FD9D1A8
:10392000012034E01E4B1B6803F00703AB4207D9AC
:10393000EAB21B4B1A701B6803F00703AB422DD190
:10394000236813F0040F06D0164A936823F4E0535B
:10395000E1680B439360236813F0080F07D0114A06
:10396000936823F46043216943EAC1039360FFF73E
:1039700007FF0C4B9B68C3F303130B4AD35CD8407F
:103980000A4B18600A4B1868FFF7B6F8002070BDA4
:10399000012070470120FAE70120F8E70120F6E74F
:1039A000003C024000380240288300081800002034
:1039B00020000020014B1868704700BF180000204D
:1039C00008B5FFF7F7FF044B9B68C3F38223034A54
:1039D000D35CD84008BD00BF0038024038830008DF
:1039E00008B5FFF7E7FF044B9B68C3F34233034A74
:1039F000D35CD84008BD00BF0038024038830008BF
:103A000030B4036A026A22F00102026242688469E9
:103A100024F073040D682C4323F0020C8B6843EAF6
:103A20000C03104DA84203D005F58065A84205D1CE
:103A300023F00803CD682B4323F00403094DA8426B
:103A400003D005F58065A84205D122F440724D6986
:103A50002A438D692A43426084614A684263036253
:103A600030BC70470000014030B4036A026A22F49F
:103A7000807202624268C46924F0730C0C6844EAE4
:103A80000C0523F400738C6843EA0423114CA04214
:103A900003D004F58064A04206D123F40063CC680F
:103AA00043EA042323F480630A4CA04203D004F5C4
:103AB0008064A04207D122F440524C6942EA0412C9
:103AC0008C6942EA04124260C5614A68C2630362BB
:103AD00030BC70470000014030B4036A026A22F42F
:103AE000805202624468C26922F4E6420D6842EAEA
:103AF000052223F400538D6843EA0533094DA8429B
:103B000003D005F58065A84204D124F480444D69B2
:103B100044EA85144460C2614A680264036230BCAE
:103B2000704700BF0000014010B4036A046A24F02B
:103B300001040462846924F0F00C4CEA021223F0C0
:103B40000A030B438261036210BC704710B4036A1E
:103B5000046A24F010040462846924F4704C4CEA72
:103B6000023223F0A00343EA01138261036210BC16
:103B70007047836823F070030B4343F007038360AF
:103B800070477047704770477047704770B504467C
:103B90000368DE681D6915F0020F10D016F0020FE1
:103BA0000DD06FF002021A610123037703689B694D
:103BB00013F0030F5ED0FFF7E6FF0023237715F025
:103BC000040F12D016F0040F0FD023686FF0040218
:103BD0001A610223237723689B6913F4407F4FD037
:103BE0002046FFF7D0FF0023237715F0080F12D0EF
:103BF00016F0080F0FD023686FF008021A61042333
:103C000023772368DB6913F0030F40D02046FFF7CA
:103C1000BAFF0023237715F0100F12D016F0100F03
:103C20000FD023686FF010021A61082323772368EE
:103C3000DB6913F4407F31D02046FFF7A4FF002357
:103C4000237715F0010F02D016F0010F2DD115F0DA
:103C5000800F02D016F0800F2FD115F0400F02D048
:103C600016F0400F31D115F0200F02D016F0200FC2
:103C700033D170BDFFF786FF2046FFF785FF9CE735
:103C80002046FFF77FFF2046FFF77EFFABE7204689
:103C9000FFF778FF2046FFF777FFBAE72046FFF7E8
:103CA00071FF2046FFF770FFC9E723686FF001023C
:103CB0001A61204602F014F8C9E723686FF0800209
:103CC0001A61204600F008FBC7E723686FF0400246
:103CD0001A612046FFF759FFC5E723686FF02002FD
:103CE0001A61204600F0F7FAC3E700000368344A7F
:103CF000904212D0B0F1804F0FD0A2F57C4290429A
:103D00000BD002F58062904207D002F580629042AB
:103D100003D002F57842904203D123F070034A6841
:103D20001343274A90422AD0B0F1804F27D0A2F502
:103D30007C42904223D002F5806290421FD002F56F
:103D4000806290421BD002F57842904217D002F573
:103D50007052904213D002F5806290420FD002F56B
:103D6000806290420BD0A2F59832904207D002F5C3
:103D70008062904203D002F58062904203D123F426
:103D80004073CA68134323F080034A6913430360F6
:103D90008B68C3620B688362094B984203D003F5BA
:103DA0008063984201D10B69036301234361036976
:103DB00013F0010F03D0036923F00103036170477F
:103DC0000000014040B310B5044690F83D30F3B117
:103DD000022384F83D30214651F8040BFFF786FF9B
:103DE000012384F8463084F83E3084F83F3084F86C
:103DF000403084F8413084F8423084F8433084F80D
:103E0000443084F8453084F83D30002010BD80F8FF
:103E10003C30FEF7A7F9DBE70120704740B310B54F
:103E2000044690F83D30F3B1022384F83D3021463A
:103E300051F8040BFFF75AFF012384F8463084F849
:103E40003E3084F83F3084F8403084F8413084F8C4
:103E5000423084F8433084F8443084F8453084F8A4
:103E60003D30002010BD80F83C30FFF78AFEDBE7D4
:103E70000120704730B4036A026A22F01002026225
:103E80004468826922F4E6420D6842EA052223F082
:103E900020038D6843EA0513114DA84203D005F5B0
:103EA0008065A84206D123F08003CD6843EA05135C
:103EB00023F040030A4DA84203D005F58065A842CF
:103EC00007D124F440644D6944EA85048D6944EACD
:103ED0008504446082614A688263036230BC704733
:103EE0000000014038B590F83C30012B66D0044604
:103EF0000D46012380F83C300C2A5AD8DFE802F046
:103F0000075959591B595959305959594400006892
:103F1000FFF776FD2268936943F0080393612268F6
:103F2000936923F0040393612268936929690B4321
:103F3000936100203EE00068FFF79CFF22689369D0
:103F400043F4006393612268936923F4806393616F
:103F500022689369296943EA01239361002029E0DB
:103F60000068FFF781FD2268D36943F00803D3613D
:103F70002268D36923F00403D3612268D3692969D5
:103F80000B43D361002015E00068FFF7A5FD226810
:103F9000D36943F40063D3612268D36923F4806357
:103FA000D3612268D369296943EA0123D3610020E0
:103FB00000E00120002384F83C3038BD0220FCE7FB
:103FC00010B4846824F47F4C42EA03220A4342EA94
:103FD0000C02826010BC704790F83C30012B78D006
:103FE00010B50446012380F83C30022380F83D30B0
:103FF0000268936823F47F4323F0770393600B6890
:10400000602B4CD029D8402B54D00CD9502B22D126
:10401000CA6849680068FFF787FD50212068FFF7EC
:10402000A8FD002005E0202B0DD009D9302B0AD0A7
:104030000120012384F83D30002384F83C3010BD7A
:104040000BB1102B05D119462068FFF792FD002017
:10405000EFE70120EDE70120EBE7B3F5805F34D017
:10406000B3F5005F0CD1CB684A6889680068FFF738
:10407000A7FF2268936843F4804393600020D8E749
:10408000702B24D1CB684A6889680068FFF798FFD5
:104090002268936843F0770393600020C9E7CA68F9
:1040A00049680068FFF752FD60212068FFF761FD55
:1040B0000020BEE7CA6849680068FFF735FD402167
:1040C0002068FFF756FD0020B3E70020B1E701208C
:1040D000AFE70220704701F01F01012303FA01FC42
:1040E000036A23EA0C030362036A02FA01F10B4339
:1040F0000362704710B504460846002942D194F87F
:104100003E30DBB2013B18BF0123002B6ED10028EB
:1041100051D1022384F83E30012201462068FFF786
:10412000DAFF2368334A934203D002F58062934258
:1041300003D15A6C42F400425A6423682D4A9342D8
:1041400049D0B3F1804F46D0A2F57C42934242D091
:1041500002F5806293423ED002F5806293423AD0EB
:1041600002F57842934236D002F57052934232D033
:10417000A2F5943293422ED01A6842F001021A60DE
:10418000002032E0042908D008290DD094F84130ED
:10419000DBB2013B18BF0123B7E794F83F30DBB235
:1041A000013B18BF0123B0E794F84030DBB2013B7C
:1041B00018BF0123A9E7042805D0082807D0022347
:1041C00084F84130A8E7022384F83F30A4E70223B3
:1041D00084F84030A0E79A6802F00702062A07D068
:1041E0001A6842F001021A60002010BD0120FCE7AD
:1041F0000020FAE70000014090F83C30012B3CD051
:1042000010B4012380F83C30022380F83D3003686D
:104210005A689C6822F0700C0A6842EA0C025A60E4
:104220000368174A93421AD0B3F1804F17D0A2F512
:104230007C42934213D002F5806293420FD002F584
:10424000806293420BD002F57842934207D002F588
:104250007052934203D0A2F59432934204D124F0D9
:1042600080044A6814439C60012380F83D30002399
:1042700080F83C30184610BC70470220704700BFE1
:104280000000014090F83C30012B22D0012380F83F
:104290003C30CB6823F440738A68134323F4806373
:1042A0004A68134323F400630A68134323F48053DA
:1042B0000A69134323F400534A69134323F48043E8
:1042C000CA69134302685364002380F83C301846DF
:1042D00070470220704770477047026802F10C0374
:1042E00053E8003F23F0C0030C3242E800310029BC
:1042F000F3D1202380F841307047026802F10C03AB
:1043000053E8003F23F490730C3242E80031002957
:10431000F3D1026802F1140353E8003F23F00103D4
:10432000143242E800310029F3D1036B012B05D090
:10433000202380F84230002303637047026802F1B3
:104340000C0353E8003F23F010030C3242E8003125
:104350000029F3D1ECE790F84130DBB2212B01D0FA
:10436000022070478368B3F5805F17D0036A5A1C38
:1043700002621A7803685A60C38C9BB2013B9BB2FD
:10438000C3844BB90268D36823F08003D36002680A
:10439000D36843F04003D360002070470369002BCB
:1043A000E4D1036A1B880268C3F308035360036AFD
:1043B00002330362E0E7000038B50446026813697F
:1043C00023F44053C1680B431361836802691343AC
:1043D00042691343C2691A430168CB6823F4164348
:1043E00023F00C031343CB600268536923F440733A
:1043F00081690B4353610368314A934206D002F549
:104400008062934202D0FFF7DBFA01E0FFF7E8FA9F
:10441000E369B3F5004F29D00021031849411B1867
:1044200041F10001C90041EA5371DB0018186368CB
:104430004FEA83024FEA937341F10001FCF7D0FD8C
:10444000204DA5FB00325109642303FB11031B011E
:104450003233A5FB03235B0903F0F00202EB0112E8
:1044600003F00F03216813448B6038BD002302184A
:1044700043EB0301121841F10001C90041EA5271F6
:10448000D200101841F10001626892185B41FCF7FC
:10449000A7FD0C4DA5FB00325109642303FB11035A
:1044A000DB003233A5FB03235B095A0002F4F872E8
:1044B00002EB011203F00703216813448B60D4E779
:1044C000001001401F85EB512DE9F04383B00546F4
:1044D0000E4617469946DDF828802C68246836EA8F
:1044E00004030CBF4FF0010C4FF0000CBC4528D169
:1044F000B8F1FF3FF1D0FEF74BFBA0EB09004045C0
:1045000023D8B8F1000F22D02B68DA6812F0040F1C
:10451000E3D0802EE1D0402EDFD01A6812F0080FD1
:10452000DBD0002401941A6801925B680193019B1F
:104530002846FFF7E2FE08236B6485F8404001201F
:1045400000E0002003B0BDE8F0830320FAE7032079
:10455000F8E760B310B5044690F8413013B3242354
:1045600084F841302268D36823F40053D360204696
:10457000FFF722FF2268136923F490431361226836
:10458000536923F02A0353612268D36843F400532C
:10459000D36000206064202384F8413084F84230E6
:1045A000606310BD80F84030FEF704F9D7E70120C2
:1045B00070472DE9F04182B01E4690F84130DBB2E1
:1045C000202B56D104460D469046002955D00AB9F5
:1045D00001204FE000234364212380F84130FEF79F
:1045E000D7FA0746A4F82480A4F82680A368B3F578
:1045F000805F02D04FF0000814E023692BB34FF026
:1046000000080FE0202384F84130032032E038F81E
:10461000023B2268C3F308035360E28C92B2013A72
:1046200092B2E284E38C9BB293B100963B460022A7
:1046300080212046FFF748FF0028E3D1002DE6D077
:1046400015F8012B23685A60E7E7A8460025E9E73B
:1046500000963B46002240212046FFF735FF18B95F
:10466000202384F8413005E0202384F841300320E2
:1046700000E0022002B0BDE8F0810120FAE72DE958
:10468000F04182B01E4690F84230DBB2202B59D167
:1046900004460D469046002958D00AB9012052E040
:1046A00000234364222280F842200363FEF770FA5D
:1046B0000746A4F82C80A4F82E80A368B3F5805F89
:1046C00002D04FF000081CE0236913B14FF000083E
:1046D00017E0A846002514E0202384F84230032088
:1046E00031E023685B68C3F3080328F8023B03E06A
:1046F00023685B682B700135E28D92B2013A92B269
:10470000E285E38D9BB2C3B100963B460022202197
:104710002046FFF7D9FE0028DED1002DE1D0A368A6
:10472000B3F5805FE4D013B92369002BE0D0236890
:104730005B6803F07F032B70DDE7202384F84230B1
:10474000002000E0022002B0BDE8F0810120FAE77D
:1047500010B5044603685A6990F84130DBB2212B4A
:104760000AD023685A6902F0400294F84230DBB262
:10477000222B19D0002010BD02F08002002AF0D0B8
:10478000226802F1140353E8003F23F0800314323F
:1047900042E800310029F3D1A06B08B1FEF7A7FB76
:1047A0002046FFF79AFDDCE7002AE3D0226802F1F9
:1047B000140353E8003F23F04003143242E8003171
:1047C0000029F3D1E06B08B1FEF791FB2046FFF71B
:1047D00094FDCFE7704708B50168CA6822F040022F
:1047E000CA60202280F84120FFF7F4FF002008BDB6
:1047F0007047704710B5846B23685A6994F841304C
:10480000DBB2212B10D023685A6902F0400294F8E1
:104810004230DBB2222B11D0636C43F0100363648F
:104820002046FFF7E6FF10BD02F08002002AEAD022
:104830000023E3842046FFF750FDE4E7002AEBD095
:104840000023E3852046FFF758FDE5E708B5806BB8
:104850000023C385C384FFF7CCFF08BD704790F8E1
:104860004230DBB2222B69D18368B3F5805F4FD031
:10487000826AB3F5805F04D0002B56D10369002B08
:1048800053D103685B681370836A01338362C38DFD
:104890009BB2013B9BB2C385002B51D100B583B0C5
:1048A0000268D36823F02003D3600268D36823F43E
:1048B0008073D3600268536923F00103536120239E
:1048C00080F8423000234363036B012B33D1002374
:1048D0000363026802F10C0353E8003F23F0100366
:1048E0000C3242E800310029F3D103681A6812F053
:1048F000100F06D0002201921A6801925B680193A2
:10490000019B818DFFF7AAFF002003B05DF804FB37
:104910000269002AACD1826A03685B68C3F30803AA
:104920001380836A02338362B1E703685B6803F034
:104930007F031370A8E7FDF773FBE5E702207047DC
:104940000020704730B583B0044602681368D06811
:10495000516913F00F0505D113F0200F02D010F0AC
:10496000200F19D12DB111F0010119D110F4907F50
:1049700016D1216B01297DD013F0800F03D010F0E8
:10498000800F40F0198113F0400F03D010F0400F5A
:1049900040F0168103B030BD2046FFF760FFF9E715
:1049A00013F0010F06D010F4807F03D0626C42F048
:1049B0000102626413F0040F04D019B1626C42F07A
:1049C0000202626413F0020F04D019B1626C42F06B
:1049D0000402626413F0080F07D010F0200F00D11A
:1049E00019B1626C42F008026264626C002AD1D094
:1049F00013F0200F02D010F0200F29D123685B693B
:104A000003F04003626C12F0080F00D163B320463C
:104A1000FFF773FC23685B6913F0400F20D0226816
:104A200002F1140353E8003F23F04003143242E83C
:104A300000310029F3D1E36B73B1634A1A65E06B6F
:104A4000FEF79FFA0028A5D0E06B036D9847A1E719
:104A50002046FFF704FFD1E72046FFF7CAFE99E79B
:104A60002046FFF7C6FE95E72046FFF7C2FE00236B
:104A700063648FE713F0100F3FF47EAF10F0100F58
:104A80003FF47AAF002301931368019353680193B5
:104A9000019B536913F0400F52D0E26B13685B68BF
:104AA0009BB2002B3FF476AFA18D99427FF672AF97
:104AB000E385D369B3F5807F37D0226802F10C0318
:104AC00053E8003F23F480730C3242E800310029A0
:104AD000F3D1226802F1140353E8003F23F00103ED
:104AE000143242E800310029F3D1226802F11403A4
:104AF00053E8003F23F04003143242E8003100291C
:104B0000F3D1202384F8423000232363226802F18A
:104B10000C0353E8003F23F010030C3242E800314D
:104B20000029F3D1E06BFEF7E2F902236363A18D64
:104B3000E38D9BB2C91A89B22046FFF78FFE29E7A1
:104B4000A18DE38D9BB2C91A89B2E38D9BB2002B74
:104B50003FF420AF00293FF41DAF226802F10C039F
:104B600053E8003F23F490730C3242E800300028F1
:104B7000F3D1226802F1140353E8003F23F001034C
:104B8000143242E800300028F3D1202384F8423068
:104B900000232363226802F10C0353E8003F23F053
:104BA00010030C3242E800300028F3D10223636383
:104BB0002046FFF753FEEDE62046FFF7CCFBE9E683
:104BC0002046FFF708FEE5E64D48000808B5806B73
:104BD00001234363036B012B02D0FFF709FE08BDDD
:104BE000818D4908FFF73AFEF9E708B50346806B67
:104BF0001B681B6813F4807F2BD10023C3850268D8
:104C000002F10C0353E8003F23F480730C3242E8B6
:104C100000310029F3D1026802F1140353E8003F88
:104C200023F00103143242E800310029F3D1026875
:104C300002F1140353E8003F23F04003143242E82A
:104C400000310029F3D1202380F84230036B012B7F
:104C500007D000234363036B012B0FD0FDF7E0F96E
:104C600008BD026802F10C0353E8003F23F0100373
:104C70000C3242E800310029F3D1EAE7818DFFF7D9
:104C8000EDFDEDE781628285C28500234364222326
:104C900080F84230036923B10268D36843F480731B
:104CA000D3600268536943F0010353610268D3681B
:104CB00043F02003D3600020704708B590F84230DD
:104CC000DBB2202B08D149B10AB9012008BD00236D
:104CD0000363FFF7D7FFF9E70220F7E70120F5E7C5
:104CE00030B583B004461346816282850025456451
:104CF000222280F84220C26B1F48D063E26B1F481B
:104D00001064E26B1E48D064E26B156520680A46A9
:104D1000011DE06BFEF7B6F8019523681A68019251
:104D20005B680193019B23695BB1226802F10C036C
:104D300053E8003F43F480730C3242E8003100290D
:104D4000F3D1226802F1140353E8003F43F001035A
:104D5000143242E800310029F3D1226802F1140331
:104D600053E8003F43F04003143242E80031002989
:104D7000F3D1002003B030BDEB4B0008CD4B000851
:104D8000F547000808B590F84230DBB2202B08D177
:104D900049B10AB9012008BD00230363FFF7A0FF52
:104DA000F9E70220F7E70120F5E7000038B5984B56
:104DB0001B78002B40F08480FA23964A13809622B9
:104DC00095490A8095490A80954A64211180954A3F
:104DD00032211180944A1380944BE6221A80944B1E
:104DE0001B78EBB101229349CA549348B0F900E013
:104DF000924921F813E09249B1F900C0914C24F88E
:104E000013C0914C2370914BA3F800E0904BA3F892
:104E100000C00023864C237003800B808D4B1A70DA
:104E2000844B5B785BB18C4B4FF47A721A808B4B5E
:104E30001B78002B00F09080012B00F0A2807D4BAE
:104E40009B783BB1864B1B78002B00F0B480012B84
:104E500000F0C180774BDB78ABB1824B1B78002B25
:104E600040F01081754BB3F90630002B00F0C28082
:104E7000012B00F0C680714BB3F906207A4B1A70F3
:104E8000784B01221A706B4B1B79002B00F03B8191
:104E9000764B1B78002B40F03481684BB3F9083017
:104EA000002B00F02581012B40F02D81012001F025
:104EB00027FB012840F027816C4B01221A7022E168
:104EC000012B1BD0022B30D0032B88D1514B4FF438
:104ED000A0721A80504BD2221A80504BB4221A80F2
:104EE0004F4B6E221A804F4B41221A804E4B4FF48B
:104EF00082721A804D4BEB221A8070E7454B4FF4BB
:104F00008C721A80444BB4221A80444B96221A8029
:104F1000434B64221A80434B37221A80424BFA22B9
:104F20001A80424BE6221A8059E73A4B4FF49672A8
:104F30001A80394BD2221A80384B96221A80384B6D
:104F400064221A80374B3C221A80374BFA221A808F
:104F5000364BE6221A8042E7384BB3F90200394B50
:104F6000B3F902102C4B1B882A4AB2F90020C90160
:104F7000C00100F0E9FB01233D4A1370374A13706A
:104F80005DE73C4B1B78012B04D0394B1B78002B81
:104F90007FF455AF0024364B1C70304B1C70254BF2
:104FA0005C704FF6FF73022233493448FFF701FB70
:104FB000284B1C7043E71A4B1A881A4B19881F4B51
:104FC000B3F9040000F058FC01287FF443AF244BF0
:104FD00001221A703EE70024214B1C70154B9C7077
:104FE0004FF6FF73022226492448FFF7E2FA194BD5
:104FF0001C702FE70D4B19880B4B188800F00EFE24
:1050000039E70A4B1988084B188800F017FE32E779
:105010007A0C002028000020240000202A00002014
:10502000260000202C000020300000202E00002050
:10503000810E00200C0E0020820E00207C0C00202F
:10504000840E0020440D0020700E0020720E0020FF
:10505000740E0020790C0020CC0E0020790E002068
:10506000780E00207C0E0020780C00207B0E0020A3
:10507000CA0E00208F0E0020488300089C0B0020E1
:105080004C830008012B7FF4FEAE9A4BB3F9063037
:10509000994A1278934207D0E3B1012B21D0954B66
:1050A000B3F90620944B1A70944B1B78012B7FF4B4
:1050B000EAAE0024924B1C70924BDC704FF6FF73EB
:1050C000022291499148FFF774FA914B1C708A4B68
:1050D0001C70D8E68F4B19888F4B188800F09EFD06
:1050E000DDE78C4B19888C4B188800F0A7FDD6E7BC
:1050F000002001F005FA012805D1884B01221A7021
:1051000001E0012B48D07F4B5B798BB1794BB3F930
:105110000A00C0B2824B1870824BB3F90A10C9B2B0
:10512000814B1970814B1B78002B44D0012B62D02E
:10513000744B9B798BB16F4BB3F90C00C0B27C4BB5
:105140001870784BB3F90C10C9B27A4B19707A4BBE
:105150001B78002B62D0012B76D06A4BDB79002BB9
:1051600040F08580674B1B7A002B40F09680654BA2
:105170005B7A002B00F0BD805E4BB3F9120005286E
:1051800000F3AD80674BB3F91230052B00F3A78015
:105190006A4B96221A80A6E00024604B1C70594B83
:1051A0001C714FF6FF73022265495848FFF701FA58
:1051B000574B1C70A7E7574B1B88574A128800F0C3
:1051C0000BFE01280BD002280DD00328B0D14FF6DA
:1051D000FF7302225B494D48FFF7EBF9A8E7534BF9
:1051E00001221A70A4E74FF6FF730222564947487E
:1051F000FFF7DFF99CE700244C4B1C70484B1C70F8
:10520000494B1C703F4B5C714FF6FF7302224F49B4
:105210003E48FFF7CEF93E4B1C7089E73D4B1B889B
:105220003D4A128800F024FF012809D0022894D1B9
:105230004FF6FF73022246493448FFF7BAF98CE76C
:105240003D4B01221A7088E700243B4B1C70384B01
:105250001C70384B1C702B4B9C714FF6FF73022255
:105260003C492A48FFF7A5F9294B1C7075E73A4BD2
:1052700019883A4B188800F093FB01287FF472AF2D
:105280000024204BDC714FF6FF73022234491F4883
:10529000FFF78FF91E4B1C7064E7164DB5F910002F
:1052A000204CB4F9101089B280B2FCF731FA3220E8
:1052B000FCF7E6FAB5F91000B4F9101089B280B223
:1052C000FCF726FA00240F4B1C724FF6FF730222E4
:1052D00024490E48FFF76DF90D4B1C7047E7174B3B
:1052E0004FF4C8721A80204B1B78002B3ED0012B44
:1052F00054D038BD7C0C0020780C002032000020F7
:105300007C0E00200C0E0020508300089C0B002017
:10531000790C00202E000020300000207B0E0020A1
:105320007E0E0020440D0020800E00207A0E00200A
:105330007D0E00207F0E0020770E0020CC0E002076
:10534000548300085C8300085883000860830008C9
:105350006483000868830008260000202A000020DB
:105360006C83000870830008760E002000EB400478
:10537000174BB3F9121001EB4105164B1B88164A67
:10538000B2F9002001EB850100EB840000F0DCF9AC
:105390000123124A1370124A1370AAE7114B1B78AB
:1053A000012B03D00E4B1B78002BA2D100240C4BF9
:1053B0001C700A4B1C700C4B5C724FF6FF73022280
:1053C0000A490B48FFF7F5F80A4B1C7091E700BF3C
:1053D000440D0020260000202A000020760E002028
:1053E000CA0E00208F0E00200C0E002074830008CF
:1053F0009C0B0020790C0020002800DB7047404205
:10540000FCE700004C4B1B781BB9012808D005288D
:1054100006D0012B0FD0484B1B78022B1BD07047B6
:10542000454B01221A70454A1378591C1170444AA1
:1054300022F81300EFE741490A78531CDBB20B70E6
:105440003F4921F81200092B01D86B28E3D13A4BD0
:1054500002221A70DFE7394B1B78013B384A32F8D9
:1054600013306B2B08D00023334A1370334A137068
:10547000344A022111705BE00023304A13702E4A37
:1054800013702F4B1B88012B0DD0052B21D0052B22
:1054900038D00023092B44D8294A002122F81310C0
:1054A0000133DBB2F6E7264A5288FD2AEDD1244AC1
:1054B00092889F2AE9D1234B01221A70002305E02C
:1054C0001F4A002122F813100133DBB2032BF7D956
:1054D00070471B4A5288FD2AD9D1194A92889F2ABF
:1054E000D5D1194A1278002AD1D1174B0121197050
:1054F00005E0134B002123F812100132D2B2032A27
:10550000F7D970470E4B5B88272B01D00023C1E7EA
:105510000B4B9A88B3F9063043EA02230B4A1380F7
:1055200070477047064A002122F813100133DBB29E
:10553000092BF7D973E700BFA50E0020A40E0020A9
:10554000900E00208F0E0020320000208C0E0020D4
:1055500008B5094900230B70FF234B7066238B703D
:105560006B23CB704FF47A7304220448FFF721F8C1
:105570000A20FCF785F908BDA80E0020C40A002007
:1055800070B504460D4616460846FFF735FF83B250
:10559000134A1470F6215170012C05D0032C03D04E
:1055A000002D1ADB012202E0002D14DB00220C4941
:1055B0008A701B0ACB7008714E7101238B716B23AB
:1055C000CB714FF47A7308220648FEF7F2FF0A20E7
:1055D000FCF756F970BD0122E9E70022E7E700BFBA
:1055E000A80E0020C40A0020F8B505460C46164651
:1055F0001F461046FFF700FF83B21E4A1570FD21BB
:105600005170012D05D0032D03D0002E27DB012280
:1056100002E0002E21DB002216498A701B0ACB70A3
:1056200008714F71230E8B71C4F30743CB71C4F320
:1056300007230B724C7200238B720123CB726B23F6
:105640000B734FF47A730D220B48FEF7B2FF012D56
:1056500007D00A20FCF714F9F8BD0122DCE700228C
:10566000DAE7064C002525700A20FCF709F92570B9
:10567000EFE700BFA80E0020C40A00208F0E002014
:10568000F8B504460D4616461F461046FFF7B4FE11
:1056900083B2274A1470FD215170012C05D0032CD0
:1056A00003D0002E28DB012202E0002E22DB0022A4
:1056B0001F498A701B0ACB7008714F712B0E8B71BA
:1056C000C5F30743CB71C5F307230B724D7201235A
:1056D0008B72CB726B230B734FF47A730D221548C8
:1056E000FEF767FF0A20FCF7CBF8012C06D0052C4B
:1056F00011D0F8BD0122DBE70022D9E700230E4AD2
:10570000137005E00D4A002122F813100133DBB2BB
:10571000032BF7D9EBE70023094A137005E0074A8A
:10572000002122F813100133DBB2032BF7D9E0E795
:10573000A80E0020C40A00208F0E0020900E00202A
:1057400032000020000000002DE9F04F85B0044633
:105750000D46164601930F1A3846FFF74DFE00FB23
:1057600006FA05FB05F004FB0400FAF77BFE804611
:10577000894602F0CFFC3EA3D3E90023FAF7DCFE12
:10578000CDE902015046FAF75DFEDDE90223FAF7A2
:10579000FDFFFBF7E3F8834605EB040A5046FFF7ED
:1057A0002BFE00FB06F64046494602F0B3FC30A350
:1057B000D3E90023FAF7C0FE804689463046FAF75F
:1057C00041FE42464B46FAF7E1FFFBF7C7F8BAF154
:1057D000000F25DB06B29DF8048043463246514651
:1057E0000120FFF701FF4346324651460420FFF7F0
:1057F000FBFE002F27DB0FFA8BFB9DF804402346AE
:105800005A4639460220FFF7EFFE23465A463946EC
:105810000320FFF7E9FEFFF79BFE05B0BDE8F08F20
:10582000CAF1000A404206B29DF80480434632465F
:1058300051460120FFF7D8FE434632465146042028
:10584000FFF7D2FED5E7641BCBF1000B0FFA8BFB01
:105850009DF804502B465A4621460220FFF7C4FE0D
:105860002B465A4621460320FFF7BEFED3E700BF72
:10587000666666666666F63FF8B5434B1D78B5B951
:1058800001221A7000F159039BB2B22B09D9FBF720
:1058900047F93E4C2168FBF78FF83D4B18602060BC
:1058A0000AE03F30FBF73CF9394B186004E00E4644
:1058B0001446012D02D000252846F8BD344B196846
:1058C0003448FBF777F80146FBF776F80746304691
:1058D000FBF726F93946FBF715FB00283AD030468E
:1058E000FBF71AF906463046FBF734FB07B2E4B281
:1058F000224639460120FFF743FE06F10040FBF740
:1059000029FB06B2224631460220FFF739FE224625
:1059100039460320FFF734FE224631460420FFF7C4
:105920002FFEFFF715FE1A4B1C681B492046FBF79C
:1059300041F81849FBF7F0FAB8B117492046FBF7D0
:105940003BF81449FBF7F2FA78B1144A13780133A3
:1059500013700DE07042FBF7E3F806463946FBF79B
:10596000EFFA0028BFD13E46BDE70C4B00221A706B
:105970000A4B1B78092B05D90023084A1370024AE9
:10598000137099E7002597E7BE0E0020880E0020CF
:10599000C40E002000007C4200004040BC0E0020ED
:1059A000F8B5854B1C783CB9631C834A1370834B54
:1059B000834A1A602046F8BD06460D46012C01D0E8
:1059C0000024F7E77D4B1C687E492046FBF7A4FACC
:1059D00088B17D492046FBF7A9FA08B900240BE0FD
:1059E00004F10040FBF7B6FA2A46314600B2FFF751
:1059F00043FF044600E00024704B1F68734938469B
:105A0000FBF78AFA28B172493846FBF78FFA00286B
:105A10005ED16A4B1F686F493846FBF77DFA28B1A3
:105A20006D493846FBF782FA00285ED1634B1F6848
:105A30006A493846FBF770FA28B169493846FBF7DE
:105A400075FA00285FD15D4B1F6866493846FBF741
:105A500063FA28B164493846FBF768FA00285FD139
:105A6000564B1F6861493846FBF756FA28B1604922
:105A70003846FBF75BFA002860D1504B1F685D4940
:105A80003846FBF749FA28B15B493846FBF74EFA2E
:105A9000002860D1494B1F6858493846FBF73CFA4B
:105AA00028B157493846FBF741FA002861D1434BEA
:105AB0001F6854493846FBF72FFA28B15249384637
:105AC000FBF734FA002861D1012C6DD0002471E776
:105AD00039464E48FAF76EFFFBF73CFA2A46314644
:105AE00000B2FFF7C9FE044693E707F100404749BB
:105AF000FAF760FFFBF72EFA2A46314600B2FFF7AD
:105B0000BBFE044692E739464148FAF753FFFBF7DC
